:020000040800F2
:10000000C028002465030008F3710008AB680008ED
:10001000F17100083F170008298200080000000065
:100020000000000000000000000000006F750008E4
:100030002923000800000000F57100087175000810
:100040008303000883030008830300088303000878
:100050008303000883030008830300088303000868
:1000600083030008830300082B230008F9200008FD
:1000700005210008830300088303000883030008A8
:100080008303000883030008830300088303000838
:100090008303000883030008830300088303000828
:1000A0008303000883030008830300088303000818
:1000B0008303000883030008830300088303000808
:1000C00083030008830300088303000883030008F8
:1000D00083030008118200081D82000883030008C2
:1000E0008303000883030008000000008303000866
:1000F000830300088303000839770008830300089E
:1001000083030008830300088303000883030008B7
:100110008303000883030008830300082D77000889
:100120008303000883030008830300088303000897
:100130008303000883030008830300088303000887
:1001400000000000000000000000000000000000AF
:100150008303000883030008830300088303000867
:100160008303000883030008830300088303000857
:100170008303000883030008830300088303000847
:100180008303000883030008830300088303000837
:100190008303000883030008830300088303000827
:1001A0008303000883030008830300088303000817
:1001B0008303000883030008830300088303000807
:1001C00083030008830300088303000883030008F7
:1001D00083030008830300088303000883030008E7
:1001E00083030008830300088303000883030008D7
:1001F00083030008830300088303000883030008C7
:1002000083030008830300088303000883030008B6
:10021000830300081577000821770008830300088E
:100220008303000883030008830300080000000024
:100230008303000883030008000000008303000814
:100240008303000883030008830300088303000876
:100250008303000883030008830300088303000866
:100260008303000883030008830300088303000856
:1002700083030008830300088303000800000000D4
:1002800083030008830300088303000800000000C4
:10029000000000008303000800F002F800F052F8AC
:1002A0000AA090E8000C82448344AAF10107DA45D1
:1002B00001D100F047F8AFF2090EBAE80F0013F0D1
:1002C000010F18BFFB1A43F0010318470883000011
:1002D00028830000103A24BF78C878C1FAD85207A2
:1002E00024BF30C830C144BF04680C6070470000B0
:1002F0000023002400250026103A28BF78C1FBD82F
:10030000520728BF30C148BF0B607047662908F00C
:10031000D880642900F0F680752900F0F3807829F0
:1003200000F02C81002070471FB508F0C5F800F0E0
:10033000B9FC04000020002108F0A8F8E0601FBD0F
:1003400010B510BD00F0CAFD1146FFF7EDFF07F034
:10035000A9FF00F0E8FD03B4FFF7F2FF03BC00F0D3
:100360001FFE00000A4880470A4880470A480047A5
:10037000FEE7FEE7FEE7FEE7FEE7FEE7FEE7FEE755
:10038000FEE7FEE705480649064A074B70470000AE
:10039000352300081D76000899020008C0080024D3
:1003A000C0280024C0180024C018002453EA020CFE
:1003B00000F069802DE9F04B4FF00006002B1FBFC5
:1003C000B3FA83F503FA05F424FA05F65E4012BF8A
:1003D0001643B2FA82F502FA05F4C5F120051EBFF4
:1003E00022FA05FC44EA0C04203556EA044C4FEA94
:1003F000144418BF641C4FF000084FF000099042ED
:1004000071EB030C39D3002919BFB1FA81F701FA56
:1004100007F6B0FA80F700FA07F6C7F120071EBF0B
:1004200020FA07FC46EA0C062037B6FBF4FCA7EBE3
:100430000507103F07F01F0BCBF120060CFA0BFB52
:100440002CFA06F644BFB3460026202FA4BF5E4612
:100450004FF0000B5BEA060C08BF4FF0010B19EBE5
:100460000B09ABFB027C48EB0608C01B06FB02CC69
:100470000BFB03CC71EB0C01C1E70B460246414676
:100480004846BDE8F08B13B54FF000004FF0000177
:10049000AFF30080BDE81C40704700000FB4044972
:1004A00010B503AA029800F0EBFB10BC5DF814FB3A
:1004B0004800002470B5044685690068C10601D56E
:1004C000302600E02026C00707D070BDD4E9012106
:1004D00030469047206A401C20626D1EF6D570BDE4
:1004E00070B5044685690078C00707D170BDD4E9AE
:1004F000012120209047206A401C20626D1EF6D505
:1005000070BD00002DE9F0410646002410687529F1
:10051000314616A510D0AFF30080002802DA404221
:1005200013A507E031688A0701D512A502E0490743
:1005300004D511A5012401E0AFF3008000210A22B7
:1005400006F1240709E0B0FBF2FCB0FBF2F302FB7A
:100550001C00303078541846491C0028F3D123463B
:100560002A463046BDE8F04100F022B90000000004
:100570002D0000002B0000002000000070B5044694
:100580000D4621461068AFF300802188090502D589
:100590000F4A7A4402E00E4A7A440E32002104F1F6
:1005A000240305E000F00F060009965D5E54491C27
:1005B0000028F7D120780023000704D5702D02D041
:1005C00009B1022311322046BDE8704000F0F0B8B6
:1005D000707F00002DE9F05F894604464FF0000A65
:1005E000DFF874B1FB44C0F820A02046E1688847DA
:1005F000002874D0252806D0D4E901219047206A2C
:10060000401C2062F1E700265F462046E1688847EB
:100610002028054607DB312D05D2781910F8200C6B
:1006200008B10643F1E7B00701D526F00406C4F887
:100630001CA00027C4F818A02A2D09D0284607F0CE
:100640001DFE38B304EB8708303DC8F8185019E098
:1006500059F8041B204604EB87029161E168884742
:10066000012F054618D1E069002820DA26F020067F
:100670001DE0D8F8180000EB800005EB4000303892
:10068000C8F818002046E1688847054607F0F6FDDF
:100690000028EED1012F0AD02E2D08D12046E16886
:1006A00088477F1C0546022F46F02006C4DBA06960
:1006B000002803DA404246F00106A061F00701D0AD
:1006C00026F010066C2D0BD0682D09D04C2D39D09A
:1006D0006A2D35D0742D35D07A2D33D016E038E020
:1006E000E1682F4620468847B842054609D16C2F5D
:1006F00026D04FF48060E1680643204688470546CF
:1007000004E06C2F1AD04FF4807006430DB3A5F1AE
:100710004100192802D8203546F400664A46294689
:10072000204626604E46FFF7F1FD80B101280BD030
:10073000F61D26F0070000F1080956E74020E4E71F
:100740008020D8E70020D6E706F104094DE72846C7
:1007500052E7206ABDE8F09F467F00004FF000029C
:1007600000B5134694469646203922BFA0E80C50A7
:10077000A0E80C50B1F12001BFF4F7AF090728BF82
:10078000A0E80C5048BF0CC05DF804EB890028BFFE
:1007900040F8042B08BF704748BF20F8022B11F027
:1007A000804F18BF00F8012B7047704770477047A3
:1007B0002DE9F0470D4699469246044600F124087B
:1007C0000168880604D5E06921F01001216000E08D
:1007D0000120A84201DD471B00E00027A1697A192A
:1007E00002EB0900081AA0612078C00602D4204656
:1007F000FFF760FE002608E0D4E901211AF80600A0
:100800009047206A401C761C20624E45F4DB20781D
:10081000C0060AD52046FFF74DFE06E0D4E90121C7
:1008200030209047206A401C2062381EA7F1010743
:10083000F4DC07E0D4E9012118F805009047206AAC
:10084000401C2062281EA5F10105F3DC2046FFF7BD
:1008500047FE2078000602D50220BDE8F08701207F
:10086000FBE770472DE9FF4F0C461E464FF0FF3760
:100870008BB0D2E90001DDF860800A908A46C1F3AE
:100880000A5505B93D46002108464FF00000BAF16F
:10089000000F00F4400005DA00EB80004FF4400147
:1008A00001EA50004FEA9059B9F1010F00DDB94655
:1008B0000A9850EA4A000ED044F61050A5F2FF35CF
:1008C00045432F14B8F1000F1ED07542291E1EDDBE
:1008D000C9F100021CE0B8F1010F4FF0000001D097
:1008E000302103E0F24305E02154401CB042FBDB21
:1008F00030460022002121540B99C1F80880C1E93B
:1009000000200FB0BDE8F08FBD1B6D1CDEE74A462E
:1009100000DA694206A800F067FA06AB93E8070020
:1009200003AB83E8070050460A9900F040FB8DE8CE
:100930000700A0F500501F3800900398002D0ADD35
:1009400042F21F014A460844002303A90390684667
:1009500000F0A9FD09E0A0F500504A461F38002329
:1009600003A90390684600F0B3FD8DE8070000047A
:10097000000C03D04FF0FF30410800E01046B8F102
:10098000000F03D00022009215461EE0751E05D40C
:1009900000F08CF9303262556D1EF9D5B346012254
:1009A000084302D000227F1C04E02078302801D1C7
:1009B00000227F1E002A099784D01DE0112D07DA3E
:1009C00000F074F9303262556D1C50EA0102F5D125
:1009D000084302D00098C8B10EE00021681E05E06F
:1009E000235C625C63542254401E491C8142F7DB45
:1009F000AB46A81B401E0990002004F80B000B9882
:100A0000099AC0F80880C0E9002B7AE711264FF058
:100A1000000857E72DE9F04F88460446D21D22F022
:100A2000070191B0D1E90001CDE90A0107F0FDFB12
:100A300002460B98C00F01D02D2007E020688107E7
:100A400001D52B2002E0202101EAC000032A0990F1
:100A500001D0072A05DB03464146204600F084F911
:100A60000BE12078800601D5E06900E00620B8F1AE
:100A7000650F814606D0B8F1660F18D0B8F1670F40
:100A800070D131E00020B9F1110F009001DB11238A
:100A900001E009F101030AAA01A90CA8FFF7E2FE8F
:100AA000DDE90C70002609F10105834647E00120CD
:100AB0004B4600904FF000470AAA01A90CA8FFF787
:100AC000D1FEDDE90DB00C995D46002610B909F1A3
:100AD00001000D18B9EB050003D4C0F1FF3609F190
:100AE0000105A5EB09002BE0B9F1010F01DA4FF088
:100AF00001090020B9F1110F0090484601DD1123D2
:100B000000E003460AAA01A90CA8FFF7ABFEDDE945
:100B10000C704D4600268346207800070AD4AB456A
:100B200000DA5D4601A8012D04DD411911F8011C10
:100B3000302907D04F4502DA17F1040F04DA0120FB
:100B400082460FE06D1EEEE7002F02DCED1B3E44F7
:100B500003E0781CA84200DD7D1CB81B00F1010AEF
:100B60004FF000472078000703D4AA4501DB4FF07F
:100B7000FF3A0021B7F1004F0DF143088DF8431003
:100B800024D002202B23002F01DA7F422D230A21BB
:100B9000021EA0F1010000DC5FB197FBF1FC97FBA6
:100BA000F1F201FB1C7C17460CF1300C08F801CD6A
:100BB000EEE7A8F1010003702188090501D5452160
:100BC00000E06521A0F1010800F8011C09980FA9B7
:100BD000A1EB0807FF1D00B10120411901EBEA70EC
:100BE000A1693844081A401EA0612078C00602D4CA
:100BF0002046FFF75FFC099828B1D4E9012190470E
:100C0000206A401C20622078C00622D52046FFF7CB
:100C100051FC1EE0002E04DBB34502DD01A8805D1F
:100C200000E03020D4E901219047206A401C206276
:100C3000761CAAF101005FEA000A0AD100F032F83E
:100C4000C0680168405CD4E901219047206A401CDB
:100C50002062281EA5F10105DCDC07E0D4E90121B2
:100C600018F8010B9047206A401C2062381EA7F13B
:100C70000107F3DC2046FFF733FC032011B041E607
:100C8000074B70B50D467B4400F05BF804462846E0
:100C900000F01CF910B14FF0FF3070BD204670BD60
:100CA00003760000004870477C08002430B5B0F19E
:100CB0000A024FEA900E71F100034EEA817EB0EB1A
:100CC0000E0061EB91014FEA101E4EEA017E10EB1F
:100CD0000E0041EB11114FEA102E4EEA016E10EB9F
:100CE0000E0041EB11214FEA104E4EEA014E10EB7F
:100CF0000E0041EB1141401841F100014FEAD000D4
:100D000040EA41704FEAD10110EB80054FEA8104BF
:100D100044EA907444EB01046D1944EB0404521B43
:100D2000A3414FF0000348BF0A3200D530BD401C3C
:100D300041F1000130BD000001694A1C02610878E0
:100D4000704700B58FB0CDE901310021059105490B
:100D50007944CDE9031011466846FFF73BFC0FB01C
:100D600000BD0000E5FFFFFF2DE9F0411F460446EE
:100D700003260168072A01F4006004DB08B116A508
:100D800005E016A503E008B115A500E015A521F0C2
:100D900010002060A069C01EA0610FB1401EA061BC
:100DA0002046FFF787FB4FB1D4E901213846904731
:100DB000206A401C2062C01C206206E0206AFAE71C
:100DC000D4E9012115F8010B9047761EF8D2204690
:100DD000FFF786FBBDE8F0814E414E006E616E006C
:100DE000494E4600696E66002DE9F0478146164679
:100DF0008AB0354878440DC88DE80D0032487844F3
:100E0000801C03AC0DC884E80D0041F69B300844FB
:100E1000372190FBF1F290FBF1F5A5F1800501FB84
:100E200012041B3C02D56442012000E00020DFF8E0
:100E300098A080460027FA44AAF1BE0A0EE0E00717
:100E40000AD03246684607EB470101230AEB8101CD
:100E500000F03EFB8DE8070064107F1C002CEED1F3
:100E6000194F7F44AE3F19E0E80715D007EB041097
:100E70000DF1180A90E80E008AE80E00C068F042F2
:100E800001D1981908903246012306A903A800F061
:100E90001FFB03AB83E807006D10641C002DE3D13A
:100EA0004FF0010332466946B8F1000F03A802D0A3
:100EB00000F0F9FA01E000F00BFBC9E90001C9F804
:100EC00008200AB0BDE8F087C4770000007B00F07E
:100ED00080007047004870475C0800247546FFF7A3
:100EE000F9FFAE4605006946534620F007008546E7
:100EF00018B020B5FFF746FABDE820404FF00006D5
:100F00004FF000074FF000084FF0000B21F00701F1
:100F1000AC46ACE8C009ACE8C009ACE8C009ACE834
:100F2000C0098D46704710B50446AFF300802046D7
:100F3000BDE81040FFF70FBA4FF0013C50F8042B0A
:100F400051F8043B9A4215D1A2EB0C03934313EAE8
:100F5000CC130BD150F8042B51F8043B9A4209D121
:100F6000A2EB0C03934313EACC13E7D04FF000003D
:100F7000704700BFD01A01BAB1FA81F101F018012F
:100F800022FA01F0CB40C1F12001DBB2C0B2C01A9D
:100F90002CFA01F3D11A914311EAC311E6D170473B
:100FA00001491820ABBEFEE72600020070475FEA49
:100FB000400C08BF91F0000F4FEA8C234FEAC1228A
:100FC00043EA51514FEA1C5018BF00F5F0404FEA78
:100FD000300018BF41F000415FEA6C5C00F02980EE
:100FE000BCF1FF3F08BF40F080407047130C06BFC4
:100FF00012044FF0100C4FF0000C130E04BF12023D
:101000000CF1080C130F04BF12010CF1040C930F28
:1010100004BF92000CF1020CD30F04BF52000CF17C
:10102000010C11464FF00002A0F11F00A0EB0C00D4
:10103000704711F0004F08BF704731F000413FF496
:10104000D5AF0B0C06BF09044FF0100C4FF0000C8D
:101050000B0E04BF09020CF1080C0B0F04BF0901B1
:101060000CF1040C8B0F04BF89000CF1020CCB0FA8
:1010700004BF49000CF1010CCCF12003A0EB0C00E3
:1010800022FA03F302FA0CF241EA030100F1010033
:10109000704720F07F4C80EA030023F07F47ACEBE1
:1010A000070303F57C5300F0004003F1FF032DE933
:1010B00080494FEA154B09B44FEA144325EA0B4E19
:1010C00024EA03480FF2042606EB132749083E786A
:1010D0005FEA320203FB0667C7F5000707FB06F667
:1010E0004FEA54374FEAD64606F1020607FB066C74
:1010F000CCF1005C4FEA1C472CEA074C07FB06F4D6
:101100000CFB06F504EB15464FEA961634BF00209B
:101110004FF000404FEAD13706FB07FC4FEA1C4C6A
:101120000CFB0BF7D21B03FB0CF761EB07010CFB6D
:101130000EF7B0EB074072EB17420CFB08F734BF19
:10114000A2EB0742B2EB074261EB17414FEA0C44B6
:101150004FEA910706FB07FC4FEA1C4C0CFB0BF710
:10116000B0EBC74072EB573203FB0CF734BFA2EB76
:10117000C742B2EBC74261EB57310CFB0EF7B0EB45
:10118000C70072EB57720CFB08F734BFA2EBC70223
:10119000B2EBC70261EB5771039F4FEA816141EAED
:1011A000921104EBCC044FEAD1374FEA826206FB7E
:1011B00007FC42EA90124FEA80604FEA1C4C0CFB9D
:1011C0000BF7D21B03FB0CF761EB07010CFB0EF7CF
:1011D000B0EB074072EB17420CFB08F734BFA2EBF1
:1011E0000742B2EB074261EB17414FEA8C554FEAD9
:1011F000910704EB9C2406FB07FC4FEA1C4C0CFBFC
:101200000BF7B0EBC74072EB573203FB0CF734BF60
:10121000A2EBC742B2EBC74261EB57310CFB0EF7B2
:10122000B0EBC70072EB57720CFB08F734BFA2EBB0
:10123000C702B2EBC70261EB577115EB4C254FEAC1
:10124000816141EA92114FEA82624FEAD13742EA64
:10125000901206FB07FC44F100044FEA80604FEA5D
:101260001C4C0CFB0BF7D21B03FB0CF761EB0701CB
:101270000CFB0EF7B0EB074072EB17420CFB08F7C4
:1012800034BFA2EB0742B2EB074261EB174115EB0B
:101290001C154FEA813141EA92414FEA823242EA1B
:1012A00090424FEA80304FEA0C7644F1000448EA5D
:1012B00003434EEA0B484FF0000EB2EB080C71EB03
:1012C000030724BF624639464EEB0E0E4FF0000B6B
:1012D0000018524149414BEB0B0BB2EB080C71EB80
:1012E00003077BF1000B24BF624639464EEB0E0E1E
:1012F0004FF0000B0018524149414BEB0B0BB2EB86
:10130000080C71EB03077BF1000B24BF62463946E2
:101310004EEB0E0E51EA020718BF46F0010616EB1F
:101320000E7655F1000254F1000103D5BDE88901A4
:10133000BDE80088BDE88901BDE80048B619524102
:1013400041EB0101A3F10103704780807F7E7D7C2A
:101350007B7A7978777676757473727171706F6E47
:101360006E6D6C6C6B6A6A696868676666656464F2
:10137000636362616160605F5F5E5E5D5D5C5C5B7C
:101380005B5A5A59595858575756565555555454EB
:10139000535352525251515050504F4F4F4E4E4D49
:1013A0004D4D4C4C4C4B4B4B4A4A4A494949484895
:1013B00048474747474646464545454444444443D5
:1013C00043434342424242414141002B9C4630D478
:1013D00077002BD01CB54FEA370703B44FF010004D
:1013E0004FF01001BAF1000F06D0BCF1000FDCBFC6
:1013F00040F0080040F008014FF000000FBCBDE8CD
:1014000010400BF1010BBBF1010F08BF5FEA17079A
:1014100022BF12F1010211F101014FF0004143F12D
:10142000000300F0004043EA00007047F9D357087A
:10143000D0E746EA064613F1400F4FEA16461FDD95
:1014400013F1200FDFBF16430A46002120335B4211
:10145000BED0C3F1200746EA064602FA07F74FEA74
:10146000164646EA0706C3F1200722FA03F201FAFC
:1014700007F721FA03F14FF0000342EA0702A7E75A
:1014800046EA020646EA06464FEA164646EA0106DC
:10149000BCBF46EA0646360C4FF000034FF0000290
:1014A0004FF0000194E72DE9804C9A46934670B4C2
:1014B00091E8380007C831EA400C48BF34EA430CD1
:1014C00003D5FFF7E6FDFFF780FFF0BCBDE8008C19
:1014D0002DE9804C9A46934670B491E8380007C8CD
:1014E00010F0804F08BF13F0804F03D100F005F8D3
:1014F000FFF76BFFF0BCBDE8008C20F07F4780EA6F
:10150000030023F07F4C07EB0C03A3F57C5300F0A2
:101510000040A3F1FE0392F0000F00F0B38095F0BD
:10152000000F00F077802DE901494FEA11404FEAA2
:10153000144621EA004800FB06FC24EA064708FBA3
:1015400006F607FB08F800FB07F718EB06484CEB1C
:10155000164C4FEA124B18EB07484FEA15464CEB76
:10156000174022EA0B4E0BFB06FC25EA06470EFB52
:1015700006F607FB0EFE0BFB07F71EEB064E4CEBC9
:10158000164C4FF000061EEB074E4CEB174B18EBBA
:101590000B0840F1000018EB0E0B58EB000840F16F
:1015A00000008F1A4FF000013CBFC943661B14BFF7
:1015B000B5EB040C00213CBFC943F61B4FEA1744AE
:1015C0004EEA8E0E27EA04454FEA1C4704FB0762E9
:1015D0002CEA074C05FB07F70CFB05F604FB0CFC9B
:1015E00016EB074642EB174216EB0C4642EB1C4249
:1015F0001BEB060658EB0202414146EA9E0601D566
:10160000BDE80189B619524141EB0101A3F1010383
:10161000BDE801894FEA14454FEA114724EA05461F
:1016200021EA074C05FB07F406FB07F70CFB06F164
:1016300005FB0CFC11EB074144EB17444FEA124742
:1016400011EB0C4144EB1C4422EA074C05FB07F26A
:1016500006FB07F70CFB06F605FB0CFC16EB074632
:1016600042EB174216EB0C4642EB1C456A1854F14C
:10167000000148BF7047B619524141EB0101A3F187
:101680000103704795F0000F37D04FEA11424FEA3F
:10169000144721EA024624EA074C02FB07F106FB45
:1016A00007F70CFB06F402FB0CFC14EB074441EBC0
:1016B00017414FEA154714EB0C4441EB1C4125EA56
:1016C000074C02FB07F506FB07F70CFB06F602FBCF
:1016D0000CFC16EB074645EB174516EB0C4645EBA5
:1016E0001C42121951F1000148BF7047B61952410E
:1016F00041EB0101A3F1010370474FEA14454FEAA2
:10170000114724EA054621EA074C05FB07F106FBD1
:1017100007F70CFB06F24FF0000605FB0CFC12EB82
:10172000074241EB174112EB0C4251EB1C4148BF01
:101730007047921841EB0101A3F101037047FEE7E6
:1017400006480649054A0C310078283231F8101055
:1017500052F82000012201F0BCBF0000000000246C
:1017600006480649054A0C310078283231F8101035
:1017700052F82000002201F0ACBF0000000000245D
:10178000017842788378C0781144184408445A306C
:10179000C0B27047024600F0FE00552101EA500138
:1017A000411A332303EA910301F03301194401EB99
:1017B0001111C90701D042F00100704702480178B9
:1017C000801C405C70470000000000242DE9F041BF
:1017D000040002D0012C05D01BE0002001270426C4
:1017E000402504E00220032705264FF482550021FE
:1017F00000F020FC78B14FF00071384600F01AFC80
:1018000060B12946304600F015FC50B10120BDE81A
:10181000F0810020FBE705A0214604E00CA0214652
:1018200001E015A02146FEF739FEF2E743533535B6
:10183000353220496E69743A2043482575204F534C
:10184000207772697465206661696C65640D0A00B1
:1018500043533535353220496E69743A2043482563
:1018600075204741494E2077726974652066616929
:101870006C65640D0A00000043533535353220494C
:101880006E69743A204348257520434F4E565F4396
:101890004F4E46207772697465206661696C656495
:1018A0000D0A000091B100EE101ADFED0A1A00EEE9
:1018B000900AB8EE402A9FED081AF8EEE00A81EE91
:1018C000820A20EE800A20EE010A70479FED030A8B
:1018D0007047000000401C4500000034000000007C
:1018E000034804490068B0FBF1F0034948607047C1
:1018F0005800002440420F0000000024002811D0AE
:1019000009494A68002A0DD04FF0FF31B1FBF2F1CE
:10191000884200D90846054950434A684B689B1ADB
:101920008342FBD37047000000000024001000E059
:101930007CB5434A002000900190424D507858B940
:1019400002F12800404BA0F11C010826036001248D
:101950000E8043604C805470FFF7C2FF00F0D0FA55
:1019600006204FF0004100F065FBA8B1322001F0E5
:1019700075FD4FF482040620214600F05BFB68B140
:101980000620694600F052FA00280BD0009934EA8C
:10199000010009D02DA028E03AA000E044A0FEF705
:1019A0007DFD37E04FA0FAE70020FFF70FFF00288A
:1019B00031D00120FFF70AFF00282CD0072029464C
:1019C00000F038FBA0B108204FF4003100F032FBEA
:1019D00080B10620694600F029FA68B100998C436D
:1019E000D8D111F0060F09D04BA0FEF757FD11E03A
:1019F00055A0D4E75FA0D2E769A0D0E7072001A9EE
:101A000000F014FA40B1019AAA4207D06FA029460B
:101A1000FEF744FD00207CBD79A0C0E7002000F067
:101A20002FF940B1022000F02BF930B1142001F061
:101A300015FD01207CBD7EA0B1E787A0AFE70000C7
:101A40000000002410021180000C02584353353569
:101A5000353220496E69743A205359535F434F4ED3
:101A60004630206D697373696E6720666C616773B9
:101A70002C205359535F434F4E46303D2530385844
:101A80000D0A000043533535353220496E69743AEA
:101A9000205245475F5359535F434F4E463020779E
:101AA00072697465206661696C65640D0A000000E6
:101AB00043533535353220496E69743A20524547D3
:101AC0005F5359535F434F4E463020636865636BE5
:101AD00073756D20656E61626C65206661696C6509
:101AE000640D0A0043533535353220496E69743A26
:101AF000205245475F5359535F434F4E4630206352
:101B00006865636B73756D207665726966792066AA
:101B100061696C65640D0A004353353535322049DF
:101B20006E69743A206572726F7220666C616773B9
:101B3000207365742C205359535F434F4E46303DFC
:101B4000253038580D0A00004353353535322049C9
:101B50006E69743A205245475F5359535F434F4E65
:101B60004631207772697465206661696C65640D21
:101B70000A00000043533535353220496E69743A06
:101B8000205245475F5359535F434F4E46322077AB
:101B900072697465206661696C65640D0A000000F5
:101BA00043533535353220496E69743A20524547E2
:101BB0005F5359535F434F4E463020726561642036
:101BC0006661696C65640D0A000000004353353599
:101BD000353220496E69743A205245475F53595354
:101BE0005F434F4E4631206D69736D6174636820A9
:101BF000573A2530385820523A253038580D0A00C7
:101C000043533535353220496E69743A2052454781
:101C10005F5359535F434F4E463120726561646292
:101C200061636B206661696C65640D0A00000000E9
:101C300043533535353220496E69743A2043483074
:101C4000206F66667365742063616C206661696CE1
:101C500065640D0A000000004353353535322049D4
:101C60006E69743A20434831206F6666736574204C
:101C700063616C206661696C65640D0A0000000098
:101C80001CB5002103280091019126D800F0030023
:101C9000842141EA0010FFF77DFD0446FFF760FD57
:101CA000204605F027FC98B14FF4FA6000F0A6F941
:101CB00070B1684600F068F850B1FFF741FD009838
:101CC0000023022101AA00F00BF820B101201CBD65
:101CD000FFF736FD01E000F0FBF800201CBD00001E
:101CE00010B51C46130017D000F0010204B1227099
:101CF000012906D88A4204D0034609A0FEF7CEFB8C
:101D00000AE04110196001F10052B2F1804F05D391
:101D1000024611A0FEF7C2FB002010BD012010BD3D
:101D200041444320446174613A206368616E6E658A
:101D30006C206D69736D61746368206578703D25F2
:101D40007520676F743D2575207261773D30782569
:101D500030386C580D0A00004144432044617461DE
:101D60003A206F7574206F662072616E6765207609
:101D7000616C3D256C64207261773D307825303888
:101D80006C580D0A0000000070B51BA186B006005B
:101D90004FF00000D1E9002101900491CDE9020249
:101DA00005D0FFF70BFD050004D0062303E000205B
:101DB00006B070BD05234FF47A700090104801AA58
:101DC00003A903F033FB040006D000F08DF80DA04A
:101DD0002146FEF763FBEAE701AC601C00F0EEF879
:101DE00030603DB19DF80910601C0FA200F0F0F8C2
:101DF0000028DDD00120DBE7FFFFFFFFFFFF000031
:101E00002C0200244144433A20535049207265611A
:101E100064206661696C65642C20737461747573E9
:101E20003D25640D0A00000041444300F0B585B033
:101E30000D4600210A2801910291039104910ED8C8
:101E40006DB100F00F00042101EBC000FFF7A2FC10
:101E50000646FFF7B3FC040004D0062703E0002089
:101E600005B0F0BD05278DF80460FF208DF8050052
:101E70008DF806008DF808008DF807008DF8090030
:101E8000FFF76EFC4FF47A7000900F4803AA01A987
:101E90003B4603F0CBFA0646FFF752FC16B100F0C2
:101EA00023F8DCE7002C03AC07D09DF81110601C70
:101EB00006A200F08DF80028D2D0601C00F07EF859
:101EC00028600120CCE700002C0200245245470086
:101ED000044901F12000097850F82120521C40F8F3
:101EE0002120704700000024044901F11000097806
:101EF00050F82120521C40F8212070470000002497
:101F000010B5FFF72DFC0520FFF7F8FC002005F0C9
:101F1000F1FAA52005F0EEFAFF2005F0EBFA5A20C1
:101F200005F0E8FAFFF70CFC022001F097FABDE893
:101F30001040002000F008B8012800D90020014915
:101F400008707047000000240249024A921C097878
:101F50005054704700000024032810B501D9002018
:101F600010BD00F00300822141EA0010FFF712FCCF
:101F70000446FFF7F5FB0A20FFF7C0FC204605F0FA
:101F8000B9FA30B11420FFF7B9FCFFF7D9FB0120F3
:101F900010BDFFF7D5FB02A0FEF780FADFE70000D7
:101FA000436F6E74436F6E763A20636D6420736581
:101FB0006E64206661696C65640D0A000288817830
:101FC000C37850BA000440EA01201843704700006B
:101FD00010B50C46FFF7D4FB844201D1012010BD9F
:101FE000054901F11800097850F82120521C40F8E9
:101FF0002120002010BD0000000000242DE9F04148
:10200000054601F071FB0A4F4FF40066044607E0F5
:1020100001F06AFB001BA84202D90020BDE8F08154
:102020003146384601F050FB0028F1D10120F5E798
:1020300000080258F0B585B0064600200C460A2E6E
:10204000019002900390049002D9002005B0F0BDE9
:102050003007400EFFF79EFB0746FFF7AFFB18B1B6
:102060000025062E08D00BE0062E03D1610201D513
:10207000012505E0002503E0610201D4012600E00E
:1020800000268DF80470210E8DF80510220C8DF8B5
:102090000620230A8DF8073001A98DF8084030B1D9
:1020A000481CFFF76DFB06248DF8090000E00524AD
:1020B000FFF756FB4FF47A7000900E4803AA01A96F
:1020C000234603F0B3F90446FFF73AFB2CB1FFF7C0
:1020D0000BFF0A20FFF712FCB7E70DB1012001E06A
:1020E00016B10020FFF730FF0A20FFF707FC0120A0
:1020F000ACE700002C020024014800F059BC0000AD
:1021000020070024014800F053BC00009807002479
:10211000294A016891423AD0274A1832914236D072
:10212000254A3032914232D0234A483291422ED051
:10213000214A603291422AD01F4A7832914226D0F9
:102140001D4A9032914222D01B4AA83291421ED0A1
:102150001A4A91421BD0194A1832914217D0174A95
:102160003032914213D0154A483291420FD0134A6F
:10217000603291420BD0114A7832914207D00F4A17
:102180009032914203D00D4AA832914211D1CAB285
:102190001823103AB2FBF3F26FF30901032A02F09D
:1021A0000703074AD25CC26500D9091D816508464C
:1021B000704721F0FF01F9E71000024010040240CF
:1021C000C684000830B5224A012301689142CAB290
:1021D0001BD01F4C1434A14217D01D4C2834A142EF
:1021E00013D01B4C3C34A1420FD0194C5034A142A7
:1021F0000BD0174C6434A14207D0154C7834A1425F
:1022000003D0134C8C34A1420CD11421114C083A48
:10221000B2FBF1F10F4A803201F01F0504EB81019E
:10222000AB4010E00C4D1824103A0D44B2FBF4F111
:10223000A82D00D80831094A01F01F0402EB8101E2
:10224000064AA3408032603080E80E0030BD0000B6
:102250000854025800580258F0FBFDBF0008024025
:1022600010B50279531E072B2DD8174C0168A142D7
:102270001BD0154C1434A14217D0134C2834A14262
:1022800013D0114C3C34A1420FD00F4C5034A1421A
:102290000BD00D4C6434A14207D00B4C7834A142D2
:1022A00003D0094C8C34A14203D10849074C443176
:1022B00002E00749064C443104EB8202C0E91B21CD
:1022C00001219940416710BD08540258FC5802583A
:1022D000FC08024010B583694FF0C074826A014661
:1022E000002053B1B3F5005F15D072B1012A0CD0B4
:1022F000022A0AD0032A09D104E01AB1012A06D021
:10230000022A03D1C96AC90100D5012010BDC96ADA
:10231000A142FAD010BD002AF7D0012AF2D0022A39
:10232000F3D0032AF3D010BD7047102001F0A9B8F4
:1023300072B6FEE7054805490839026842F0020214
:10234000026008688004FCD5704700000C48025801
:1023500010B528210446FEF701FA9FED040A00207B
:10236000208584ED0B0A84F8300010BD00000000C9
:10237000018DD0ED0B0A00EB810191ED001A70EE9A
:10238000C10AC0ED0B0A81ED000AD0ED0B0A70EE18
:10239000800AC0ED0B0A018D491C89B201850A290A
:1023A00005D300220285012180F8301008E090F862
:1023B000300028B921B100EE101AB8EE401A01E041
:1023C000B2EE041A80EE810A704700002DE9F84F42
:1023D000044601F089F900903CB194F835000228D8
:1023E00006D0802161650020E4E00120BDE8F88F7F
:1023F000C74DC74EC649183520683036DFF81483FC
:10240000DFF814938842DFF814A3DFF814B32ED05A
:10241000A8422CD0B0422AD0404528D0484526D0EA
:10242000504524D0584522D0BD4A183290421ED083
:10243000BC4A90421BD0BB4A1832904217D0B94ACE
:102440003032904213D0B74A483290420FD0B54A4A
:10245000603290420BD0B34A7832904207D0B14AF2
:102460009032904203D0AF4AA832904209D102681C
:1024700022F01E0202602068426922F0800242615E
:1024800003E0026822F00E02026027688F4238469D
:102490004DD0A8424BD0B04249D0404547D04845E6
:1024A00045D0504543D0584541D09D4A18329042BE
:1024B0003DD09C4A90423AD09A4A1832904236D047
:1024C000984A3032904232D0964A483290422ED0CA
:1024D000944A603290422AD0924A7832904226D072
:1024E000904A9032904222D08E4AA83290421ED01A
:1024F0008D4A90421BD08C4A1432904217D08A4A9F
:102500002832904213D0884A3C3290420FD0864AFB
:10251000503290420BD0844A6432904207D0824AB3
:102520007832904203D0804A8C32974204D1206E98
:10253000026822F48072026075492068884228D0BF
:10254000A84226D0B04224D0404522D0484520D0D1
:1025500050451ED058451CD071491831884218D0BA
:102560007049884215D06F491831884211D06D49A1
:10257000303188420DD06B494831884209D06949D1
:102580006031884205D067497831884201D0654979
:102590009031016821F0010101600EE001F0A4F822
:1025A0000099401A052808D92022626503210020DD
:1025B00084F8351084F8340017E73868C007EDD187
:1025C000534A0121206890422ED0A8422CD0B0421C
:1025D0002AD0404528D0484526D0504524D05845DB
:1025E00022D04F4B183398421ED04E4B98421BD0EE
:1025F0004C4B1833984217D04A4B3033984213D083
:10260000484B483398420FD0464B603398420BD02A
:10261000444B7833984207D0424B9033984203D0D2
:10262000404BA833984208D194F85C703F23A06DCA
:1026300007F01F07BB40836007E094F85C30A06D93
:1026400003F01F0301FA03F34360206890424DD06A
:10265000A8424BD0B04249D0404547D0484545D02C
:10266000504543D0584541D02D4A183290423DD074
:102670002C4A90423AD02B4A1832904236D0294AFE
:102680003032904232D0274A483290422ED0254AEA
:10269000603290422AD0234A7832904226D0214A92
:1026A0009032904222D01F4AA83290421ED01E4A39
:1026B00090421BD01C4A1432904217D01A4A28323A
:1026C000904213D0184A3C3290420FD0164A5032F2
:1026D00090420BD0144A6432904207D0124A7832AA
:1026E000904203D0104A8C3290420BD1D4E91902A7
:1026F0004260E06E30B1026822F480720260D4E978
:102700001C024260002084F8351084F834006DE625
:102710001000024058000240700002408800024051
:10272000A000024010040240085402582DE9F05F56
:1027300028B190F83510022904D08021416501208C
:10274000BDE8F09F904C904B0168183C18338E4ABE
:10275000DFF83C92A1428D4CDFF838E28E4FDFF873
:102760003CB2DFF83CA28F4D8F4E31D091422FD03A
:1027700099422DD0A1422BD0494529D0714527D06F
:10278000B94225D0DFF810C20CF1180C61451FD0FA
:10279000DFF808C2ACF1600C614519D0DFF8FCC16C
:1027A000ACF1480C614513D0DFF8F0C1ACF1300C4E
:1027B00061450DD0DFF8E4C1ACF1180C614507D0DC
:1027C000594505D0514503D0A94201D0B1422CD181
:1027D000DFF8B4C14FF0040880F83580ACF1180C74
:1027E00061451DD091421BD0994219D0A14217D00A
:1027F000494515D0714513D0B94211D066481830FB
:1028000081420DD065486038814209D0634848381C
:10281000814205D061483038814201D05F48183884
:10282000086820F001000860ABE0D1F800C02CF08F
:102830000E08DFF854C1C1F80080ACF1180C016833
:10284000614527D0914225D0994223D0A14221D081
:1028500049451FD071451DD0B9421BD0DFF838C1A2
:102860000CF1180C614515D0DFF830C1ACF1600CEB
:1028700061450FD0DFF824C1ACF1480C614509D0A7
:10288000DFF818C1ACF1300C614503D0DFF80CC1A2
:10289000ACF1180CD1F800C02CF0010CC1F800C04C
:1028A000DFF8E4804FF0010C0168A8F118084145F9
:1028B00046D0914244D0994242D0A14240D04945AD
:1028C0003ED071453CD0B9423AD0334A1832914299
:1028D00036D0324A603A914232D0304A483A914238
:1028E0002ED02E4A303A91422AD02C4A183A9142A0
:1028F00026D0594524D0514522D0A94220D0B142FA
:102900001ED02A4A91421BD0284A1432914217D035
:10291000264A2832914213D0244A3C3291420FD0A9
:10292000224A503291420BD0204A6432914207D061
:102930001E4A7832914203D01C4A8C32914218D1FF
:10294000016E0A6822F480720A6090F85C20816D42
:1029500002F01F020CFA02F24A60D0E919124A6032
:10296000C16E31B10A6822F480720A60D0E91C128B
:102970004A600022016D80F835C080F8342001B132
:1029800088470020DCE60000280002405800024092
:102990007000024088000240A00002407004024023
:1029A00088040240A0040240B804024008540258BF
:1029B0002DE9FC5F0446F74E0020DFF8D883009035
:1029C0004FF41652F44808F11808A56DDFF8C493C7
:1029D000DFF8C0A3016809F1300920680AF1480A4C
:1029E000B1FBF2F1B04201912F68D5F800C0DFF8D9
:1029F000ACB335D04146884232D0484530D05045FE
:102A00002ED058452CD0E5491831884228D0E349CA
:102A10003031884224D0E1494831884220D0E04911
:102A200088421DD0DE491831884219D0DC49303146
:102A3000884215D0DA494831884211D0DFF860E386
:102A40000EF1600E70450BD0D54A7832904207D017
:102A5000D34B9033984203D0D149A83188427DD1DD
:102A600094F85C20082102F01F0201FA02F23A42B7
:102A70004AD0B04232D0404530D048452ED05045A3
:102A80002CD058452AD0C54A1832904226D0C34A85
:102A90003032904222D0C14A483290421ED0C04AC1
:102AA00090421BD0BE4A1832904217D0BC4A3032F6
:102AB000904213D0BA4A483290420FD0B84A60329E
:102AC00090420BD0B64A7832904207D0B44A903246
:102AD000904203D0B24AA832904203D1026802F079
:102AE000040202E0026802F008026AB1026822F001
:102AF0000402026094F85C0000F01F008140A960AD
:102B0000606D40F00100606594F85C00012100F008
:102B10001F008140394240D02068B04234D0404547
:102B200032D0484530D050452ED058452CD09B4A05
:102B30001832904228D0994A3032904224D0974A95
:102B40004832904220D0964A90421DD0944A183282
:102B5000904219D0924A3032904200E0AFE113D057
:102B60008F4A483290420FD08D4A603290420BD04B
:102B70008B4A7832904207D0894A9032904203D0F3
:102B8000874AA83290427DD1406910F0800F04D06E
:102B9000A960606D40F00200606594F85C0004215B
:102BA00000F01F00814039423ED02068B04232D050
:102BB000404530D048452ED050452CD058452AD0DD
:102BC000764A1832904226D0744A3032904222D04F
:102BD000724A483290421ED0714A90421BD0704ACD
:102BE0001832904217D06E4A3032904213D06C4A5D
:102BF000483290420FD06A4A603290420BD0684A05
:102C00007832904207D0664A9032904203D0644AAC
:102C1000A83290424ED1006810F0020F04D0A96093
:102C2000606D40F00400606594F85C00102100F0D5
:102C30001F008140394258D02068B04234D040450E
:102C400032D0484530D050452ED058452CD0534A2C
:102C50001832904228D0514A3032904224D04F4A04
:102C60004832904220D04E4A90421DD04C4A1832F1
:102C7000904219D04A4A3032904215D0484A4832E0
:102C8000904200E014E00FD0454A603290420BD0F1
:102C9000434A7832904207D0414A9032904203D062
:102CA0003F4AA832904207D1006800F0080006E0D1
:102CB000006872E70068B7E7006800F00400A0B1A0
:102CC000A96020680168490304D50068000308D59D
:102CD000A16C07E00168C90503D4016821F008016F
:102CE0000160216C09B12046884794F85C002021DE
:102CF00000F01F008140394279D02068B04232D0C4
:102D0000404530D048452ED050452CD058452AD08B
:102D1000224A1832904226D0204A3032904222D0A5
:102D20001E4A483290421ED01D4A90421BD01C4A77
:102D30001832904217D01A4A3032904213D0184AB3
:102D4000483290420FD0164A603290420BD0144A5B
:102D50007832904207D0124A9032904203D0104A03
:102D6000A832904203D1006800F0100002E0006831
:102D700000F00200B0B3A96094F835000428206880
:102D800001680FD049037ED5006800032BD4616C25
:102D90002AE00000100002405800002470000240A9
:102DA0001004024021F0160101602068416921F001
:102DB00080014161206C08B9A06C20B120680168D5
:102DC00021F00801016094F85C303F21012003F0FC
:102DD0001F0300229940A96084F8350084F834204C
:102DE000216D65E003E0E16B09B120468847606D25
:102DF00000287DD0606DC00759D02068042184F878
:102E00003510B0422BD0404529D0484527D05045F9
:102E100025D0584523D09D49884220D09B49183160
:102E200088421CD099493031884218D0984988424C
:102E300015D097491831884211D0954930318842D0
:102E40000DD093494831884209D091496031884278
:102E500005D08F497831884201D08D499031016881
:102E600021F00101016020680099019A491C00913C
:102E7000914202D80168C907F6D10068C00710D096
:102E800003200FE0FFE70168C905ACD40368012106
:102E9000002223F01003036084F8351084F83420F6
:102EA000A1E7012084F83500002084F83400E16CAB
:102EB00000291DD002B02046BDE8F05F08477549E3
:102EC00088421DD073491431884219D07149283184
:102ED000884215D06F493C31884211D06D4950313C
:102EE00088420DD06B496431884209D0694900E0BD
:102EF00084E07831884203D066498C3188427DD1A4
:102F000094F85C800427016808F01F0807FA08F7A6
:102F100017EA0C0F009746D04F0744D500980F04CE
:102F2000686003D5C8033CD4A16CC1E7880638D4D7
:102F30002068B0422DD055496039884229D0484593
:102F400027D0504525D0584523D05049884220D01D
:102F50004E49183188421CD04C493031884218D033
:102F60004B49884215D04A491831884211D0484906
:102F7000303188420DD046494831884209D07045E9
:102F800007D0904205D0984203D04149A8318842E9
:102F900003D1016821F0080102E0016821F0040179
:102FA0000160216C84E7022707FA08F717EA0C0F83
:102FB00000974ED08F074CD500980F04686003D55A
:102FC000C80344D4616C73E7880640D42068B042DB
:102FD0002FD02E49603988422BD0484529D0504502
:102FE00027D0584525D02949884222D02749183171
:102FF00088421ED025493031884200E044E018D094
:103000002349884215D022491831884211D02049DD
:10301000303188420DD01E494831884209D0704570
:1030200007D0904205D0984203D01949A831884270
:1030300003D1016821F0140102E0016821F00A01C6
:103040000160012184F83510002084F83400E16B20
:103050002EE7082202FA08F212EA0C0F14D0090730
:1030600012D5016821F00E01016094F85C10012076
:10307000002201F01F0100FA01F16960606584F827
:10308000350084F8342012E7BDE8FC9F8800024038
:1030900010040240085402582DE9F05F044600F085
:1030A00023FB002C07467DD0E34E022120684FF021
:1030B0000308DFF888934FF00005DFF884A3B042DF
:1030C000DFF880B334D0DC4A1832904230D0484523
:1030D0002ED050452CD058452AD0DA4A183290428A
:1030E00026D0D84A3032904222D0D64A4832904236
:1030F0001ED0D54A90421BD0D34A1832904217D0E6
:10310000D14A3032904213D0CF4A483290420FD049
:10311000CD4A603290420BD0CB4A7832904207D0F1
:10312000C94A9032904203D0C74AA83290427DD11A
:1031300084F83510B04284F834502ED0BE4918318E
:1031400088422AD0484528D0504526D0584524D01A
:10315000BC491831884220D0BA49303188421CD04D
:10316000B8494831884218D0B749884215D0B64985
:103170001831884211D0B449303188420DD0B2495B
:103180004831884209D0B0496031884205D0AE4903
:103190007831884201D0AC499031016821F00101B9
:1031A000016008E027E100BF00F09EFAC01B05287F
:1031B00001D920211CE120680068C007F4D104F186
:1031C00008002168D4E9053C8E4685C8096810438B
:1031D000D4E907281F43636A38439C4F40EA0C0038
:1031E0001043394040EA0800042B40EA010003D1B3
:1031F000D4E90B1211430843954909686FF30F0195
:10320000B1F1005F0FD36168A1F12902052A08D945
:10321000163A032A05D9083A012A02D94F39032957
:1032200001D840F48010CEF8000000E023E02068D0
:10323000676A4069042F20F0070047EA00070DD1B4
:10324000D4E90A01074349B12046FFF743F828B102
:1032500040206065012184F83510CCE0206847618A
:103260002046FEF755FF94F85C203F2102F01F0234
:103270009140816054E0774A90421BD0754B1433E3
:10328000984217D0734B2833984213D0714B3C337C
:1032900098420FD06F4B503398420BD06D4B643334
:1032A000984207D06B4B7833984203D0694B8C33EC
:1032B00098427DD184F8351084F83450664B01680B
:1032C000A26801EA030E402A73D0802A72D000223D
:1032D000D4E90378D4E9053142EAD70242EAD808B2
:1032E0005C4AD4E9077C48EAD30848EAD10141EABC
:1032F000D701524241EA1C11142341EA0E01016038
:1033000020681044B0FBF3F08000E0652046FEF733
:10331000FFFE94F85C20012102F01F029140416001
:103320002068B04257D044491831884253D04845AC
:1033300051D050454FD058454DD042491831884260
:1033400049D040493031884245D03E4948318842D1
:1033500041D03D4988423ED03B49183188423AD05D
:1033600039493031884236D037494831884232D0E5
:103370003549603188422ED03349783188422AD08D
:1033800031499031884226D02F49A831884222D035
:10339000304988421FD02F49143188421BD02D4913
:1033A0002831884217D02B493C31884213D002E0A3
:1033B0001DE017E018E02749503188420BD025491D
:1033C0006431884207D023497831884203D02149AB
:1033D0008C31884229D12046FEF7F4FEA06880286F
:1033E0000CD00CE0102273E74FF4804270E74021CC
:1033F000616584F835800120BDE8F09F6560216E2D
:1034000020790860D4E9190141606068401E0728EE
:1034100008D82046FEF724FFE06E0560D4E91C01C1
:10342000416002E0E566256765670120656584F80F
:1034300035000020E0E7000010000240400002409C
:103440005800024070000240100402403F8010FE0D
:103450000010005C085402580F00FEFF70B50446CF
:1034600000F042F90546601C02D00448007804448C
:1034700000F03AF9401BA042FAD370BD4C00002482
:1034800070474FF0B04110B5D1F88820024203D008
:10349000C1F88800FFF7F4FF10BD00002DE9F84FD8
:1034A00003247D4D00234FF001094FF0B04B4FF046
:1034B0000F0AE9E009FA03F73A4076D00E7906F0F0
:1034C0000306012E01D0022E18D1D0F808C04FEA11
:1034D000430ECE6804FA0EF82CEA080C06FA0EF633
:1034E00046EA0C068660D0F804C00E792CEA070C78
:1034F000C6F300169E4046EA0C0646600E79F64377
:10350000B6070BD0C6684FEA43088F6804FA08FC78
:1035100026EA0C0607FA08F73743C7600E7906F06B
:103520000306022E12D1DE080F694FEA437C00EB3E
:103530008606B646366A4FEADC6C0AFA0CF807FAD9
:103540000CF726EA08063743CEF820700F79066894
:103550004FEA430807F0030704FA08FC07FA08F7E4
:1035600026EA0C06374307604E6816F4403F1CD02D
:103570004A4E376847F00207376036689F0706F003
:103580000206009623F0030606F1B046B6463F0F4A
:10359000D6F80864DFF808810AFA07FC404526EAF5
:1035A0000C0603D14FF0000C41E06CE0DFF8F4C0F2
:1035B000604502D14FF0010C39E0DFF8ECC0604506
:1035C00002D14FF0020C32E0DFF8E0C0604502D1DA
:1035D0004FF0030C2BE0DFF8D8C0604502D14FF06C
:1035E000040C24E0DFF8CCC0604502D14FF0050C9C
:1035F0001DE0DFF8C4C0604502D14FF0060C16E0B4
:10360000DFF8B8C0604502D14FF0070C0FE0DFF8DB
:10361000B0C0604502D14FF0080C08E0DFF8A4C04C
:10362000604502D14FF0090C01E04FF00A0C0CFA92
:1036300007FC4CEA060CCEF808C44F68DBF80060C3
:10364000FF0226EA020600D516435F46CBF800606B
:10365000D1F804C0DBF804605FEA8C2C26EA02068D
:1036600000D516437E606E684F6826EA0206BF03E7
:1036700000D516436E602E684F6826EA0206FF03E7
:1036800000D516432E605B1C0A6832FA03F67FF4FD
:1036900011AFBDE8F88F000080000058F4440258D4
:1036A000000002580004025800080258000C02589A
:1036B000001002580014025800180258001C02584A
:1036C00000200258002402580069084000D0012060
:1036D00070470AB1816170470904FBE7014800683F
:1036E000000C70470010005C0148806870470000C3
:1036F0004C00002430B590F84120202A24D190F8C5
:103700004020012A20D0012380F84030242280F874
:103710004120202300240268156825F0010515606A
:103720000268156825F480551560026815680D4318
:10373000156001680A6842F001020A6080F84130B1
:1037400080F84040002030BD022030BD30B590F8F8
:103750004120202A22D190F84020012A1ED00123A6
:1037600080F84030242280F841202024002502687F
:10377000136823F0010313600268136823F4706375
:1037800043EA0121116001680A6842F001020A60FF
:1037900080F8414080F84050002030BD022030BD0C
:1037A00070B5040004D094F84100002510B106E083
:1037B000012070BD204684F8405000F051F82420CC
:1037C00084F841002068016821F001010160D4E91A
:1037D000001020F0706008612068816821F40041C9
:1037E0008160E06821680128A06830D040F404407E
:1037F0008860E0680228206841682BD021F40061CD
:10380000416020682021154A4368134343602068C3
:10381000C26822F40042C26054F8106B0DCC104311
:1038200040EA0320F06054F81C3CD4E90002104345
:10383000186054F81C0D026842F0010202606564D1
:1038400084F84110256384F84250002070BD40F494
:103850000040CDE741F40061D2E7000000800002A3
:1038600010B5B6B00446142130A8FCF777FFC0218C
:103870006846FCF773FF1A49206888422DD1002062
:10388000219008210446CDE90010684600F098FA1E
:1038900008B1FEF74DFD1348016841F002010160D7
:1038A00000680DF1C00C122100F0020035904FF4B9
:1038B000406004238CE8130002220B48CDE9332337
:1038C00030A9FFF7EBFD07480830016841F480019B
:1038D0000160006800F48000359036B010BD000033
:1038E00000580040E0440258000402580248816831
:1038F00002781144816070474C000024032010B509
:1039000000F0CCF801F0D4F80F4A1049146813689D
:10391000C4F3032203F00F038A5CC95C02F01F02A8
:1039200001F01F01D0400A4A20FA01F11160094953
:1039300008600F2000F010F808B1012010BD00F061
:1039400071F8002010BD000018440258F6840008E9
:103950005C0000245800002410B5102804468AB0EA
:103960002CD200220146372000F078F8372000F0F2
:1039700067F8174804601748016841F020010160AA
:10398000006809A900F020000890684601F01CF8C2
:103990000598B0B101F068F840000F4900220F4CC3
:1039A000B0FBF1F10E4840F2E7330460C0E90332A6
:1039B000491EC0E9011201F08BFF28B101200AB0B5
:1039C00010BD01F051F8E8E7054802F039F8F6E7D4
:1039D00050000024E844025840420F000014004008
:1039E00010080024BFF35F8F044800210368034AD6
:1039F00023F48033036070321160704724ED00E0DF
:103A0000074A40F00100064970321060086840F42F
:103A100080300860BFF34F8FBFF36F8F7047000097
:103A200024ED00E0054808B5016841F0020101609D
:103A3000006800F00200009008BD0000F444025845
:103A4000002809DB410900F01F028900012001F173
:103A5000E0219040C1F80001704700000E4BF0B427
:103A60001B680D46C3F30223C3F10706042E00D9D9
:103A70000426191D072901D2002300E0DB1E0124C2
:103A800004FA06F19C40491E2940641E99401440E6
:103A90002143F0BC04F0E1BB0CED00E0064900F06E
:103AA000070210B54FF6FF040868044B204040EAB7
:103AB00002201843086010BD0CED00E00000FA057C
:103AC000134970B50A68D243520705D5096801F059
:103AD0000701814213D118E00A6822F0070202436D
:103AE0000A60FFF701FE0A4D4FF47A760446083D5E
:103AF00007E000BFFFF7F8FD001BB04201D901202D
:103B000070BD2868C0438004F4D4002070BD00005C
:103B10000C48025810B500F085FF05490968054AB0
:103B2000C1F30211515C01F01F01C84010BD00003B
:103B300020440258F6840008494930B5484C0B1D12
:103B40000A68143409681D68246802F00303C5F389
:103B50000012C1F30531C4F3CC04002914FB02F2B6
:103B600000EE102AF8EE400A75D03F4A9FED3D1A4C
:103B7000B7EE000A6BB1DFED3D1A012B01D0022B2D
:103B800064D002EE101A1168F8EE422A81EEA22AE1
:103B900021E0334C283C23689B0612D5344B246823
:103BA00001EE901A1168C4F3C104F8EE612AE340F3
:103BB00001EE903AC1F30801F8EE611A81EEA22AF3
:103BC0000BE001EE901ADFED2B2A00BFF8EE611A30
:103BD000116882EEA12AC1F3080101EE901A116862
:103BE000F8EE611A40EE811A71EE800A62EE200A48
:103BF000C1F3462101EE101AB8EE411A31EE001A57
:103C0000C0EE811ABCEEE11A80ED001A1168C1F312
:103C1000064101EE101AB8EE411A31EE001AC0EE5C
:103C2000811ABCEEE11A80ED011A1168C1F3066138
:103C300001EE101AB8EE411A31EE000A80EE801A39
:103C4000BCEEC10A80ED020A30BD04E001EE901A1C
:103C5000DFED092ABAE70021016041608160F3E7E6
:103C60002844025800000039384402580024744A9D
:103C70000090D0030024744C0024F44A494930B524
:103C8000484C0B1D0A681C3409681D68246802F042
:103C90000303C5F30022C1F30551C4F3CC0400298A
:103CA00014FB02F200EE102AF8EE400A75D03F4AEB
:103CB0009FED3D1AB7EE000A6BB1DFED3D1A012B07
:103CC00001D0022B64D002EE101A1168F8EE422ADD
:103CD00081EEA22A21E0334C283C23689B0612D5B2
:103CE000344B246801EE901A1168C4F3C104F8EE55
:103CF000612AE34001EE903AC1F30801F8EE611A3F
:103D000081EEA22A0BE001EE901ADFED2B2A00BF14
:103D1000F8EE611A116882EEA12AC1F3080101EEE2
:103D2000901A1168F8EE611A40EE811A71EE800A5D
:103D300062EE200AC1F3462101EE101AB8EE411AD4
:103D400031EE001AC0EE811ABCEEE11A80ED001AC5
:103D50001168C1F3064101EE101AB8EE411A31EEB6
:103D6000001AC0EE811ABCEEE11A80ED011A11684A
:103D7000C1F3066101EE101AB8EE411A31EE000AE5
:103D800080EE801ABCEEC10A80ED020A30BD04E06C
:103D900001EE901ADFED092ABAE7002101604160C7
:103DA0008160F3E72844025800000039404402587B
:103DB0000024744A0090D0030024744C0024F44A78
:103DC0002DE9FE4F0546DFF8E48350F8081B002478
:103DD000F64FC943019005F12800264608F1240852
:103DE000009008011DD4A86E50B1B0F5801F0CD012
:103DF000B0F5001F0ED0B0F5401F1ED001240FE01B
:103E0000386840F40030386017E00198022103F070
:103E1000F3F903E00098022103F07EFA04000CD0CD
:103E200026462888C043C00523D4A86D05281ED285
:103E3000DFE800F00C11161B1B00AA6ED8F800106A
:103E400021F440111143C8F80010EAE7386840F443
:103E50000030386009E00198002103F0CDF903E05B
:103E60000098002103F058FA044674B100E00124E0
:103E700026462888C043800528D4E86D80281ED0B7
:103E80000CDC90B140280ED114E0AA6DD8F80010D7
:103E900021F007011143C8F80010EAE7C02813D049
:103EA000B0F5807F10D001240FE0386840F4003076
:103EB000386009E00198002103F09EF903E00098C2
:103EC000002103F029FA04469CB126462888DFF831
:103ED000DC92C04309F12C0940052CD4D5F8A80088
:103EE000B0F5800F20D00DDCA0B1B0F5001F0FD1D0
:103EF00015E0EA6DD8F8001021F4E0711143C8F81C
:103F00000010E3E7B0F5C00F13D0B0F5000F10D0EC
:103F100001240FE0386840F40030386009E001986F
:103F2000002103F069F903E00098002103F0F4F99F
:103F300004467CB126462888C04300052DD4D5F818
:103F4000AC00B0F1007F21D00EDCA8B1B0F1807FD1
:103F500010D116E0D5F8A820D9F8001021F460019E
:103F60001143C9F80010E6E7B0F1407F13D0B0F17B
:103F7000806F10D001240FE0386840F400303860C2
:103F800009E00198002103F037F903E000980021CF
:103F900003F0C2F9044674B126462868C043800184
:103FA0001FD4E86CD8B110280FD0202812D03028A8
:103FB00015D0012414E0D5F8AC20D9F8001021F078
:103FC000E0611143C9F80010E7E7386840F40030B9
:103FD000386004E00198022103F00EF9044674B140
:103FE00026462888C043C0042BD4286EB0F5005F55
:103FF00020D00DDCA0B1B0F5805F0FD115E06B488B
:10400000EA6C2030016821F0300111430160E8E7DB
:10401000B0F5405F13D0B0F5804F10D001240FE011
:10402000386840F40030386009E00198002103F05E
:10403000E3F803E00098002103F06EF904468CB128
:1040400026462888C043800429D4686EB0F5403FD6
:1040500023D010DC08B3B0F5803F14D0B0F5003F9A
:104060000FD115E02A6ED8F8001021F4E041114379
:10407000C8F80010E5E7B0F5802F0ED0B0F5A02FFE
:104080000BD001240AE00198012103F0B5F803E008
:104090000098012103F040F9044694B1264628888F
:1040A000C04340042AD4D5F8B000B0F1405F23D01B
:1040B00010DC08B3B0F1805F14D0B0F1005F0FD115
:1040C00015E06A6ED8F8001021F4E0211143C8F819
:1040D0000010E4E7B0F1804F0ED0B0F1A04F0BD04C
:1040E00001240AE00198012103F086F803E000981A
:1040F000012103F011F9044674B126462888C04313
:1041000000041FD4286FD8B1B0F1805F0ED0B0F199
:10411000005F10D0012414E0D5F8B020D9F80010C9
:1041200021F0E0411143C9F80010E7E7386840F496
:104130000030386004E00198012103F05DF8044686
:1041400074B126462868C043C0011ED4A86CD0B103
:1041500001280ED0022811D0032814D0012413E026
:104160002A6FD8F8001021F040511143C8F8001010
:10417000E8E7386840F40030386004E00198022134
:1041800003F03AF80446ACB126462868DFF81CB0C4
:10419000C043ABF11C0B400252D40548016841F406
:1041A00080710160FFF7A0FA824611E02C440258AA
:1041B00000480258FA48AA6C016821F00301114333
:1041C0000160E2E7FFF790FAA0EB0A00642835D817
:1041D000F4480068C005F5D58CBBDFF8C4A3B5F87A
:1041E000B4100AF1240ADAF8000001F4407100F476
:1041F0004070884211D0DAF80010DAF8002021F47B
:10420000407142F48032CAF80020DAF8002022F42B
:104210008032CAF80020CAF80010D5F8B400B0F512
:10422000807F1AD1FFF760FA029012E0FFF75CFA84
:104230000299411A41F2883081420AD90324264664
:104240002878DFF85CA3C0430AF1080AC00721D030
:104250003CE0DAF800008007E8D5D5F8B410C1F3E7
:104260000120032858460DD0016821F47C510160DB
:10427000B5F8B420DAF80010C2F30B021143CAF803
:104280000010DDE7C84A036802EA111223F47C51EA
:104290001143ECE7E86F182816D005DCA0B1082818
:1042A00008D0102804D10AE020280DD028280BD0EF
:1042B00001240AE00198012102F09EFF03E000982A
:1042C000012103F029F8044664B126462878C0434A
:1042D00080071ED4A86F062819D2DFE800F0160C5C
:1042E00011161616EA6FDAF8001021F038011143A2
:1042F000CAF80010EAE70198012102F07DFF03E00F
:104300000098012103F008F804467CB100E0012484
:1043100026462878C04340071FD4D5F894000628C5
:1043200019D2DFE800F0160C11161616AA6FDAF88B
:10433000001021F007011143CAF80010E9E70198C5
:10434000012102F059FF03E00098012102F0E4FF8F
:104350000446A4B100E0012426462878C043800624
:104360002BD4D5F89000B0F1405F24D011DC10B30D
:10437000B0F1805F15D0B0F1005F10D116E0D5F834
:104380009420D9F8001021F007011143C9F800105A
:10439000E3E7B0F1804F0ED0B0F1A04F0BD0012475
:1043A0000AE00198002102F027FF03E000980221B3
:1043B00002F0B2FF044694B126462878C043400676
:1043C0002BD4D5F89C00B0F5406F24D011DC10B38D
:1043D000B0F5806F15D0B0F5006F10D116E0D5F8AC
:1043E0009020DAF8001021F0E0411143CAF80010E3
:1043F000E3E7B0F5805F0ED0B0F5A05F0BD00124ED
:104400000AE00198002102F0F7FE03E00098022183
:1044100002F082FF044694B126462878C043000685
:104420002BD4D5F8A000B0F5C04F24D011DC10B3C8
:10443000B0F5005F15D0B0F5804F10D116E0D5F87B
:104440009C20D9F8001021F4E0511143C9F8001064
:10445000E3E7B0F5004F0ED0B0F5204F0BD00124AC
:104460000AE00198002102F0C7FE03E00098022153
:1044700002F052FF044654B126462878C043000794
:104480001ED4D5F88400B0F5805F0AD00FE0D5F8CF
:10449000A020D9F8001021F460411143C9F80010A0
:1044A000EBE70098022102F037FF00B10126D5F8B2
:1044B0008420DAF8001021F440511143CAF80010AA
:1044C0002878C043C00613D4D5F89800B0F5807F93
:1044D00005D10098022102F01FFF00B10126D5F896
:1044E0009820D9F8001021F440711143C9F8001048
:1044F0002868C043000316D4D5F8A40038B1B0F53D
:10450000803F09D0B0F5003F0BD001240AE00198AC
:10451000002102F071FE03E00098022102F0FCFE8F
:1045200004468CB126462868C043400322D4D5F8FF
:104530008800B0F5801F11D0B0F5001F13D0B0F582
:10454000401F15D0012414E0D5F8A420D9F800109C
:1045500021F440311143C9F80010E4E7386840F411
:104560000030386004E00098012102F0D5FE0446D6
:104570005CB126462868C043C00323D4286DA8B187
:10458000B0F5803F17D001241BE0D5F88820DAF879
:10459000001021F440111143CAF80010EAE70000AE
:1045A0004C44025800480258CFFFFF00386840F4DE
:1045B0000030386004E00198022102F01DFE04463C
:1045C000E4B126462868C043800005D40098022143
:1045D00002F0A2FE00B101262868C04380031BD46C
:1045E000D5F88000B0B1B0F5807F0FD0B0F5007F76
:1045F00010D0B0F5407F0DD001240CE05A482A6D50
:10460000016821F4803111430160DBE7386840F430
:1046100000303860ECB326462868C043C00207D497
:104620006A6FD8F8001021F000411143C8F800105B
:104630002868C043C00008D4D5F8B820DBF80010C3
:1046400021F480411143CBF800102868C043800258
:1046500007D4EA6ED8F8001021F080711143C8F831
:1046600000102868C04340000CD4DBF8001021F48F
:104670000041CBF80010DBF80010D5F8BC20114346
:10468000CBF800102868C04308D437486A6D016829
:1046900000E018E021F04051114301602868C04358
:1046A000000208D4D5F88C20DAF8001021F440017B
:1046B0001143CAF8001028790024C04300F001001B
:1046C00020430AD00FE0D5F88020DAF8001021F45A
:1046D00040711143CAF800109EE70198002102F0D2
:1046E0008BFD00B106462879C04300F0020020434C
:1046F00005D10198012102F07FFD00B1064628791D
:10470000C04300F00400204305D10198022102F0CB
:1047100073FD00B106462879C04300F0080020432D
:1047200005D10098002102F0F7FD00B10646287976
:10473000C04300F01000204305D10098012102F091
:10474000EBFD00B106462879C04300F02000044389
:1047500004D10098022102F0DFFD00B916B101205A
:10476000BDE8FE8F0020FBE74C4402582DE9F05FC6
:1047700004000F467ED0DFF83882D8F8000000F041
:104780000F00B8420CD2D8F8001021F00F013943C5
:10479000C8F80010D8F8000000F00F00B84269D146
:1047A0002078844D40070AD52069296801F07001FE
:1047B000884204D9296821F07001014329602078DA
:1047C0007C4E361D00070AD56069316801F0700122
:1047D000884204D9316821F07001014331602078AA
:1047E000C0060AD5A069316801F4E061884204D9A5
:1047F000316821F4E061014331602078DFF8B4B121
:1048000080060BF1080B0CD5E1695846DBF8002057
:1048100002F07002914204D9026822F070020A4349
:104820000260207880070AD5E068296801F00F014E
:10483000884204D9296821F00F01014329602078BA
:10484000C0073ED05B49A2682868183920F4706020
:10485000104328606068022818D0032819D009681E
:10486000012819D0490700294ADADFF848A1AAF13E
:10487000080A00E044E0DAF8002022F007020243D0
:10488000CAF80020FEF730FF814612E0096889036C
:10489000E9E709688901E6E7C905E4E7FEF724FFCF
:1048A000A0EB090141F28830814202D90320BDE822
:1048B000F09F6168DAF8000000F03800B0EBC10F3B
:1048C000ECD1207880070AD5E068296801F00F0153
:1048D000884204D2296821F00F0101432960D8F8E9
:1048E0000010404601F00F01B9420BD9016821F0D8
:1048F0000F0139430160006800F00F00B84201D099
:104900000120D4E7207840070AD52069296801F002
:104910007001884204D2296821F0700101432960A6
:10492000207800070AD56069316801F0700188427B
:1049300004D2316821F07001014331602078C00653
:104940000AD5A069316801F4E061884204D2316877
:1049500021F4E06101433160207880060CD5E169E3
:104960005846DBF8002002F07002914204D202683F
:1049700022F070020A43026000F09AF80E492A6899
:104980002B68C2F3032203F00F038A5CC95C02F0B8
:104990001F0201F01F01D040084A20FA01F1116006
:1049A0000749086007480068BDE8F05FFEF7D4BF1C
:1049B0000020005218440258F68400085C000024CD
:1049C000580000245000002470B5144C3F220260AF
:1049D000124A24680832131D114D04F00704446084
:1049E00016681C1D06F470668660166806F00F06D1
:1049F000C660126802F0700202611A6802F070026A
:104A000042611A6802F4E0628261226802F0700278
:104A1000C261286800F00F00086070BD10440258A1
:104A20000020005230B500F043F80B4A0B490C4B04
:104A300015681468C5F3032204F00F048A5C095D4D
:104A400002F01F0201F01F01D040064A20FA01F1D6
:104A500019601060084630BD18440258F6840008FA
:104A60005C0000245800002400B5FFF7DBFF054977
:104A70000968054AC1F30211515C01F01F01C840E9
:104A800000BD00001C440258F684000800B5FFF782
:104A9000C9FF05490968054AC1F30221515C01F0CB
:104AA0001F01C84000BD00001C440258F6840008E5
:104AB000454970B545480968434B103B11F0380231
:104AC00008D00111082A03D0102A0BD0182A0BD0C5
:104AD000084670BD19688906FBD51968C1F3C10184
:104AE000C84070BD3A4870BD3749374D18310C1D6C
:104AF00024350A68096826682D6802F0030406F068
:104B00000102C1F30511C5F3CC0515FB02F200EE5D
:104B1000102AB8EE400AE9B32F4ADFED2E0AB7EEAD
:104B2000001A6CB1DFED2D1A012C01D0022C43D0FC
:104B300002EE101A1068F8EE422A81EEA22A1EE058
:104B40001C68A40611D51B6801EE901A1168C3F306
:104B5000C103F8EE612AD84001EE900AC1F30800C3
:104B6000F8EE611A81EEA22A0BE001EE901ADFED59
:104B70001C2A00BFF8EE611A106882EEA12AC0F369
:104B8000080001EE900AF8EE611A40EE201A31EEAC
:104B9000810A00E015E022EE000A1068C0F346200A
:104BA000401C00EE900AF8EE600A80EE201ABCEE7F
:104BB000C10A10EE100A70BD01EE901ADFED092A4D
:104BC000D8E7002070BD0000104402580090D003C8
:104BD00000127A0000000039304402580024744A60
:104BE0000024744C0024F44A2DE9F05F04007DD0C9
:104BF000FF4F2078FE4D1837DFF8F493103DC007C3
:104C000048D0D9F80000396800F03800102815D0D5
:104C1000182803D101F0030002280FD06068B0F516
:104C2000803F12D010B1B0F5A02F18D0286820F422
:104C300080302860286820F4802009E028688003FC
:104C400028D560680028D2D024E0286840F480305D
:104C50002860606888B1FEF747FD064609E02868CD
:104C600040F480202860F0E7FEF73EFD801B6428BA
:104C70006FD828688003F7D50CE0FEF735FD0646AF
:104C800005E000BFFEF730FD801B6428F0D82868DF
:104C90008003F7D4207841F20308D54E0C3E8007FC
:104CA00069D5D9F80000396810F038000ED01828FE
:104CB00001D188070AD0E06890B3296821F0190172
:104CC00001432960FEF710FD824631E02868400765
:104CD00002D5E06800288AD0E168286820F0190031
:104CE00008432860FEF700FD824607E0DFE000BFD2
:104CF000FEF7FAFCA0EB0A000228B9D828684007A2
:104D0000F6D500BFFEF7EAFC40451BD820694028D5
:104D100012D0316821F47C3141EA003030602AE061
:104D200018E000BFFEF7E0FCA0EB0A0002289FD8C5
:104D300028684007F6D5E5E7306820F47C3040F479
:104D40000030EBE7207C316821F0FE4141EA006051
:104D5000E4E70DE1286820F001002860FEF7C4FCBC
:104D6000824605E0FEF7C0FCA0EB0A0002288DD8C1
:104D700028684007F6D42078C0065DD5D9F8000031
:104D8000DFF86CB2396800F03800ABF1040B08288A
:104D900010D0182803D101F0030001280AD0E069DF
:104DA0000028286838D040F080002860FEF79CFC7E
:104DB000824623E02868C00523D5E069802876D1A3
:104DC0001FE0206A202821D0316821F0F84141EA13
:104DD0008060306030E000BF94F82010DBF80020E5
:104DE00022F07C5242EA0161CBF8001024E000BFBF
:104DF000FEF77AFCA0EB0A00022898D82868C005C4
:104E0000F6D5FEF76BFC4045E6D8DAE7306820F0CF
:104E1000F84040F08040DCE720F080002860FEF79A
:104E200063FC064605E000BFFEF75EFC801B02281F
:104E30009DD82868C005F7D42078000729D56C488C
:104E40006169643000298046016811D041F0010198
:104E50000160FEF749FC064605E000BFFEF744FC92
:104E6000801B0228C9D8D8F800008007F6D510E0CA
:104E700021F001010160FEF737FC064605E000BFA6
:104E8000FEF732FC801B022872D8D8F80000800799
:104E9000F6D42078800623D5A0690028286810D091
:104EA00040F480502860FEF71FFC064605E036E11E
:104EB000FEF71AFC801B02285AD828688004F7D510
:104EC0000EE020F480502860FEF70EFC064604E059
:104ED000FEF70AFC801B02284AD828688004F7D411
:104EE000207840074FD5DFF80C81D8F8001041F446
:104EF0008071C8F80010FEF7F7FB064605E000BF1A
:104F0000FEF7F2FB801B642832D8D8F80000C005F9
:104F1000F6D5374EA068603601280AD008B10528BA
:104F200013D0306820F001003060306820F00400B9
:104F300002E0306840F001003060A06841F2883A39
:104F400090B1FEF7D1FB80460AE0306840F00400E3
:104F50003060EEE7FEF7C8FBA0EB0801514507D82B
:104F600030688007F6D50EE0FEF7BEFB804607E00E
:104F700084E000BFFEF7B8FBA0EB080151457DD8E7
:104F800030688007F6D4606AB0B3DFF86480D9F87F
:104F9000001008F120084FF6F87B08F10409C1F36E
:104FA000C2010329A8F1040A69D00228286820F068
:104FB0008070286003D0FEF797FB044684E0FEF77C
:104FC00093FB064605E000BFFEF78EFB801B022820
:104FD00077D828688001F7D4E26A40F2F331386864
:104FE00054F8283F884340EA02101843386004E030
:104FF0001044025800480258B5E0217B43462289FC
:105000004FF4FE0C208A4FF0FE474902267D521EC7
:10501000401EA1F50071C2F308088AB2761E0CEAA0
:10502000004042EA08020243504607EA06610A438A
:105030001A60DAF8002022F00102CAF80020D9F83C
:105040000020266A22EA0B0242EAC602C9F80020C2
:10505000DAF80010A26921F00C011143CAF800101F
:105060000168E26921F0020111430160016841F425
:1050700080310160016841F4003101E021E027E066
:105080000160016841F480210160016841F0010183
:105090000160286840F080702860FEF725FB044618
:1050A00005E000BFFEF720FB001B022809D8286896
:1050B0008001F7D557E000BFFEF716FB001B022862
:1050C00002D90320BDE8F09F28688001F4D44AE0AB
:1050D00039680128D8F8000021D0A26A01F0030342
:1050E00093421CD1E26AC1F305118A4217D1216BA8
:1050F000C0F30802491E8A4211D1616BC0F34622F7
:10510000491E91420BD1A16BC0F30642491E914248
:1051100005D1E16BC0F30660491E814201D0012038
:10512000D0E7A16C4E46D9F80000C0F3CC00814214
:1051300019D0DAF80000554620F00100CAF8000046
:10514000FEF7D2FA4FEA0007FEF7CEFAB842FBD0DC
:10515000A26C306820EA0B0040EAC2003060286888
:1051600040F0010028600020ACE700002DE9F04786
:10517000040029D0594A4FF000092068584B594D76
:105180009042C4F8289006D0984204D0A84202D099
:10519000E1680F2918D8E1684FF0010AE76B083180
:1051A000C9080AEB57167143904205D0984203D0C4
:1051B000A84201D0082907D8904203D0984201D0D4
:1051C000A84204D1102902D90120BDE8F08794F843
:1051D000810020B9204684F8809000F085F80220F4
:1051E00084F881002068016821F0010101602068D5
:1051F000A1698268B1F1806F02F4F81110D1626880
:10520000B2F5800F01D01AB10AE0A26B22B107E01B
:10521000A26BB2F1805F03D1026842F48052026057
:105220006068400209D5E068072806D32068236D2E
:10523000026822F480721A4303E02068026822F4B4
:1052400080720260A66AE069E26B25683043E36819
:105250000A4310431843A860D4E90D02D4E905813C
:10526000636A25691843D4F820C00A4326681043AE
:105270002843A56DD4E90172D4E9123140EA08004F
:1052800040EA0C0038430843104318432843F060B9
:10529000606868B92068816821F4C05141F40061F8
:1052A00081602068816821F4C06141F4806181607F
:1052B0002068016D21F0010101656068400206D59A
:1052C0002068626DC16821F000411143C160C4F8DB
:1052D000849084F881A0002077E70000003001402E
:1052E00000380040003C00402DE9F041B6B00446D3
:1052F000142130A8FBF732FAC0216846FBF72EFADA
:105300004449022720680024414D4FF00508884297
:1053100026D1811418940020CDE900106846FEF7CC
:105320004FFD08B1FDF704F839481030016841F429
:1053300080510160006800F480503590286840F08A
:10534000010028602868E021032200F00100CDE977
:105350003017CDE93242CDE934802F4830A928E01A
:105360002B4E2E490836884228D1811418940020EB
:10537000CDE900106846FEF723FD08B1FCF7D8FF21
:10538000306840F480403060306800F480403590F0
:10539000286840F00200286028684FF4604130918E
:1053A00030A900F00200CDE931743394CDE93480A6
:1053B0001B48FEF773F836B0BDE8F0811949884202
:1053C000F9D1811418940020CDE900106846FEF749
:1053D000F7FC08B1FCF7ACFF306840F400403060E7
:1053E000306800F400403590286840F004002860E0
:1053F0002868062100F0040035904FF4E05030900A
:10540000CDE93174CDE93341074830A9D1E7000037
:10541000E0440258003001400000025800380040CB
:1054200000040258003C0040000802582DE9FF4FDC
:105430000446C06B17461D4683B042092068521CC3
:1054400000F1200130301FFA82FBCDE90001FEF7A8
:105450004BF9824694F881002E46012835D10498F4
:1054600000287CD0002FFCD0002DFAD094F88000CA
:1054700001282AD04FF0010984F8809005224FF0CE
:10548000000884F88120C4F884806766A4F86A5014
:10549000A4F868500499E165A4F86250A4F860503B
:1054A000C4F87080C4F874802068C16821F4C021F9
:1054B000C160AD492068884205D0AC49884202D01D
:1054C000AB49884205D1102704E0022007B0BDE8AF
:1054D000F08F082741686FF30F012943416020686E
:1054E000016841F0010101606068B0F5800F04D1EE
:1054F0002068016841F400710160E0680F284CD910
:10550000BF0838E020684169890710D57EB1F119DC
:10551000A9420CD9E16D09680162E06D001DE065EA
:10552000B4F86200401EA4F86200B4F8626020681B
:10553000416905B34269D20703D15D4510D2090420
:105540000ED5006B616E0860606E001D6066B4F879
:105550006A00401EA4F86A00B4F86A500BE0F0E05C
:10556000FEF7C2F8A0EB0A011098814202D3401C5A
:1055700001D004E018B156EA0500C3D1C8E02046C6
:1055800001F05AFFD4F8840084F8808040F48070E1
:10559000C4F8840084F88190E2E007287BD97F0872
:1055A0004EE020684069800711D586B1F019A84205
:1055B0000DD9E06D018801980180E06D801CE065E7
:1055C000B4F86200401EA4F86200B4F8626021687A
:1055D00048692DB34969C9070AD000980088616EEF
:1055E0000880606E801C6066B4F86A00401E13E09C
:1055F0005D4516D2010414D500980088616E0880BC
:10560000606E801C6066009909880180606E801C55
:105610006066B4F86A00801EA4F86A00B4F86A50A4
:105620000EE0012D01D18004D7D4FEF75DF8A0EB88
:105630000A011098814202D3401C01D083E058B384
:1056400056EA0500ADD163E020684169890711D5AC
:1056500086B1F119A9420DD9E16D097880F82010C1
:10566000E06D401CE065B4F86200401EA4F86200E2
:10567000B4F86260206841696DB14269D2070CD00C
:1056800090F83000616E0870606E401C6066B4F87F
:105690006A00401E24E038E055E05D4525D20A044A
:1056A00023D590F83000616E0870606E401C606613
:1056B000216891F830100170606E401C60662168AE
:1056C00091F830100170606E401C6066216891F89E
:1056D00030100170606E401C6066B4F86A00001FF4
:1056E000A4F86A00B4F86A500FE0042D02D211F455
:1056F000C04FC5D1FDF7F8FFA0EB0A011098814219
:1057000002D3401C01D01EE0E8B156EA05009BD14F
:10571000109B002208212046CDF800A001F004FFD4
:1057200028B1D4F8840040F02000C4F8840020465A
:1057300001F082FE84F88190D4F8841084F880808F
:1057400081B10120C2E6204601F076FED4F8842023
:1057500084F8808042F48072C4F8842084F88190B8
:105760000320B3E60020B1E60030014000380040DD
:10577000003C0040024A136883430B4313607047A8
:105780000404005870477047704700002DE9F0434B
:1057900090F83C20012A42D0012280F83C2051F8A8
:1057A0000C4BDFF880804FF0000991E8680051E968
:1057B000022723F44073B1F80CC03B43CF6923F4B4
:1057C00080631343026823F40063234323F480536C
:1057D00043EA050323F4005343EA060323F480431A
:1057E00043EA07030C3923F47023424543EA0C4390
:1057F00002D00D4CA2420CD18D8C23F47006D1E95D
:10580000073446EA055121F08071194321F00073F5
:105810002343536480F83C900020BDE8F0830220CD
:10582000FBE700000000014000040140F0B590F8E3
:105830003C20012A3BD01F4E012480F83C4002222C
:1058400080F83D2002681C4D5368B242D2F808C06F
:1058500001D0AA4203D14F6823F470033B430F6881
:1058600023F070031F4357600268B24213D0B2F1B5
:10587000804F10D0114B9A420DD0114B9A420AD052
:10588000104B9A4207D0AA4205D00F4B9A4202D041
:105890000E4B9A4204D189682CF080031943916021
:1058A000002180F83D4080F83C100846F0BD022001
:1058B000F0BD000000000140000401400004004071
:1058C00000080040000C004000180040004001406B
:1058D00010B5040003D094F83D0010B107E001209A
:1058E00010BD002084F83C00204600F023F8022080
:1058F00084F83D002068211D01F024FF012084F878
:10590000480084F83E0084F83F0084F8400084F8A2
:10591000410084F8420084F8430084F8440084F88D
:10592000450084F8460084F8470084F83D000020D4
:1059300010BD000008B502683948B2F1804F0BD0A5
:1059400038498A4210D1016841F0100101600068B5
:1059500000F01000009008BD016841F001010160F5
:10596000006800F00100F5E72D492F4B08319A42FD
:105970000ED1086840F00200086008680022114655
:1059800000F0020000902E20FEF768F82E2043E081
:10599000264B9A4207D1016841F0800101600068FE
:1059A00000F08000D6E7224B9A4207D1016841F40B
:1059B00080710160006800F48070CBE71D4882426E
:1059C00007D1086840F480300860086800F480302F
:1059D000C0E7194882420ED1086840F400300860E0
:1059E00008680022052100F4003000907520FEF7C1
:1059F00035F8752010E011488242ACD1086840F4B7
:105A00008020086008680022052100F480200090B2
:105A10007620FEF723F87620BDE80840FEF710B8A0
:105A2000E84402580010004000040140001C0040FF
:105A30000020004000400140004401400048014077
:105A400090F83D10012901D001207047174A02212A
:105A500080F83D100168CB6843F00103CB6000681B
:105A6000904214D0B0F1804F11D0114988420ED02D
:105A7000104988420BD01049884208D00F4988420B
:105A800005D00F49884202D00E49884207D181686B
:105A90000D4A1140062906D0B1F5803F03D00168B8
:105AA00041F001010160002070470000000001404A
:105AB0000004004000080040000C004000040140C9
:105AC00000180040004001400700010070B5044686
:105AD00090F83C000025012814D03A4B012684F8A8
