:020000040800F2
:10000000C04C02247103000883A00008119200086C
:1000100081A000087D0B000855C800080000000002
:10002000000000000000000000000000B102000815
:1000300045440008000000000D03000859AF000807
:100040008F0300088F0300088F0300088F03000848
:100050008F0300088F0300088F0300088F03000838
:100060008F0300088F0300088F0300088F03000828
:100070008F0300088F0300088F0300088F03000818
:100080008F0300088F0300088F0300088F03000808
:100090008F0300088F0300088F0300088F030008F8
:1000A0008F0300088F0300088F0300088F030008E8
:1000B0008F0300088F0300088F0300088F030008D8
:1000C0008F0300088F0300088F0300088F030008C8
:1000D0008F0300088F03000825C200088F03000863
:1000E0008F0300088F030008000000008F03000842
:1000F0008F0300088F03000855B100088F03000824
:100100008F0300088F0300088F0300088F03000887
:100110008F0300088F0300083DB1000849B10008B3
:100120008F0300088F0300088F0300088F03000867
:100130008F0300088F0300088F0300088F03000857
:1001400000000000000000000000000000000000AF
:100150008F0300088F0300088F0300088F03000837
:100160008F0300088F0300088F0300088F03000827
:100170008F0300088F0300088F03000800000000B1
:100180008F0300088F0300088F0300088F03000807
:100190008F0300088F0300088F0300088F030008F7
:1001A0008F0300088F0300088F0300088F030008E7
:1001B0008F0300088F0300088F0300088F030008D7
:1001C0008F0300088F0300088F0300088F030008C7
:1001D0008F0300088F0300088F0300088F030008B7
:1001E0008F0300088F0300088F0300088F030008A7
:1001F0008F0300088F0300088F0300088F03000897
:100200008F0300088F0300088F0300088F03000886
:100210008F03000825B1000831B100088F030008E2
:100220008F0300088F0300088F0300080000000000
:100230008F0300088F030008000000008F030008F0
:100240008F0300088F0300088F0300088F03000846
:100250008F0300088F0300088F0300088F03000836
:100260008F0300088F0300088F0300088F03000826
:100270008F0300088F0300088F03000800000000B0
:100280008F0300088F0300088F03000800000000A0
:10029000000000008F030008DFF810D000F05EFBC4
:1002A0000048004709F00008AFF30080C04C02246A
:1002B0002C4B19680868B0E8F04F80F30988BFF349
:1002C0006F8F4FF0000080F311887047000000002E
:1002D00008480068006880F308884FF0000080F349
:1002E000148862B661B6BFF34F8FBFF36F8F00DF24
:1002F00000BF00BF08ED00E0DFF80C00016841F42A
:1003000070010160704700BF88ED00E0EFF30980E5
:10031000BFF36F8F134B1A681EF0100F08BF20ED4C
:10032000108A20E9F04F106009B44FF0500080F3BC
:100330001188BFF34F8FBFF36F8F12F0F7FF4FF0AD
:10034000000080F3118809BC19680868B0E8F04F14
:100350001EF0100F08BFB0EC108A80F30988BFF3BD
:100360006F8F7047C0020024EFF3058070470000D4
:10037000074880470748804707480047FEE7FEE7F1
:10038000FEE7FEE7FEE7FEE7FEE7FEE7FEE7FEE745
:10039000594D00082DB00008990200082DE9F05FC2
:1003A0000546002092469B468846064681464024E4
:1003B0001BE0284641464746224600F0AAF853462D
:1003C0005A46C01A914110D311461846224600F0F1
:1003D00091F82D1A67EB01084F46224601200021B3
:1003E00000F088F817EB00094E41201EA4F101042B
:1003F000DFDC484631462A464346BDE8F09F40EAE6
:1004000001039B0703D009E008C9121F08C0042A92
:10041000FAD203E011F8013B00F8013B521EF9D279
:100420007047D2B201E000F8012B491EFBD27047A1
:100430000022F6E710B513460A4604461946FFF7B0
:10044000F0FF204610BD30B505462A460B4612F88F
:10045000010B13F8014B08B1A042F8D01CB10028E1
:1004600002D06D1CF1E7284630BD10B5044604E00B
:100470000B7800F8013B03B1491C521EF8D220460C
:1004800010BD421C10F8011B0029FBD1801A7047D7
:1004900030B504460020034600E05B1C934203D2C3
:1004A000E05CCD5C401BF8D030BD30B50546002087
:1004B000034600E05B1C934205D2EC5CC85C201A4A
:1004C00001D1002CF6D130BD30B50B4601460020DD
:1004D0002022012409E021FA02F59D4205D303FA06
:1004E00002F5491B04FA02F52844151EA2F1010287
:1004F000F1DC30BD202A04DB203A00FA02F10020B2
:1005000070479140C2F1200320FA03F31943904051
:100510007047202A04DB203A21FA02F000217047BC
:1005200021FA02F3D040C2F120029140084319465B
:10053000704710B5141E73F1000408DA401C41F135
:10054000000192185B411A4301D120F0010010BD57
:100550002DE9F04D92469B4611B1B1FA81F202E0CD
:10056000B0FA80F220329046FFF7C4FF04460F46EF
:1005700040EA0A0041EA0B0153465A46084313D0A9
:10058000114653EA010019D0C8F140025046FFF766
:10059000C0FF05460E46504659464246FFF7AAFFA1
:1005A000084305D0012004E020463946BDE8F08D1F
:1005B0000020054346EAE0762C4337430A9863055A
:1005C000E40AA0EB08000022FD0A44EA47540A307E
:1005D00002D500200146E9E7010510196941DDE96E
:1005E000084500196941BDE8F04DA2E72DE9FE4F2D
:1005F000804681EA0300C00F0C46009021F00041C4
:1006000023F00045B8EB0200A94105D2404621463F
:1006100090461C460B46024623F00040104347D04C
:10062000270DC7F30A00C3F30A510290401A019044
:1006300040286BDAC3F3130040F4801B0098924605
:1006400020B10023D2EB030A63EB0B0B0198594650
:10065000C0F140025046FFF74DFF06460D4650469A
:100660005946019A00F08CF910EB08006141002412
:1006700087EA115284EAE7731A4340D0009A62B3C2
:10068000019A012A4FEA075215DC001B61EB0201B7
:100690004FF0004202EA0752CDE90042001C41F54A
:1006A000801132462B46FFF753FF03B0BDE8F08FB1
:1006B00040462146F9E7001B61EB0201001C41F5B1
:1006C000801300185B412018A2F5001747EB0301C7
:1006D00040EAD570B6196D4111E06D084FEA360653
:1006E00045EAC0754FEA0752001B61EB0201001C8E
:1006F00041F5801149084FEA300000195141324656
:100700002B4603B0BDE8F04FFFF713BF009801225E
:1007100040000023D0EB020263EBE0730098214617
:100720004FEAE074B8EB000061EB0401E9E783F005
:1007300000435BE781F0004158E72DE9FE4F81EA75
:10074000030404F0004421F0004100944FF0000B3A
:1007500023F0004350EA01045ED052EA03045BD068
:10076000C3F30A54C1F30A552C44A4F2F3340194A0
:10077000A0FB0254C1F3130141F48011C3F313032E
:1007800043F4801301FB024400FB034E840A970AE2
:1007900044EA815447EA8357A4FB076802958D0A0F
:1007A00005FB07854FEA932C04FB0C542705029D9B
:1007B0004FEA065847EA1637B5EB08056EEB070C0B
:1007C000870E920E47EA811742EA8312A7FB0201C5
:1007D000B6EB0B0164EB00042B0D43EA0C335E18FF
:1007E00044EB1C50DA465146E7FB0201C5F3130403
:1007F0004FEA0B3343EA14534FEA0432019C43EAB5
:100800000603A4F10C040294009CCDE900B4FFF7A8
:100810009FFE03B0BDE8F08F00200146F9E72DE907
:10082000F04D81EA030404F0004B21F0004514462A
:100830004FF0000A23F0004150EA050220D054EAAC
:1008400001021DD0C5F30A570246C5F31303C1F3D5
:100850001300C1F30A5640F4801543F48013A7EB4C
:100860000608101BD64608F2FD3873EB050002D3CC
:1008700008F1010801E092185B41B8F1000F03DABA
:1008800000200146BDE8F08D00204FF4801106469F
:1008900084460EE0171B73EB050705D3121B63EBB1
:1008A000050306434CEA010C49084FEA3000921850
:1008B0005B4150EA0107EDD152EA030012D082EA0F
:1008C000040083EA0501084305D0101BAB4106D2A2
:1008D0000122002306E000224FF0004302E06FF007
:1008E000010253101AEB06004CEB085110EB0A0002
:1008F00041EB0B01BDE8F04DFFF71BBEC1F30A52FF
:10090000C1F3130140F2FF3341F480119A4202DA3D
:1009100000200146704740F233439A42A2F233422C
:1009200002DC5242FFF7F5BDFFF7E4BD30B5041E0F
:1009300071F1000404DB4FF00044404264EB01011C
:10094000141E73F1000405DB1C464FF000435242B5
:1009500063EB0403994208BF904230BD064C074D3B
:1009600006E0E06840F0010394E80700984710347F
:10097000AC42F6D3FFF794FCF0490108104A010895
:10098000202A06DBCB17203A41FA02F043EAE07353
:1009900006E041FA02F3D040C2F120029140084340
:1009A0001946704770B58C1810F8015B15F00703F5
:1009B00001D110F8013B2A1106D110F8012B03E0F8
:1009C00010F8016B01F8016B5B1EF9D12B0705D400
:1009D0000023521E0DD401F8013BFAE710F8013B49
:1009E000CB1A921C03E013F8015B01F8015B521E65
:1009F000F9D5A142D8D3002070BD0000FEB506464F
:100A00000C4814460D46C07800284FF005000DD064
:100A100010F090FC1420009401212A460223CDE915
:100A200001100548314604F0D5FEFEBD04F0DEFCA1
:100A3000F0E70000644200242C0600242DE9F8436E
:100A4000002416460D4680466F46281981B240465E
:100A50003A19FFF7D3FF10B10120BDE8F883641CF9
:100A6000E4B2042CF1D39DF801209DF800109DF80C
:100A700002009DF80330120403EB016102EB002039
:100A8000084430600020E8E72DE9F84300241646CA
:100A90000D4680466F46281981B240463A19FFF745
:100AA000ADFF10B10120BDE8F883641CE4B2022C54
:100AB000F1D39DF800109DF8010000EB012030807B
:100AC0000020F0E73EB54FF6FF73012400920A467E
:100AD000CDE9014302230146074804F02DFF0749F1
:100AE00004464FF00500C97819B110F023FC2046E8
:100AF0003EBD04F07BFCFAE72C060024644200248F
:100B0000F8B50746106800240D466E46000E8DF8B5
:100B100000001068000C8DF801001088000A8DF8A4
:100B2000020010788DF80300281981B23846321976
:100B3000FFF7C8FF08B10120F8BD641CE4B2042C23
:100B4000F2D30020F8BDF8B5074610880D466E4672
:100B5000000A8DF80000107800248DF80100281993
:100B600081B238463219FFF7ADFF08B10120F8BD58
:100B7000641CE4B2022CF2D30020F8BDFEE70000B2
:100B800006480649054A0C314078103231F81010F9
:100B900052F82000012204F056BD0000300200246B
:100BA00006480649054A0C314078103231F81010D9
:100BB00052F82000002204F046BD0000300200245C
:100BC000024600F0FE00552101EA5001411A33238C
:100BD00003EA910301F03301194401EB1111C90734
:100BE00001D042F001007047022802D2014A0021E0
:100BF000115470473502002470B51D4D0020064683
:100C00000446287000F00CFC00F068F9D8B119A077
:100C10000CF0D8FA022000F00BFC08B1012603E02A
:100C200019A000BF0CF0CEFA012000F0F9FB00F093
:100C300055F9C0B11CA00CF0C5FA002000F0F8FB7B
:100C400018B1012404E01DA0ECE722A00CF0BAFAD0
:100C5000284804F08FF82748403004F08BF826B17C
:100C60001CB1012002E024A0F0E70020287070BD34
:100C7000300200244353353535322D3020496E691A
:100C800074204F4B0D0A00004353353535322D305B
:100C9000205374617274436F6E74436F6E76204696
:100CA00061696C210D0A00004353353535322D3111
:100CB00020496E6974204F4B0D0A000043533535AF
:100CC00035322D3020496E6974204661696C210DE2
:100CD0000A0000004353353535322D3120537461FD
:100CE0007274436F6E74436F6E76204661696C2137
:100CF0000D0A0000706C01244353353535322D3117
:100D000020496E6974204661696C210D0A0000005B
:100D100010B5040019D0002121709FED0C0A08467F
:100D20006170431C04EB8002D8B20328516082ED4D
:100D3000040A82ED070AF4D3FFF75EFF0449087046
:100D400008B1012000E00220207010BD000000006A
:100D5000300200242DE9F041040002D0012C05D01E
:100D60001BE0002001270426412504E0022041F277
:100D7000410503270526002100F08CFB78B14FF0D8
:100D80000071384600F086FB60B12946304600F01D
:100D900081FB50B10120BDE8F0810020FBE705A0F8
:100DA000214604E00CA0214601E015A021460CF0EC
:100DB00009FAF2E743533535353220496E69743A02
:100DC0002043482575204F5320777269746520664B
:100DD00061696C65640D0A0043533535353220492D
:100DE0006E69743A2043482575204741494E207763
:100DF00072697465206661696C65640D0A000000A3
:100E000043533535353220496E69743A20434825BD
:100E10007520434F4E565F434F4E4620777269749C
:100E200065206661696C65640D0A000091B100EE91
:100E3000101ADFED0A1A00EE900AB8EE402A9FED74
:100E4000081AF8EEE00A81EE820A20EE800A20EE0F
:100E5000010A70479FED030A7047000000401C45DF
:100E600000000034000000000A4910B50A480B6871
:100E7000002243F08074094B0C604260016841F02D
:100E800001010160064807490068B0FBF3F0886083
:100E900010BD0000FCED00E0001000E040420F003B
:100EA0003003002430020024002811D009498A6848
:100EB000002A0DD04FF0FF31B1FBF2F1884200D98A
:100EC0000846054950434A684B689B1A8342FBD346
:100ED0007047000030020024001000E02DE9FC41C2
:100EE000404C0126A07848B908233F4A04F110007D
:100EF000011F02600B8042604E80A6700025394FB2
:100F00006078FF1C3D54FFF76FFEFFF7ADFF00F068
:100F10006DFA06204FF0004100F0BCFA78B33220A1
:100F200004F064FA0020FFF715FF00282ED00120FE
:100F3000FFF710FF002829D006204FF4803100F081
:100F4000A9FA00281ED02949072000F0A3FA00289A
:100F50001ED008204FF4003100F09CFA002819D070
:100F600006206946009500F0CBF9002814D00099BE
:100F700011F0060F12D01EA00CF024F905E0FFE7D7
:100F800027A000E031A00CF01DF90020BDE8FC8195
:100F900039A0F8E743A0F6E74DA0F4E70720019554
:100FA00001A900F0ADF9A0B1002000F001F990B165
:100FB000022000F0FDF880B1142004F017FA06209A
:100FC0004FF4820100F066FA48B160783E54012087
:100FD000DCE74AA0D7E755A0D5E75EA0D3E767A036
:100FE000D1E7000030020024000C025810021180EA
:100FF00043533535353220496E69743A2065727233
:101000006F7220666C616773207365742C2053596E
:10101000535F434F4E46303D253038580D0A00008F
:1010200043533535353220496E69743A205245476D
:101030005F5359535F434F4E463020777269746552
:10104000206661696C65640D0A0000004353353504
:10105000353220496E69743A205245475F535953DF
:101060005F434F4E463020636C6561722066616954
:101070006C65640D0A000000435335353532204954
:101080006E69743A205245475F5359535F434F4E40
:101090004631207772697465206661696C65640DFC
:1010A0000A00000043533535353220496E69743AE1
:1010B000205245475F5359535F434F4E4632207786
:1010C00072697465206661696C65640D0A000000D0
:1010D00043533535353220496E69743A20524547BD
:1010E0005F5359535F434F4E463020726561642011
:1010F0006661696C65640D0A000000004353353574
:10110000353220496E69743A205245475F5359532E
:101110005F434F4E463120726561646261636B20AC
:101120006661696C65640D0A000000004353353543
:10113000353220496E69743A20434830206F666624
:101140007365742063616C206661696C65640D0A67
:101150000000000043533535353220496E69743A3A
:1011600020434831206F66667365742063616C208C
:101170006661696C65640D0A0000000043533535F3
:10118000353220496E69743A205245475F535953AE
:101190005F434F4E463020656E61626C6520636828
:1011A00065636B73756D206661696C65640D0A001B
:1011B0002DE9F041032886B03FD800F003008421D8
:1011C00041EA0010FFF7FCFC0446FFF7E9FC20466B
:1011D00009F022FC50B14FF4FA6504F03FFADFF851
:1011E000688000264FF40067044608E0FFF7C8FC5B
:1011F00023E000BF04F032FA001BA842F6D83946BB
:10120000404604F01BFA0028F4D13946404604F069
:1012100015FA0EA04FF47A720523D0E90010049657
:10122000CDE902060B48CDE9002103AA01A906F089
:101230006FFC0446FFF7A4FC1CB1002006B0BDE81B
:10124000F0810120FAE7000000080258FFFFFFFFCD
:10125000FF0000009007002410B51C46130016D0B4
:1012600000F0010204B12270012906D88A4204D09C
:10127000034609A00BF0A6FF09E0411001F100525E
:10128000B2F1804F05D3024611A00BF09BFF002066
:1012900010BD0120196010BD435335353532204152
:1012A0004443206368616E6E656C206D69736D6187
:1012B000746368206578703D257520676F743D25DF
:1012C00075207261773D30782530386C580D0A00F2
:1012D00043533535353220414443206F7574206FB8
:1012E000662072616E67652076616C3D256C6420B6
:1012F0007261773D30782530386C580D0A00000057
:101300000A2810B503D811B100F006F808B1002082
:1013100010BD012010BD00002DE9F04186B08046CF
:101320004FF000000C0003900490019002902AD02E
:1013300008F00F00042101EBC000FFF741FCFF2281
:10134000274D8DF80C008DF80D20E81C8DF80E202F
:101350008DF810208DF80F208DF811206978405CF1
:1013600008B1062600E00526FFF71AFC4FF47A7054
:1013700000901C4801AA03A9334606F0C9FB0746A2
:10138000FFF7FEFB1FB1012006B0BDE8F081062E7D
:1013900018D19DF805209DF806309DF807009DF8AE
:1013A00008101A449DF80930084410445A30C0B25D
:1013B000834207D0009041466A780B480BF002FF49
:1013C0000220E1E7BDF805109DF807004ABA9DF834
:1013D0000810120442EA0020084320600020D3E7EE
:1013E00030020024900700245449010810B5FFF78B
:1013F000D7FB0520FFF758FD002009F00DFBA520C5
:1014000009F00AFBFF2009F007FB5A2009F004FB52
:10141000FFF7B6FBBDE81040022003F0E7BF000075
:10142000012800D90020014948707047300200248B
:10143000032810B501D9002010BD00F0030082215F
:1014400041EA0010FFF7BCFB0446FFF7A9FB0A20A6
:10145000FFF72AFD204609F0DFFA30B11420FFF72C
:1014600023FDFFF78DFB012010BDFFF789FB02A0D4
:101470000BF0A8FEDFE70000436F6E74436F6E76DB
:101480003A20636D642073656E64206661696C65E3
:10149000640D0A0030B50A280C4687B025D800072D
:1014A000400EFFF78DFB8DF80C00210E8DF80D100E
:1014B000220C00258DF80E20230A8DF80F308DF8B0
:1014C000104005950695FFF76BFB4FF47A7000907E
:1014D0000848052305AA03A906F01AFB0446FFF7EE
:1014E0004FFB0A20FFF7E0FC14B1002007B030BD2D
:1014F0000120FBE790070024084E012500244FF44B
:101500006177B57002F0A0FF601CBC4284B200D3CA
:10151000002401200FF00EFFF3E70000C4000024B8
:1015200001220248110304F08EB8000000040258A2
:1015300038B50021DFED260A00914FF4004225491D
:10154000B6EE001AB1F900100844002812DD00EED2
:10155000100AB8EEC00AC0EE201A31EE810ABCEEC5
:10156000C00A10EE100A80B2904200D3501E40F420
:10157000004013E0404200EE100AB8EEC00AC0EE90
:10158000201A31EE810ABCEEC00A10EE100A81B2B8
:10159000914200D91146C1F5004080B20E4D4FF482
:1015A0008054010A8DF80010002221468DF80100B8
:1015B000284604F048F8094802224FF47A73694635
:1015C00006F08AF901222146284604F03CF838BD8D
:1015D000015043402E020024000402580807002452
:1015E0002DE9F0471348164A134F00F12801174C14
:1015F000144EDFF868800760104BDFF858A0C66013
:10160000114DC0E90132DFF85090C0E90454DFF811
:1016100040C0C0E90898C0E906CA0F60CE60C1E9C1
:101620000132C1E90454C1E90898C1E906CABDE81C
:10163000F0870000703E002461160008651600085F
:10164000CD160008351700089D170008051800087A
:10165000491800084B1800084D1800084F180008DA
:101660007047000070B505461548164C002190F8EB
:101670006420012A04D090F86A20012A07D00AE0E9
:1016800080F86410E06894ED010A804703E080F878
:101690006A10A06980470C4EB078012801D038B19B
:1016A0000BE0287848B9E06894ED010A804704E02F
:1016B0002878012801D1A06980472878B07070BDD2
:1016C0008C5B0024C03E00243C00002470B505461D
:1016D0001548164C002190F86620012A04D090F895
:1016E0006A20012A07D00AE080F86610206994ED8C
:1016F000010A804703E080F86A10A06980470C4E19
:10170000F078012801D038B10BE0287848B9206979
:1017100094ED010A804704E02878012801D1A069EE
:1017200080472878F07070BD8C5B0024C03E002498
:101730003C00002470B505461548164C002190F871
:101740006520012A04D090F86A20012A07D00AE017
:1017500080F86510E06894ED020A804703E080F8A5
:101760006A10A06980470C4E3079012801D038B149
:101770000BE0287848B9E06894ED020A804704E05D
:101780002878012801D1A06980472878307170BD80
:101790008C5B0024C03E00243C00002470B505464C
:1017A0001548164C002190F86720012A04D090F8C3
:1017B0006A20012A07D00AE080F86710206994EDBA
:1017C000020A804703E080F86A10A06980470C4E47
:1017D0007079012801D038B10BE0287848B9206928
:1017E00094ED020A804704E02878012801D1A0691D
:1017F00080472878707170BD8C5B0024C03E002447
:101800003C00002470B505460C480D4C90F869105A
:10181000012906D1002180F86910606994ED020A5F
:101820008047084EB079012805D1287818B9606939
:1018300094ED020A80472878B07170BD8C5B00245B
:10184000C03E00243C00002470477047704770473A
:10185000F0B50E494F230E4C00250E480122CB70E7
:10186000637981F86430A779012BE67905EB0724C9
:1018700034440C8207D0022B04D1022180F8561088
:1018800080F85520F0BD80F85620F9E7284500245F
:101890003A5C01248C5B00240A484E220A4970B548
:1018A000C2704D7980F865508C794FF4D67180F80C
:1018B00066400648FEF7BCFD044880F8685080F892
:1018C000694070BD284500243A5C012460AF0024C3
:1018D00070B5994C50219948E17041792171C179D5
:1018E0008379057A427A090402EB036201EB052150
:1018F00011442162C17A837A057B427B090402EBA1
:10190000036201EB05211144E162C17B837B057C0D
:10191000427C090402EB036201EB05211144A1643E
:10192000C17C837C057D427D090402EB036201EBEF
:10193000052111446162C17D837D057E427E0904DB
:1019400002EB036201EB052111442163C17E837E1A
:10195000057F427F090402EB036201EB052111447C
:10196000E164817FA17290F82010C37F90F821502C
:1019700090F82220090402EB036201EB05211144D7
:10198000E16190F8241090F8262090F8233090F828
:101990002550090402EB036201EB05211144A16209
:1019A00090F8281090F8270001EB0020208264486E
:1019B0000078502807D163494FF44F722046FEF754
:1019C00067FD00287DD0207920B101287AD0022837
:1019D00018D1AEE05C488EE084ED070A9EE000BFBF
:1019E000D4ED080AB4EEE00AF1EE10FA01D284ED6B
:1019F000080AD4ED090AB4EEE00AF1EE10FA01D2B9
:101A000084ED090A51480021A27A827094ED0A0AF5
:101A100080ED060A94ED0B0A80ED070A94ED0C0A9E
:101A200080ED080A94ED070A80ED030A94ED080A98
:101A300080ED040AD4ED090AC0ED050AD4ED120ABE
:101A4000C0ED010AD4ED130AC0ED020AB7EEC00AD8
:101A5000017041703EA053EC102B0BF0B3FB94EDE2
:101A60000B0A3EA0B7EEC00A53EC102B0BF0AAFBFA
:101A700094ED120A3EA0B7EEC00A53EC102B0BF007
:101A8000A1FB94ED090A3DA0B7EEC00A53EC102B60
:101A90000BF098FB94ED0C0A3BA0B7EEC00A53EC98
:101AA000102B0BF08FFB94ED130A3CA0B7EEC00A8D
:101AB00053EC102B0BF086FBA17A3BA00BF082FBC2
:101AC00001E016E016E094ED070A3AA0B7EEC00A6E
:101AD00053EC102B0BF076FB94ED0A0A38A0B7EE0E
:101AE000C00A53EC102B0BF06DFB3A49012081F832
:101AF000550070BD384890ED130A84ED0E0AF1EEE2
:101B0000400AC4ED0F0A00BF90ED140AD4ED070A95
:101B1000B4EEE00AF1EE10FAFFF45EAFD4ED070A7E
:101B2000B4EEE00AF1EE10FABFF45AAF84ED070A02
:101B300056E72A48E8E70000284500243A5C0124DB
:101B400078420024409B0024C449002440400024E3
:101B50005370656564313D25660D0A0044657374F4
:101B6000696E6174696F6E313D25660D0A00000073
:101B700048616C74313D25660D0A0000537065653F
:101B800064323D25660D0A0044657374696E6174A4
:101B9000696F6E323D25660D0A00000048616C7465
:101BA000323D25660D0A00004379636C65733D255F
:101BB000640D0A0053706565643D25660D0A0000DA
:101BC00044657374696E6174696F6E3D25660D0AB4
:101BD000000000008C5B0024644A0024044B0024B5
:101BE000F8B5214A0A212148D170C6798479417A11
:101BF000057A3604437901EB0461807A06EB05240B
:101C0000214423B1012B0FD0022B1BD11FE000EE8A
:101C1000101A82ED5D0AB7EEC00A82F878010090D2
:101C200013A053EC102B0BE000EE101A82ED7A0A91
:101C3000B7EEC00A82F8EC01009015A053EC102B0F
:101C40000BF0C0FA1B49012081F86200F8BD00EEDC
:101C5000101A82ED970AB7EEC00A82F8600200906F
:101C600015A053EC102BEBE7284500243A5C012427
:101C7000506F73204465616462616E643A2566202A
:101C800050657263656E74503A256425250D0A000F
:101C90004C6F6164204465616462616E643A2566DC
:101CA0002050657263656E74503A256425250D0ACF
:101CB000000000008C5B002445787420446561645A
:101CC00062616E643A25662050657263656E745079
:101CD0003A256425250D0A002DE9FC4130480124F0
:101CE0003049314D42790A71C379467A8779007A51
:101CF0004FEA034306EB076603EB0020304422B1B2
:101D0000012A19D0022A2FD132E000EE100A27480A
:101D100081ED5F0AF1EE400AC1ED600AB7EEE01A0C
:101D200080ED130A85F82D4021A0B7EEC00A8DED95
:101D3000001B53EC102B15E000EE100A234881ED38
:101D40007C0AF1EE400AC1ED7D0AB7EEE01A80EDA3
:101D5000130A85F82E401EA0B7EEC00A8DED001BB9
:101D600053EC102B0BF02EFA85F86240BDE8FC8195
:101D700000EE100A1D4881ED990AF1EE400AC1ED0E
:101D80009A0AB7EEE01A80ED130A85F82F4018A0E2
:101D9000B7EEC00A8DED001B53EC102BE2E70000FC
:101DA0003A5C0124284500248C5B0024C4490024AB
:101DB000506F732044656661756C744163633A25A6
:101DC00066204465633A25660D0A0000644A0024D3
:101DD0004C6F61642044656661756C744163633A5D
:101DE0002566204465633A25660D0A00044B0024ED
:101DF0004578742044656661756C744163633A2567
:101E000066204465633A25660D0A00001A480F22D1
:101E10001A49F0B5C2704B790371CD79002B8C79DA
:101E20004A7A0E7A4FEA054591F80BE002EB04621C
:101E30004F7B91F80AC005EB0624097B4FEA0E4E52
:101E400007EB0C650EEB012602EB040105EB060225
:101E500004D0012B05D0022B08D105E0C0E96212A5
:101E600004E0C0E97F1201E0C0E99C1204490120AE
:101E700081F86200F0BD0000284500243A5C01248E
:101E80008C5B00242DE9F0418F4C60228F480021AB
:101E9000E270427984F8D422827984F8D022C2791F
:101EA00084F8D122027A84F8D222437A84F8D33299
:101EB000877AC37A057B01EB0761467B01EB03411F
:101EC00001EB05213144C4F8F012817B0023C57B6E
:101ED000067C03EB0161477C01EB054101EB062128
:101EE0003944C4F8F412817CC57C067D03EB0161A2
:101EF000477D01EB054101EB06213944C4F8D812B6
:101F0000817DC57D067E03EB0161477E01EB0541C6
:101F100001EB0621394400EE101A1946B8EE400ACA
:101F200084EDB70A877EC37E057F01EB0761467F9C
:101F300001EB034101EB0521314400EE101A0021B1
:101F4000B8EE400A84EDB80A877FC37F90F820502E
:101F500001EB076190F8216001EB034101EB0521E2
:101F60003144C4F8E41290F82210002390F8237052
:101F700090F8245003EB016190F8256001EB0741D4
:101F800001EB0521314484F8D51290F8261090F821
:101F9000275090F8286003EB016190F8297001EB5D
:101FA000054101EB06213944C4F8E81290F82A7083
:101FB00090F82B1090F82C5090F82D6003EB0760F0
:101FC00000EB014000EB05203044C4F8EC0240482F
:101FD00022710078602807D13E494FF44F722046A5
:101FE000FEF756FA00286CD03BA00BF0EBF894F803
:101FF000D4123EA004F534740BF0E4F8217840A02C
:102000000BF0E0F8617841A00BF0DCF8A17843A078
:102010000BF0D8F8E17846A00BF0D4F894ED080A5C
:102020004AA0B7EEC00A53EC102B0BF0CBF894ED9E
:10203000090A4BA0B7EEC00A53EC102B0BF0C2F804
:1020400094ED020A49A0B7EEC00A53EC102B0BF036
:10205000B9F894ED030A49A0B7EEC00A53EC102B6F
:102060000BF0B0F894ED040A4BA0B7EEC00A53ECA5
:10207000102B0BF0A7F894ED050A4EA0B7EEC00A9E
:1020800053EC102B0BF09EF861794EA00BF09AF8F0
:1020900094ED060A4FA0B7EEC00A53EC102B0BF0DC
:1020A00091F894ED070A51A0B7EEC00A53EC102B3B
:1020B0000BF088F8524A00210120D172514981F871
:1020C0005500BDE8F0810000284500243A5C012459
:1020D00078420024409B0024636F6D6D4275662E2C
:1020E000706764796E3A0D0A0000000077617665CA
:1020F000666F726D3D30782532780D0A0000000061
:102100006D6F646966793D25640D0A007065616BC9
:102110006374726C3D25640D0A0000006D6F766576
:102120006374726C3D30782532780D0A000000002F
:1021300072656C617469766564657374696E6174E7
:10214000696F6E3D25640D0A0000000073706565BF
:1021500064746F73746172743D25660D0A0000002B
:102160006F66667365743D25660D0A00616D706C5F
:1021700069747564653D25660D0A000068616C74BC
:102180006174706C7573616D706C69747564653DB4
:1021900025660D0A0000000068616C7461746D6949
:1021A0006E7573616D706C69747564653D25660D3F
:1021B0000A0000006672657175656E63793D25667B
:1021C0000D0A000068616C666379636C65733D2578
:1021D000640D0A007370656564746F646573746977
:1021E0006E6174696F6E3D25660D0A0064657374D7
:1021F000696E6174696F6E3D25660D0A000000000E
:10220000644200248C5B002470B5204C17222048C7
:102210002DED028BE2704179217100218679C5791B
:10222000037A01EB0661467A01EB0541C57A01EBC1
:102230000321837A3144067B08EE101A002101EB5A
:102240000361437B01EB054000EB06201D1811489C
:1022500084ED748A0121C4F8D45180F861100EA075
:1022600011460AF0AFFF217914A00AF0ABFFB7EED8
:10227000C80A16A053EC102B0AF0A4FFBDEC028B89
:10228000294615A0BDE870400AF09CBF28450024EF
:102290003A5C01248C5B0024436F6D6D616E643D7C
:1022A000307825327820444F504546454544464FC6
:1022B0005257415244090D0A000000004D6F7665E7
:1022C0004374726C3D2564090D0A00004646503D7A
:1022D0002566090D0A00000044656C61793D25649E
:1022E000090D0A00254A00232549F0B54125D5707E
:1022F0004C7914718E79CF7991F808C003EB06639D
:1023000091F809E003EB07431E4803EB0C237344E9
:1023100000EE103A002382ED0E0A8F7ACE7AF1EEAB
:10232000400A03EB0721314489B21182C2ED0F0A42
:1023300090F86820EAB190F86920D20719D0867821
:10234000C21C00F10D03B5548278D454827800EB9E
:10235000820282ED390A827800EB8202C2ED430AE2
:10236000827800EB4202A2F840108178491C81700B
:10237000F0BD0549012081F85500F0BD2845002435
:102380003A5C012460AF00248C5B00242548402384
:102390002549F0B5C3704A790271CC79897904EB8B
:1023A00001218CB2048222B1012A04D0022A0BD16D
:1023B00030E01E4900E01E4991ED130A80ED0E0A3F
:1023C000F1EE400AC0ED0F0A1A4991F868501DB3AA
:1023D00091F86950ED071FD08F78CD1C01F10D06E3
:1023E0007B558B789A558A7890ED0E0A01EB820224
:1023F00082ED390A8A7890ED0F0A01EB820080EDB8
:10240000430A887801EB4000A0F840408878401CDF
:102410008870F0BD0849CFE70849012081F85500D0
:10242000F0BD0000284500243A5C0124C449002482
:10243000644A002460AF0024044B00248C5B002419
:10244000F0B5134A0E2113486527134E01254FF4AA
:102450007A74124BD17041793170867911FB07FE85
:10246000C779417A90F808C003EB8E033F0401EB73
:10247000066107EB0C263144B1FBF4F19960C17A97
:10248000807A01EB00201082054880F86250F0BD90
:10249000284500243A5C01248C0000248853002441
:1024A0008C5B002470B5284C32212848E1704179BA
:1024B000A17181792171017AC379457A827A0904FF
:1024C00002EB036201EB05211144A163017BC37A96
:1024D000457B827B090402EB036201EB0521114479
:1024E000E161017CC07B01EB00202082184800786C
:1024F000322807D117494FF44F722046FDF7C8FF25
:1025000000281FD094ED0E0A13A0B1EE400A84ED0E
:102510000F0A94ED070AB7EEC00A53EC102B0AF02D
:1025200051FE94ED0E0A0FA0B7EEC00A53EC102B2B
:102530000AF048FEA1790EA00AF044FE0F490120DE
:1025400081F8550070BD0000284500243A5C012444
:1025500078420024409B002473706565643D2566C5
:102560000D0A00006163633D25660D0A000000004E
:102570006469723D25640D0A000000008C5B002434
:1025800070B51F4C31211F48E1704179A1718179EB
:102590002171017AC379457A827A090402EB0362D8
:1025A00001EB05211144E161017BC07A01EB0020C0
:1025B000208215480078312807D114494FF44F7212
:1025C0002046FDF765FF002817D0207920B10128AB
:1025D00004D0022807D111E00D4800E00D4890ED2D
:1025E000130A84ED0E0A94ED0E0A0B490120B1EE98
:1025F000400A84ED0F0A81F8550070BD0748EEE7E8
:10260000284500243A5C012478420024409B0024A1
:10261000C4490024644A00248C5B0024044B002439
:1026200010B54FF4FA740D482146FDF701FF0C4830
:102630000A4A0C4B4079012800D000200A49587002
:102640001070022081220870012004490FF0E6FF7B
:1026500021460248BDE81040FDF7EABE6440002470
:102660003A5C012428450024784200242DE9F041F9
:102670008C4C36228C480021E27042792271867996
:10268000C279037A01EB0661457A01EB024101EB65
:1026900003212944A163817A0022C37A057B02EBDE
:1026A0000161467B01EB034101EB05213144E1610E
:1026B000817BC37B057C02EB0161467C01EB03411E
:1026C00001EB052131442164817CE171C17C037DF2
:1026D000457D02EB0161867D01EB034101EB0521A4
:1026E00031446164C17D2172017E437E857E02EBAF
:1026F0000161C67E01EB034101EB052131446163B9
:10270000017F437F857F02EB0161C67F01EB0341BF
:1027100001EB05213144A16290F82010617290F81C
:10272000213090F8221002EB0320084420825F48F9
:102730000078362807D15E494FF44F722046FDF7E6
:10274000A7FE00287DD094ED100A5AA084ED0F0A50
:10275000E1780AF037FD21795AA00AF033FD94EDB3
:102760000E0A5DA0B7EEC00A53EC102B0AF02AFD4A
:1027700094ED070A5BA0B7EEC00A53EC102B0AF0E9
:1027800021FD94ED100A5AA0B7EEC00A53EC102BAD
:102790000AF018FDE1795AA00AF014FD94ED110A2F
:1027A0005BA0B7EEC00A53EC102B0AF00BFD217AA8
:1027B0005AA00AF007FD94ED0D0A5EA0B7EEC00A1C
:1027C00053EC102B0AF0FEFC94ED0A0A5EA0B7EE63
:1027D000C00A53EC102B0AF0F5FC617A5FA00AF0F6
:1027E000F1FC218A63A00AF0EDFC654890F86810BE
:1027F00041B390F86910C9074BD08778C51CE678BB
:1028000000F10D01024603467E5586782579755400
:10281000817894ED070A00EB810181ED250A81782A
:1028200094ED0E0A00EB810181ED390A817894ED77
:102830000F0A00EB810181ED430A857894ED110ABE
:1028400001E024E025E0BCEEC00A17322B3310EE85
:10285000101AA954217A827800EE101A00EB820136
:10286000B8EE400A81ED570A817894ED0A0A00EB30
:10287000810181ED2F0A8278617AD1548178228A90
:1028800000EB4101A1F840208178491C8170BDE82E
:10289000F0813C4A0021012011733B4981F8550029
:1028A000F5E70000284500243A5C01247842002422
:1028B000409B0024436F6D6D616E643D307825321E
:1028C000780D0A004D6F76654374726C3D30782543
:1028D00032780D0A000000004163633D25660D0A51
:1028E0000000000053706565643D25660D0A000018
:1028F0004465634C696D69743D25660D0A000000EE
:102900004C696D69744D6F64653D25640D0A000066
:102910004C696D69743D25660D0A00004465737449
:10292000696E6174696F6E4374726C3D25640D0A43
:102930000000000044656344657374696E617469E6
:102940006F6E3D25660D0A0044657374696E61748F
:10295000696F6E3D25660D0A0000000044657374C2
:10296000696E6174696F6E4D6F64653D25640D0A13
:10297000000000006C707554414E3D25640D0A0046
:1029800060AF0024644200248C5B00242DE9F041F8
:102990009C4C35229C480021E27042792271867954
:1029A000C279037A01EB0661457A01EB024101EB42
:1029B00003212944E161817A0022E171C17A037B1C
:1029C000457B02EB0161867B01EB034101EB0521B5
:1029D00031446164C17B2172017C437C857C02EBC4
:1029E0000161C67C01EB034101EB05213144A16289
:1029F000017D6172437D817D02EB032008442082CA
:102A000082480078352807D181494FF44F7220461B
:102A1000FDF73EFD00287DD07E487F497F4A23791F
:102A200023B1012B11D0022B24D12AE0D0ED130ABF
:102A3000C4ED0E0AB1EE600A84ED0F0AD0ED140A5F
:102A400029E000BF84ED100A14E091ED130A84ED33
:102A50000E0AF1EE400AC4ED0F0A91ED140A94ED4E
:102A6000071AB4EEC10AF1EE10FA01D284ED070A9A
:102A7000C4ED100A237AC3B1012B19D0022B1DD14A
:102A8000B4E0D2ED130AC4ED0E0AB1EE600A84ED93
:102A90000F0AD2ED140A94ED071AF4EEC10AF1EE12
:102AA00010FACFD2C4ED070ACCE790ED130A01E08B
:102AB00091ED130AB1EE400A84ED0D0AE17858A0B9
:102AC0000AF080FB21795AA00AF07CFB94ED070AFA
:102AD0005CA0B7EEC00A53EC102B0AF073FBE1794F
:102AE0005BA00AF06FFB94ED110A5DA0B7EEC00A7F
:102AF00053EC102B0AF066FB217A5CA00AF062FB13
:102B000094ED0A0A5FA0B7EEC00A53EC102B0AF04E
:102B100059FB00E068E094ED0D0A5FA0B7EEC00A33
:102B200053EC102B0AF04EFB617A60A00AF04AFBCE
:102B3000218A64A00AF046FB654890F86810E1B36A
:102B400090F86910C90754D08778C51CE67800F161
:102B50000D010246034617327E5586782579755455
:102B6000817894ED070A00EB810181ED250A8178D7
:102B700094ED0E0A00EB810181ED390A817894ED24
:102B80000F0A00EB810181ED430A94ED110A85786B
:102B9000BCEEC00A10EE101AA954217A827800EE19
:102BA000101A00EB8201B8EE400A81ED570A8178D5
:102BB00094ED0A0A00EB810100E01AE081ED2F0A92
:102BC00081782B3394ED0D0A00EB810181ED1B0A16
:102BD0008278617AD1548178228A00EB4101A1F890
:102BE00040208178491C8170BDE8F08192ED130A84
:102BF00060E7384A002101201173374981F85500F8
:102C0000F2E70000284500243A5C012478420024C1
:102C1000409B0024C4490024644A0024044B00243F
:102C2000436F6D6D616E643D30782532780D0A001A
:102C30004D6F76654374726C3D30782532780D0A9D
:102C40000000000053706565643D25660D0A0000B4
:102C50004C696D69744D6F64653D25640D0A000013
:102C60004C696D69743D25660D0A000044657374F6
:102C7000696E6174696F6E4374726C3D25640D0AF0
:102C80000000000044657374696E6174696F6E3D85
:102C900025660D0A0000000044656344657374698D
:102CA0006E6174696F6E3D25660D0A00446573742C
:102CB000696E6174696F6E4D6F64653D25640D0AC0
:102CC000000000006C707554414E3D25640D0A00F3
:102CD00060AF0024644200248C5B00242DE9F05F87
:102CE000DFF80CA14FF0110BDFF8089100232DED58
:102CF000048B8AF803B099F805108AF8041099F843
:102D00000640002999F8075099F8087003EB046011
:102D100099F8098000EB054099F80A2000EB07209C
:102D200099F80B30404499F80C4009EE100A4FF026
:102D3000000099F80D5000EB026099F80E6000EB6E
:102D4000034099F80F7000EB042099F810C0284454
:102D500099F8118008EE900A4FF0000000EB066031
:102D600000EB074000EB0C20404408EE100A04D0B2
:102D7000012909D0022914D10DE08AED689ACAED23
:102D8000698A8AED6A8A0CE08AED859ACAED868A9C
:102D90008AED878A05E08AEDA29ACAEDA38A8AEDB8
:102DA000A48A15490120544681F8610013A05946B0
:102DB0000AF008FA217918A00AF004FAB7EEC90A55
:102DC00019A053EC102B0AF0FDF9B7EEE80A18A091
:102DD00053EC102B0AF0F6F9B7EEC80ABDEC048BE1
:102DE00015A0BDE8F05F53EC102B0AF0EBB9000022
:102DF000284500243A5C01248C5B0024436F6D6DF0
:102E0000616E643D307825327820444F5045504FF4
:102E100053504944090D0A004D6F76654374726C36
:102E20003D2564090D0A0000503D2566090D0A0084
:102E3000493D2566090D0A00443D2566090D0A0035
:102E400070B5594C34215948E17041792171C179EB
:102E50008379057A427A090402EB036201EB0521CA
:102E60001144A163C17A837A057B427B090402EB9A
:102E7000036201EB05211144E161C17B837B057C89
:102E8000427C090402EB036201EB0521114400EED0
:102E9000101AB1EE400A84ED0F0AC17C837C057DD7
:102EA000427D090402EB036201EB05211144A1629A
:102EB000C17D807D01EB002020823D4800783428D0
:102EC00007D13C494FF44F722046FDF7E1FA002844
:102ED00063D0207910B101280ED101E0364800E01E
:102EE0003648D4ED070A90ED140AB4EEE00AF1EE8C
:102EF00010FA01D284ED070A94ED0E0A30A0B7EE65
:102F0000C00A53EC102B0AF05DF994ED070A2FA0CC
:102F1000B7EEC00A53EC102B0AF054F994ED0F0AE7
:102F20002DA0B7EEC00A53EC102B0AF04BF92D4838
:102F300090F8681091B390F86910C9072FD0857880
:102F4000C11CE37800F10D026B5483782179995408
:102F5000817894ED070A00EB810181ED250A8178E3
:102F600094ED0E0A00EB810181ED390A817894ED30
:102F70000F0A00EB810181ED430A817894ED0A0A82
:102F800000EB810181ED2F0A8178228A00EB41015B
:102F9000A1F840208178491C817070BDFFE712497B
:102FA000012081F85500F8E7284500243A5C012407
:102FB00078420024409B0024C4490024644A002431
:102FC0004163633D25660D0A00000000537065658E
:102FD000643D25660D0A00004465633D25660D0AC3
:102FE0000000000060AF00248C5B002470B5444CEE
:102FF00033214448E17041792171C1798379057A9F
:10300000427A090402EB036201EB05211144E161FC
:10301000C27A837A057B417B120401EB036102EBE8
:1030200005221144A162C17B807B01EB002020823C
:1030300035480078332807D134494FF44F72204681
:10304000FDF726FA002853D0217921B1012904D0B7
:10305000022918D103E02E4802E02E4800E02E4855
:1030600090ED130A84ED0E0AF1EE400AC4ED0F0A4A
:1030700090ED140AD4ED070AB4EEE00AF1EE10FA6E
:1030800001D284ED070A254890F868208AB390F8A9
:103090006920D2072ED08678C21CE57800F10D0396
:1030A000B5548278D154817894ED070A00EB810100
:1030B00081ED250A817894ED0E0A00EB810181ED06
:1030C000390A817894ED0F0A00EB810181ED430A02
:1030D000817894ED0A0A00EB810181ED2F0A817855
:1030E000228A00EB4101A1F840208178491C8170BF
:1030F00070BDFFE70A49012081F85500F8E700009C
:10310000284500243A5C012478420024409B002496
:10311000C4490024644A0024044B002460AF002406
:103120008C5B002410B5A6B000204FF4FA71ADF806
:1031300094001D4844791D488DF80040FDF778F94A
:103140001A4A0320009925AB09F085FB24B1012C14
:103150000CD0022C16D11DE025A8154990222490F0
:103160006846FDF74CF91248103808E025A81149C7
:10317000902224906846FDF742F90E4810380FC897
:1031800000F01CF809498422BDF894000FF046FABB
:1031900026B010BD25A80849902224906846FDF766
:1031A0002EF905481038EAE73A5C0124644000240F
:1031B000D4490024744A0024144B00242DE9F04F14
:1031C0000D46144622A9534A2D9B91E8C00F014693
:1031D000002009F040FB4F4A00202D9B294609F0B2
:1031E0003AFB4C4A00202D9B214609F034FB494A0A
:1031F00000202D9B0B9909F02EFB464A00202D9BA9
:103200000C9909F028FB434A00202D9B0D9909F0E9
:1032100022FB404A00202D9B149909F01CFB3D4ADB
:1032200001202D9B159909F016FB3A4A00202D9B91
:10323000189909F010FB374A00202D9B199909F0C5
:103240000AFB344A00202D9B1A9909F004FB314AED
:1032500003202D9B1B9909F0FEFA2E4A00202D9B7E
:103260001C9909F0F8FA2B4A01202D9B1D9909F0B1
:10327000F2FA284A00202D9B1E9909F0ECFA254A03
:1032800000202D9B1F9909F0E6FA224A03202D9B6E
:10329000209909F0E0FA1F4A00202D9B219909F09E
:1032A000DAFA1C4A00202D9B314609F0D4FA194A5B
:1032B00000202D9B394609F0CEFA164A00202D9B9E
:1032C000414609F0C8FA134A00202D9B494609F0EF
:1032D000C2FA104A00202D9B514609F0BCFA0D4A53
:1032E00000202D9B594609F0B6FA0A4A03202D9B6F
:1032F000289909F0B0FA074A00202D9B299909F076
:10330000AAFA2D9B00202A99BDE8F04F014A09F046
:10331000A2BA0000644000243EB528480021ADF860
:1033200000104FF4FA7145798DF8045084792448DF
:103330008DF80840FDF77CF8214A032001996B467F
:1033400009F089FA1E4A032002996B4609F083FAB4
:1033500025B1012D06D0022D17D107E0002C194C04
:103360001AD006E0002C184C16D002E0002C174CA6
:1033700012D0134A0020616C6B4609F06CFA104AB7
:103380000120A16C6B4609F066FA0D498722BDF851
:1033900000000FF043F93EBD094A0020E16B6B4687
:1033A00009F059FA064A0120216C6B4609F053FADC
:1033B000216C07A009F006FFE7E700003A5C012452
:1033C00064400024C4490024644A0024044B0024BF
:1033D000444F5045524446454544464F525741524A
:1033E0004420506F7344656C61793A25640D0A007E
:1033F00038B51F4D07211F4A06200024E970527975
:103400002A71ADF800001CA009F0DCFE297924A087
:1034100009F0D8FE2D7925B1012D04D0022D05D15A
:1034200003E0234C02E0234C00E0234C4FF4FA71FC
:103430002248FCF7FDFF0020204A6B462946ADF8E4
:103440000000032009F007FA54F8981F1B4A0020D7
:103450006B4609F000FA194A002061686B4609F0D2
:10346000FAF916498322BDF800000FF0D7F838BDED
:10347000284500243A5C0124436F6D6D616E643D04
:10348000307825327820444F504552444E4F4D49B4
:103490004E414C4143435350454544090D0A0000F9
:1034A0004D6F76654374726C3D2564090D0A00000A
:1034B000C4490024644A0024044B002464400024CE
:1034C0003EB529480021ADF800104FF4FA71457956
:1034D0008DF80450847925488DF80840FCF7A8FF42
:1034E000224A032001996B4609F0B5F91F4A0320CF
:1034F00002996B4609F0AFF925B1012D2CD0022DB0
:1035000023D12DE0002C1A4C0DD1184A002021683F
:103510006B4609F0A0F9154A002061686B4609F076
:103520009AF9A1680CE0114A0020E1686B4609F0A5
:1035300092F90E4A002021696B4609F08CF9616905
:1035400000200A4A6B4609F086F908498522BDF831
:1035500000000FF063F83EBD002C064CE3D1D4E729
:10356000002C054CDFD1D0E73A5C012464400024F4
:10357000C4490024644A0024044B0024FEB52948B1
:1035800000264FF4FA7145798DF804508479264865
:103590008DF80840FCF74CFF234A032001996B4645
:1035A000ADF8006009F057F91F4A032002996B46F5
:1035B00009F051F925B1012D2CD0022D23D12DE098
:1035C000002C1A4C0DD1184A0020A1696B4609F055
:1035D00042F9154A0020E1696B4609F03CF9216A7D
:1035E0000CE0114A0020616A6B4609F034F90E4A7A
:1035F0000020A16A6B4609F02EF9E16A00200A4A10
:103600006B4609F028F908498622BDF800000FF042
:1036100005F8FEBD002C064CE3D1D4E7002C054C88
:10362000DFD1D0E73A5C012464400024C44900247F
:10363000644A0024044B002410B54FF4FA74104877
:103640002146FCF7F5FE0F4A0D490F485379012B2F
:1036500000D0002383700B700323D179927901EBA2
:1036600002210182094882220549037001200EF0DF
:10367000D5FF21460248BDE81040FCF7D9BE000046
:10368000644000243A5C0124284500247842002448
:10369000F0B40E4801230E4A81794579C679047A3F
:1036A000090404EB056401EB06212144094C89B2AD
:1036B000A2F82C1384F85930837A407A03EB002067
:1036C0001082F0BC04A009F07DBD00003A5C01242A
:1036D000284500248C5B00245472616E736D6974FC
:1036E00044617461506572696F643A25640D0A0023
:1036F0002DE9F0472D4C4FF008092D4800222DED03
:10370000028B84F80390417921718579002990F822
:103710000780077A02EB056290F809C002EB0848BF
:10372000837AC57A067B427B08EB0720604408EE6B
:10373000900A4FF0000000EB036000EB054000EB47
:103740000620104408EE100A04D0012907D00229EF
:103750000ED109E0C4ED788A84ED798A08E0C4EDE1
:10376000958A84ED968A03E0C4EDB28A84EDB38A2B
:103770001049012081F862000FA0494609F022FD9E
:10378000217917A009F01EFDB7EEE80A18A053EC46
:10379000102B09F017FDB7EEC80ABDEC028B19A07B
:1037A000BDE8F04753EC102B09F00CBD2845002470
:1037B0003A5C01248C5B0024436F6D6D616E643D47
:1037C000307825327820444F50455345544E4F4D64
:1037D000494E414C4143435350454544090D0A006D
:1037E0004D6F76654374726C3D2564090D0A0000C7
:1037F0004E6F6D696E616C4163633D2566090D0A0C
:10380000000000004E6F6D696E616C5370656564F9
:103810003D2566090D0A000070B5224C3022224871
:103820000021E27046798279C37901EB0661057A5D
:1038300001EB024101EB03212944A161467A0021F9
:10384000827AC37A01EB0661057B01EB024101EB51
:10385000032129442165407BE07214480078302818
:1038600007D113494FF44F722046FCF711FE002890
:1038700016D0E1780FA009F0A5FC94ED140A17A06A
:10388000B7EEC00A53EC102B09F09CFCA16918A0FC
:1038900009F098FCE17A1BA009F094FC0120207348
:1038A00070BD0000284500243A5C012478420024C1
:1038B000409B0024436F6D6D616E643D307825320E
:1038C000782020444F50455345544F50454E4C4F5F
:1038D0004F50434F4D4D414E440D0A006F70656E81
:1038E0006C6F6F70414F3D252E32660D0A0000004F
:1038F0006F70656E6C6F6F704672713D2535640D2B
:103900000A000000444F3D2531780D0A00000000F8
:103910002DE9F043DFF8789010221E4889F8032043
:10392000437989F80430C179002B8579067AC27A07
:103930004FEA0141447A90F80AC001EB062190F861
:103940000C8004EB0565477B4FEA0242294407EBF4
:103950000C6402EB0826827B04EB060004D0012BEA
:1039600007D0022B0ED109E0C9E9641089F898212B
:1039700008E0C9E9811089F80C2203E0C9E99E102A
:1039800089F880220120044981F86200BDE8F083B3
:10399000284500243A5C01248C5B00241E49002247
:1039A0001E48422370B5CB700A714479857902EBC9
:1039B0000420284484B21A480C8290ED260A194843
:1039C00081ED0E0AF1EE400AC1ED0F0A90F8681081
:1039D000E9B190F86910C90719D08678C51C00F1C3
:1039E0000D01735583785A54817800EB810181ED84
:1039F000390A817800EB8101C1ED430A817800EB3F
:103A00004101A1F840408178491C817070BD064990
:103A1000012081F8550070BD284500243A5C01243E
:103A2000C449002460AF00248C5B00242DE9F041E0
:103A3000244801242449254D42790A71C379467AE4
:103A40008779007A4FEA034306EB076603EB002011
:103A5000304422B1012A11D0022A1FD122E000EE07
:103A6000100A1B4881ED610A80ED140AB7EEC00A06
:103A700018A085F8304053EC102B0DE000EE100A32
:103A80001A4881ED7E0A80ED140AB7EEC00A18A02C
:103A900085F8314053EC102B09F094FB85F8624017
:103AA000BDE8F08100EE100A174881ED9B0A80ED19
:103AB000140AB7EEC00A15A085F8324053EC102B5B
:103AC000EAE700003A5C0124284500248C5B0024CE
:103AD000C4490024506F732044656661756C74534B
:103AE000706565643A25660D0A000000644A00248A
:103AF0004C6F61642044656661756C7453706565D4
:103B0000643A25660D0A0000044B002445787420B1
:103B100044656661756C7453706565643A25660D1D
:103B20000A0000002DE9F041374C142137480022EB
:103B30002DED048BE170437923718679C779057A7D
:103B400002EB0662467A02EB0742077B02EB052294
:103B5000857A3244C67A09EE102A002202EB056209
:103B6000457B02EB0642867B02EB0722077C2A4458
:103B7000C57B08EE902A002202EB0662467C02EB2F
:103B8000054000EB0720304408EE100A23B1012B5A
:103B900009D0022B14D10DE084ED6E9AC4ED6F8A2A
:103BA00084ED708A0CE084ED8B9AC4ED8C8A84EDF0
:103BB0008D8A05E084EDA89AC4EDA98A84EDAA8ACD
:103BC000134A012082F8610012A009F0FBFA217962
:103BD00018A009F0F7FAB7EEC90A1AA053EC102B97
:103BE00009F0F0FAB7EEE80A18A053EC102B09F030
:103BF000E9FAB7EEC80ABDEC048B16A0BDE8F041A7
:103C000053EC102B09F0DEBA284500243A5C01245D
:103C10008C5B0024436F6D6D616E643D307825329E
:103C20007820444F50455350454544504944090D70
:103C30000A0000004D6F76654374726C3D2564097F
:103C40000D0A0000503D2566090D0A00493D256614
:103C5000090D0A00443D2566090D0A000848094976
:103C60004279012A00D000220A72074A0421117009
:103C7000C17A807A01EB0020044908827047000075
:103C80003A5C012464420024784200242845002440
:103C90002DE9F04F64494FF0470E6448002281F847
:103CA00003E044790C718779002CC379057A02EB23
:103CB0000762467A02EB03424FF0000302EB052253
:103CC00006EB0209C1F83890827AC57A067B03EBCD
:103CD0000262477B02EB054202EB06223A4400EE09
:103CE000102A1A4681ED070A877BC37B057C02EB0D
:103CF0000762467C02EB034202EB052206EB02035D
:103D0000CB63857C4FF00002C67C077D02EB056229
:103D100090F815C002EB06424FF0000502EB0722B7
:103D20006244C1F83423867D81F83063B346C67D92
:103D3000077E90F819C005EB066590F81A8005EB30
:103D400007454FF0000605EB0C254544C1F83853F4
:103D5000C77E007F06EB072630441FFA80FAA1F8E1
:103D600010A004D0012C04D0022C19D10DE0304851
:103D70000CE030492C48D1ED140AF4EEC00AF1EE03
:103D800010FA0DD2C0ED070A0AE02B482649D0ED03
:103D9000140AF4EEC00AF1EE10FA01D2C1ED070ADE
:103DA000264890F86810C1B390F86910C90735D05B
:103DB00090F80280C61C00F10D0784460CF1350C0A
:103DC00008F806E08178CC551749847891ED070A08
:103DD00000EB840181ED250A817800EB8104C4F8B1
:103DE000E490817800EB8101C1F80C31817800EB1F
:103DF0008101C1F85C21827802F80CB0817800EB77
:103E00008101C1F88451817800EB4102A2F840A001
:103E10008178491C8170BDE8F08FFFE708490120D7
:103E200081F85500F7E70000284500243A5C01249A
:103E3000C4490024644A0024044B002460AF0024D9
:103E40008C5B0024554900222DE9F04754484FF07F
:103E5000470881F8038043790B718479002BC57979
:103E6000067A02EB0462477A02EB054202EB062275
:103E70003A4400EE102A4FF0000281ED070A847ADE
:103E8000C57A067B02EB0462477B02EB05424FF0EA
:103E9000000402EB06223A44C1F83423857B81F802
:103EA0003053AA46C57B067C477C04EB056490F83A
:103EB00012C004EB06444FF0000504EB07246444F1
:103EC000C1F83843C67C007D05EB062528441FFA5F
:103ED00080F9A1F8109004D0012B04D0022B17D147
:103EE00003E0304902E0304900E030492B48D1ED91
:103EF000130AC0ED0E0AB1EE601A80ED0F1AD1ED73
:103F0000140AF4EEC00AF1EE10FA01D2C0ED070A6D
:103F1000274890F86810D9B390F86910C90738D0CD
:103F200090F802C0C51C00F10D061C490746353744
:103F30000CF805808578AB55837891ED070A00EB86
:103F4000830383ED250A837891ED0E0A00EB83034A
:103F500083ED390A837891ED0F0A00EB830181ED3F
:103F6000430A817800EB8101C1F85C21827802F874
:103F700007A0817800EB8101C1F88441817800EBD2
:103F80004102A2F840908178491C8170BDE8F08719
:103F9000FFE70849012081F85500F7E7284500248C
:103FA0003A5C0124C4490024644A0024044B0024E0
:103FB00060AF00248C5B00242DE9F047DFF8D4903B
:103FC0004FF0190A344989F803A04A7989F8042086
:103FD0008879002A89F805000D7ACC794E7A8B7A97
:103FE0004FEA054591F80BC091F80C8003EB046390
:103FF0008F7B05EB0624497B1C444FEA084807EBFE
:104000000C6508EB01210D4404D0012A10D0022ACE
:1040100024D11BE0494689F89C0120B1C1F8D84160
:10402000C9F8DC511AE0C1F8D041C9F8D45115E003
:10403000494689F8100220B1C1F84C42C9F85052E3
:104040000CE0C1F84442C9F8485207E0494689F8F3
:104050008402D0B1C1F8C042C9F8C45201200F494E
:1040600081F862000EA0514609F0ACF800EE104A4B
:1040700012A0B7EEC00A53EC102B09F0A3F82946A2
:10408000BDE8F04711A009F09DB8C1F8B842C9F8E1
:10409000BC52E3E7284500243A5C01248C5B0024F1
:1040A000436F6D6D616E643A20253278206D6F76B6
:1040B000656374726C3A25640D0A0000537065657F
:1040C00064464650203D2025660D0A00506F73441B
:1040D000656C6179203D2025640D0A002DE9F041D1
:1040E000494C1321494822462DED048BE170457956
:1040F0001571837953710022C779067A90F809C047
:1041000002EB0762877A02EB0642C67A02EB0C22C8
:1041100090F80DC03A44077B09EE102A002202EB0A
:104120000662867B02EB0742C77B02EB0C2290F80B
:1041300011C03244067C08EE902A002202EB07628E
:10414000877C02EB064000EB0C20384408EE100A96
:1041500025B1012D11D0022D26D11DE033B184ED02
:104160006B9AC4ED6C8A84ED6D8A1DE084ED689ACB
:10417000C4ED698A84ED6A8A16E033B184ED889AC9
:10418000C4ED898A84ED8A8A0EE084ED859AC4EDB7
:10419000868A84ED878A07E0002B2DD084EDA59ACE
:1041A000C4EDA68A84EDA78A194A012082F862002C
:1041B00018A009F007F821791EA009F003F8617929
:1041C00020A008F0FFFFB7EEC90A23A053EC102B84
:1041D00008F0F8FFB7EEE80A21A053EC102B08F026
:1041E000F1FFB7EEC80ABDEC048B1FA0BDE8F0419B
:1041F00053EC102B08F0E6BF84EDA29AC4EDA38A1D
:1042000084EDA48AD0E70000284500243A5C01240C
:104210008C5B0024436F6D6D616E643D3078253298
:104220007820444F50455752504F53504944090D40
:104230000A0000004D6F76654374726C3D25640979
:104240000D0A00004869676870726573737572655E
:104250003D2564090D0A0000503D2566090D0A0040
:10426000493D2566090D0A00443D2566090D0A00F1
:104270002DE9F041484C1621484800222DED048BD1
:10428000E1704579257183796371C779067A90F871
:1042900009C002EB0762877A02EB0642C67A02EB9C
:1042A0000C2290F80DC03A44077B09EE102A002238
:1042B00002EB0662867B02EB0742C77B02EB0C2215
:1042C00090F811C03244067C08EE902A002202EBDE
:1042D0000762877C02EB064000EB0C20384408EEB6
:1042E000100A25B1012D11D0022D26D11DE033B1C8
:1042F00084ED719AC4ED728A84ED738A1DE084EDB9
:104300006E9AC4ED6F8A84ED708A16E033B184ED45
:104310008E9AC4ED8F8A84ED908A0EE084ED8B9A9C
:10432000C4ED8C8A84ED8D8A07E0002B2DD084EDBE
:10433000AB9AC4EDAC8A84EDAD8A194A012082F8AB
:10434000620018A008F03EFF21791EA008F03AFF95
:10435000617920A008F036FFB7EEC90A22A053EC1D
:10436000102B08F02FFFB7EEE80A21A053EC102B1A
:1043700008F028FFB7EEC80ABDEC048B1EA0BDE80C
:10438000F04153EC102B08F01DBF84EDA89AC4ED4A
:10439000A98A84EDAA8AD0E7284500243A5C012442
:1043A0008C5B0024436F6D6D616E643D3078253207
:1043B0007820444F50455752535045454450494446
:1043C000090D0A004D6F76654374726C3D256409D2
:1043D0000D0A0000486967687072657373757265CD
:1043E0003D2564090D0A0000503D2566090D0A00AF
:1043F000493D2566090D0A00443D2566090D0A0060
:1044000010B54FF4FA740C482146FCF711F80B482C
:10441000094A0B4B4079012800D000201870107019
:104420008022054901200EF0F9F821460248BDE836
:104430001040FBF7FDBF0000644000243A5C0124FB
:1044400028450024704700007FB5974D974C10E039
:104450002868002203A90FF0C9FB012809D1BDF883
:104460000C00A122010A21709049607002200EF018
:10447000D5F828680EF085FD0028E9D10EF032F855
:104480008B4C8C4D8C4E0AE18A480DF0CDFE02E03B
:1044900001200CF04FFF94F862000128F8D094F846
:1044A00061000128F4D02878AA280ED16878AA28BB
:1044B000FBD1824890F86900C00707D0A87833285C
:1044C00004D34F2802D809F093FCE3E0A8786128D0
:1044D0006FD2DFE800F03135383B3ED3D34144475B
:1044E0004A4D505356595C5F6265686B6F727578C0
:1044F000DFC7CACDD0D37B7E8285888BDF8E919437
:10450000D3D3D3D3D3D3979A9DA0A3A6A9D3D3D3E0
:10451000D3D3D3D3D3D3ACAFB2D3D3D3D3B5B8D310
:10452000D3D3D3D3BBBEC1D3D3D3D3D3D3D3D3D39A
:10453000D3D3D3D3D3D3C400614901208870A9E079
:10454000FFF75EFFA6E0FEF76BF8A3E0FFF774F855
:10455000A0E0FFF783FB9DE0FEF74AFF9AE0FFF73C
:10456000C7F897E0FEF7DEFD94E0FDF739FB91E038
:10457000FDF7B2FB8EE0FFF759FA8BE0FFF788F802
:1045800088E0FDF75DFF85E0FDF740FC82E0FFF786
:10459000BFF97FE0FEF7A2FB7CE0FEF791FF79E038
:1045A000FFF79CFD76E0FFF7BDFA73E0FEF7E6FF4C
:1045B00070E063E0FFF75CFE6CE0FDF725FE69E06C
:1045C000FEF7AAFE66E0FFF7F7FC63E005F0D6FE13
:1045D00060E03C4808F07CFA5CE005F083FE59E0BE
:1045E00008F040FA56E006F02DF953E008F074FDAB
:1045F00050E006F05FF94DE008F036FD4AE006F0C5
:10460000F5F847E0FFF708F944E0FDF7B9FF41E0AE
:10461000FDF748FF3EE0FEF7E9FC3BE0FEF710FC4B
:1046200038E0FEF7B3F935E0FEF720F832E0FDF7A9
:10463000ADFE2FE0FDF756FE2CE0FFF7AFF929E0C5
:10464000FFF700FC26E0FFF723FB23E0FDF724F94A
:1046500020E0FDF7FDF81DE0FDF73AF91AE0FDF75F
:1046600011FC17E005F0C0FF14E008F051FC11E068
:1046700005F01AFF0EE008F04BFB0BE012A140F230
:104680002F12194B02900120CDE9002117A21DA184
:104690000AF00AF807484FF40061FBF7C9FE3079C9
:1046A00000287FF4F1AE7FBD200000246440002488
:1046B0008C5B00243A5C01242402002460AF0024B7
:1046C00064420024E09E0024756E646566696E6530
:1046D0002066756E6374696F6E20636F64653A302F
:1046E0007825325821000000344401082E2E5C4801
:1046F0006F73745C636F6D6D756E69636174652E45
:10470000630000004672656552544F535F54414741
:104710000000000070B5204D204C214E28782178F3
:10472000884201D1317861B920B1012804D0022832
:1047300007D103E01BA002E022A000E028A008F0BF
:1047400041FD2878207069786078814201D1307805
:1047500068B915291BD003DC89B1132904D110E0F5
:10476000172910D01C2910D025A008F02BFD68783F
:1047700060703078002801D10120307070BD28A011
:1047800006E02FA004E036A002E03EA000E046A034
:1047900008F018FDEBE7000064420024309B002481
:1047A000480200244574685F7068795F73746174AF
:1047B000653A5048595F4C494E4B5F4F46460D0A8B
:1047C000000000004574685F7068795F73746174FD
:1047D000653A5048595F4C494E4B5F4F4E0D0A00A9
:1047E0004574685F7068795F73746174653A5048A6
:1047F000595F4C494E4B5F554E4B4E4F570D0A007B
:104800004574685F73636F6B65745F73746174651F
:10481000206F74686572733A2532780D0A000000C3
:104820004574685F73636F6B65745F7374617465FF
:104830003A534F434B5F434C4F5345440D0A0000DE
:104840004574685F73636F6B65745F7374617465DF
:104850003A534F434B5F494E49540D0A0000000044
:104860004574685F73636F6B65745F7374617465BF
:104870003A534F434B5F45535441424C495348458B
:10488000440D0A004574685F73636F6B65745F73F2
:10489000746174653A534F434B5F434C4F53455FCC
:1048A000574149540D0A00004574685F73636F6B8C
:1048B00065745F73746174653A534F434B5F53592A
:1048C0004E53454E540D0A00FEB527490F2009F0FE
:1048D0000BFC264D401C1ED0234E254C761E7078B6
:1048E000E0B1012028706078B11DB2880EF0E8FABE
:1048F00040B2B07000280ADA1EA1254B9F22029018
:104900000120CDE9002123A228A109F0CDFE68787D
:10491000172809D023E00220287020E0002028700A
:10492000607805F0AFFB1AE06078A11C234A07F01D
:104930008DFE0F4807F0D4FE214D07E021480DF011
:1049400027FE0B491F4807F035FFB0702879002873
:10495000F4D11D4A6078A2F5006107F091FEBDE830
:10496000FE40FFF7D7BE0000490200246442002445
:10497000F06C01245554435F45544820534F434B3A
:104980004554204552524F52203A202564000000E1
:10499000E44501082E2E5C457468656E65745C45BF
:1049A000544877353530302E630000004672656517
:1049B00052544F535F54414700000000F2740124E9
:1049C000290200243A640124F47C012400210846D1
:1049D00010B50DF0EFFB0E490E480DF0FDFB0E4932
:1049E0000E480DF00BFC07F057FF0D49012009F0B0
:1049F0007BFB401C02D10BA008F0E4FB0CF096FB03
:104A00000CF0C8FBBDE810400DA008F0DBBB0000B7
:104A100025A9000835A9000895AA000801AA0008E0
:104A20006902002457495A4348495020496E697425
:104A300069616C697A6564206661696C2E0D0A0093
:104A40006E6574776F726B5F696E697420706173E5
:104A5000730D0A002DE9F34F83B00C46002047F692
:104A6000FF7105468DF8040001AA039840F001008B
:104A70000090FBF7C3FF9DF804100646A62903D05B
:104A80000398214600F076F8009864212246FBF74F
:104A9000B5FF621C652106440098FBF7AFFF662155
:104AA0000644009804F10C02FBF7C8FF6A21064493
:104AB000009804F11002FBF7C1FFA21C6E2106440E
:104AC0000098FBF79BFFE21C6F2106440098FBF760
:104AD00095FFA21D702106440098FBF7D5FF221D0B
:104AE000722106440098FBF789FF30444FF07309A8
:104AF00000F0FF084FF0770A4FF07B0B009805EBB2
:104B0000450604EB860709EB860107F11C02FBF75B
:104B100095FF8044009807F118020AEB8601FBF725
:104B20008DFF804400980BEB860107F11402FBF720
:104B300085FF6D1C4044EDB2C0B2202D8046DDD310
:104B40000399024603A008F03DFB05B04046BDE8CE
:104B5000F08F00004465766963655F416464723A72
:104B600030782532782052446572723A25640D0AF5
:104B7000000000002DE9F34F81B00C46A6206A46E4
:104B8000002547F6FF718DF800000198FBF79AFFAA
:104B90006421064601982246FBF794FF621C6521BA
:104BA00006440198FBF78EFF66210644019804F144
:104BB0000C02FBF7A5FF6A210644019804F11002DC
:104BC000FBF79EFFA21C6E2106440198FBF77AFFBB
:104BD000E21C6F2106440198FBF774FFA21D7021AF
:104BE00006440198FBF7AFFF221D7221064401988D
:104BF000FBF768FF30444FF0730A00F0FF084FF0F6
:104C0000770B4FF07B0900BF05EB4506019804EBDD
:104C100086070AEB860107F11C02FBF771FF80444F
:104C2000019807F118020BEB8601FBF769FF80443E
:104C3000019809EB860107F11402FBF761FF6D1C77
:104C40004044EDB2C0B2202D8046DDD3019902462A
:104C500002A008F0B7FA4046BDE8FE8F44657669C9
:104C600063655F416464723A307825327820575228
:104C70006572723A25640D0A0000000047F2305256
:104C800010B558B1012813D002281CD10E4B8C68E6
:104C90001868406A801A2044886012E00B4B0C6848
:104CA0001868406AA0F5EA4030382044086008E0FF
:104CB000074B4C681868406AA0F5EA403038204439
:104CC00048601868426210BDFC08002418080024DF
:104CD000B008002413483C2110B503F0FDFB114936
:104CE00047F230540868C26842F00102C2600868A6
:104CF00044623C210C4803F0EFFB0B490868C26892
:104D000042F00102C260086844623C21074803F097
:104D1000E3FB06480168CA6842F00102CA60006805
:104D2000446210BDB008002418080024FC080024C8
:104D300072B6FEE7074E012500243570FFF7C4FD6B
:104D4000601CC82C84B200D3002405200CF0F2FAB9
:104D5000F3E70000C400002405480549083902684B
:104D600042F00202026008688004FCD5704700002F
:104D70000C48025810B528210446FBF759FB0021C6
:104D8000218584F83810C4E90C1110BD10B5282114
:104D90000446FBF74DFB9FED040A0020208584EDBF
:104DA0000B0A84F8300010BD00000000018DD0ED2A
:104DB0000B0A00EB810191ED001A70EEC10AC0ED03
:104DC0000B0A81ED000AD0ED0B0A70EE800AC0EDEF
:104DD0000B0A018D491C89B201850A2905D30022DD
:104DE0000285012180F8301008E090F8300028B9E1
:104DF00021B100EE101AB8EE401A01E0B2EE041A2A
:104E000080EE810A704700002DE9F84F044600F05B
:104E100025FC00903CB194F83500022806D0802192
:104E200061650020E4E00120BDE8F88FC74DC74E62
:104E3000C649183520683036DFF81483DFF814933C
:104E40008842DFF814A3DFF814B32ED0A8422CD088
:104E5000B0422AD0404528D0484526D0504524D0DD
:104E6000584522D0BD4A183290421ED0BC4A9042CA
:104E70001BD0BB4A1832904217D0B94A3032904208
:104E800013D0B74A483290420FD0B54A60329042B0
:104E90000BD0B34A7832904207D0B14A9032904258
:104EA00003D0AF4AA832904209D1026822F01E0214
:104EB00002602068426922F08002426103E00268D9
:104EC00022F00E02026027688F4238464DD0A84279
:104ED0004BD0B04249D0404547D0484545D05045D9
:104EE00043D0584541D09D4A183290423DD09C4A0B
:104EF00090423AD09A4A1832904236D0984A30328C
:104F0000904232D0964A483290422ED0944A603233
:104F100090422AD0924A7832904226D0904A9032DB
:104F2000904222D08E4AA83290421ED08D4A9042A2
:104F30001BD08C4A1432904217D08A4A28329042B1
:104F400013D0884A3C3290420FD0864A5032904269
:104F50000BD0844A6432904207D0824A7832904221
:104F600003D0804A8C32974204D1206E026822F42A
:104F70008072026075492068884228D0A84226D0F5
:104F8000B04224D0404522D0484520D050451ED0C4
:104F900058451CD071491831884218D07049884250
:104FA00015D06F491831884211D06D49303188428F
:104FB0000DD06B494831884209D069496031884237
:104FC00005D067497831884201D065499031016840
:104FD00021F0010101600EE000F040FB0099401A51
:104FE000052808D9202262650321002084F83510A5
:104FF00084F8340017E73868C007EDD1534A01211F
:10500000206890422ED0A8422CD0B0422AD04045F1
:1050100028D0484526D0504524D0584522D04F4B63
:10502000183398421ED04E4B98421BD04C4B18332D
:10503000984217D04A4B3033984213D0484B4833EC
:1050400098420FD0464B603398420BD0444B783394
:10505000984207D0424B9033984203D0404BA8333C
:10506000984208D194F85C703F23A06D07F01F07A9
:10507000BB40836007E094F85C30A06D03F01F0331
:1050800001FA03F34360206890424DD0A8424BD010
:10509000B04249D0404547D0484545D0504543D01F
:1050A000584541D02D4A183290423DD02C4A90426A
:1050B0003AD02B4A1832904236D0294A30329042A8
:1050C00032D0274A483290422ED0254A6032904250
:1050D0002AD0234A7832904226D0214A90329042F8
:1050E00022D01F4AA83290421ED01E4A90421BD0A6
:1050F0001C4A1432904217D01A4A2832904213D0D8
:10510000184A3C3290420FD0164A503290420BD08F
:10511000144A6432904207D0124A7832904203D047
:10512000104A8C3290420BD1D4E919024260E06EF1
:1051300030B1026822F480720260D4E91C0242603D
:10514000002084F8351084F834006DE61000024029
:10515000580002407000024088000240A000024057
:1051600010040240085402582DE9F05F28B190F86D
:105170003510022904D0802141650120BDE8F09F4F
:10518000904C904B0168183C18338E4ADFF83C92E3
:10519000A1428D4CDFF838E28E4FDFF83CB2DFF8E9
:1051A0003CA28F4D8F4E31D091422FD099422DD0BD
:1051B000A1422BD0494529D0714527D0B94225D0ED
:1051C000DFF810C20CF1180C61451FD0DFF808C2DF
:1051D000ACF1600C614519D0DFF8FCC1ACF1480CB2
:1051E000614513D0DFF8F0C1ACF1300C61450DD052
:1051F000DFF8E4C1ACF1180C614507D0594505D082
:10520000514503D0A94201D0B1422CD1DFF8B4C13D
:105210004FF0040880F83580ACF1180C61451DD0C2
:1052200091421BD0994219D0A14217D0494515D0BF
:10523000714513D0B94211D06648183081420DD063
:1052400065486038814209D063484838814205D0BA
:1052500061483038814201D05F481838086820F032
:1052600001000860ABE0D1F800C02CF00E08DFF8B8
:1052700054C1C1F80080ACF1180C0168614527D019
:10528000914225D0994223D0A14221D049451FD037
:1052900071451DD0B9421BD0DFF838C10CF1180C94
:1052A000614515D0DFF830C1ACF1600C61450FD01D
:1052B000DFF824C1ACF1480C614509D0DFF818C112
:1052C000ACF1300C614503D0DFF80CC1ACF1180C27
:1052D000D1F800C02CF0010CC1F800C0DFF8E48068
:1052E0004FF0010C0168A8F11808414546D09142E1
:1052F00044D0994242D0A14240D049453ED0714568
:105300003CD0B9423AD0334A1832914236D0324A70
:10531000603A914232D0304A483A91422ED02E4AD9
:10532000303A91422AD02C4A183A914226D0594517
:1053300024D0514522D0A94220D0B1421ED02A4AC1
:1053400091421BD0284A1432914217D0264A283263
:10535000914213D0244A3C3291420FD0224A50321B
:1053600091420BD0204A6432914207D01E4A7832D3
:10537000914203D01C4A8C32914218D1016E0A68C6
:1053800022F480720A6090F85C20816D02F01F02A6
:105390000CFA02F24A60D0E919124A60C16E31B1CA
:1053A0000A6822F480720A60D0E91C124A60002266
:1053B000016D80F835C080F8342001B188470020A5
:1053C000DCE6000028000240580002407000024065
:1053D00088000240A000024070040240880402409D
:1053E000A0040240B80402400854025870B50446B4
:1053F00000F034F90546601C02D0044800780444EB
:1054000000F02CF9401BA042FAD370BD38030024F1
:105410002DE9F84F03247D4D00234FF001094FF093
:10542000B04B4FF00F0AE9E009FA03F73A4076D0A3
:105430000E7906F00306012E01D0022E18D1D0F805
:1054400008C04FEA430ECE6804FA0EF82CEA080CA6
:1054500006FA0EF646EA0C068660D0F804C00E790D
:105460002CEA070CC6F300169E4046EA0C0646607E
:105470000E79F643B6070BD0C6684FEA43088F682B
:1054800004FA08FC26EA0C0607FA08F73743C76057
:105490000E7906F00306022E12D1DE080F694FEADC
:1054A000437C00EB8606B646366A4FEADC6C0AFAA5
:1054B0000CF807FA0CF726EA08063743CEF82070F6
:1054C0000F7906684FEA430807F0030704FA08FC5F
:1054D00007FA08F726EA0C06374307604E6816F409
:1054E000403F1CD04A4E376847F0020737603668A5
:1054F0009F0706F00206009623F0030606F1B04669
:10550000B6463F0FD6F80864DFF808810AFA07FCB0
:10551000404526EA0C0603D14FF0000C41E06CE058
:10552000DFF8F4C0604502D14FF0010C39E0DFF83C
:10553000ECC0604502D14FF0020C32E0DFF8E0C071
:10554000604502D14FF0030C2BE0DFF8D8C0604576
:1055500002D14FF0040C24E0DFF8CCC0604502D14A
:105560004FF0050C1DE0DFF8C4C0604502D14FF0DC
:10557000060C16E0DFF8B8C0604502D14FF0070C0A
:105580000FE0DFF8B0C0604502D14FF0080C08E032
:10559000DFF8A4C0604502D14FF0090C01E04FF0E4
:1055A0000A0C0CFA07FC4CEA060CCEF808C44F684B
:1055B000DBF80060FF0226EA020600D516435F46CC
:1055C000CBF80060D1F804C0DBF804605FEA8C2CF3
:1055D00026EA020600D516437E606E684F6826EA0A
:1055E0000206BF0300D516436E602E684F6826EA98
:1055F0000206FF0300D516432E605B1C0A6832FAD0
:1056000003F67FF411AFBDE8F88F0000800000586A
:10561000F4440258000002580004025800080258DE
:10562000000C0258001002580014025800180258CA
:10563000001C02580020025800240258006908404B
:1056400000D0012070470AB1816170470904FBE76F
:1056500001480068000C70470010005C0148806839
:10566000704700003803002430B590F84120202A0C
:1056700024D190F84020012A20D0012380F8403026
:10568000242280F84120202300240268156825F098
:10569000010515600268156825F4805515600268DB
:1056A00015680D43156001680A6842F001020A603E
:1056B00080F8413080F84040002030BD022030BDED
:1056C00030B590F84120202A22D190F84020012ABC
:1056D0001ED0012380F84030242280F8412020246D
:1056E00000250268136823F0010313600268136841
:1056F00023F4706343EA0121116001680A6842F0F3
:1057000001020A6080F8414080F84050002030BD1E
:10571000022030BD70B5040004D094F8410000258B
:1057200010B106E0012070BD204684F8405000F022
:10573000AFF9242084F841002068016821F00101BC
:105740000160D4E9001020F0706008612068816871
:1057500021F400418160E06821680128A06830D010
:1057600040F404408860E0680228206841682BD03B
:1057700021F40061416020682021154A43681343E9
:1057800043602068C26822F40042C26054F8106B83
:105790000DCC104340EA0320F06054F81C3CD4E9DF
:1057A00000021043186054F81C0D026842F0010218
:1057B0000260656484F84110256384F8425000203B
:1057C00070BD40F40040CDE741F40061D2E7000035
:1057D000008000022DE9FF4F83B0044690F841009D
:1057E0009A469346DDE91087DDF84890202874D169
:1057F0005FEA080014D09FB194F8400001286CD0F3
:10580000012084F84000FFF729FF012206461923F2
:105810000090D103204603F011FE002871D103E06F
:105820004FF4007060646CE00025C4F824802221ED
:1058300084F84110402084F842006564678553462F
:1058400065635A4604992046CDE9009603F07AFD37
:1058500010B184F8405054E0618DFF2734484FF078
:105860008078FF294FF0007A04D927853A464346CD
:10587000009005E0618D53462185009094F8282022
:105880002046049903F0C2FD00224B460421204625
:10589000009603F0D3FDA0BB2068616A406A0870DF
:1058A000606A401C6062208D401E81B22185608D3F
:1058B000401E6085608DD8B1D1B900224B46802151
:1058C0002046009603F0BAFDD8B9608DFF2805D9AF
:1058D00027853A464346009506E026E0608D53460C
:1058E0002085009594F828202046049903F08EFD29
:1058F000608D0028C8D132464946204603F0DCFDC1
:1059000018B1012007B0BDE8F08F21682020094AB6
:10591000C86121684B6813404B6084F8410084F8EB
:105920004250002084F84050ECE70220EAE70000F3
:105930000024008000E800FE2DE9FF4F83B00446FC
:1059400090F841009A469346DDE91087DDF84890CB
:10595000202871D15FEA080014D09FB194F840006C
:10596000012869D0012084F84000FFF777FE01226A
:10597000064619230090D103204603F05FFD00285E
:105980006ED103E04FF40070606469E00025C4F854
:105990002480212184F84110402084F8420065646D
:1059A0006785534665635A4604992046CDE90096BB
:1059B00003F0FAFC10B184F8405051E0608DFF27ED
:1059C0004FF08078FF284FF0007A04D927853A46B7
:1059D0004346009505E0608D53462085009594F878
:1059E00028202046049903F011FD324649462046FE
:1059F00003F08EFDA0BB606A216800788862606A4F
:105A0000401C6062608D401E6085208D401E80B20B
:105A10002085618DD9B1D0B900224B468021204626
:105A2000009603F00BFDD8B9608DFF2805D92785B6
:105A30003A464346009506E026E0608D53462085B1
:105A4000009594F828202046049903F0DFFC608D2F
:105A50000028CAD132464946204603F02DFD18B130
:105A6000012007B0BDE8F08F20682021074AC161FE
:105A7000206843681340436084F8411084F8425022
:105A8000002084F84050ECE70220EAE700E800FE3E
:105A900010B5B6B00446142130A8FAF7C9FCC021ED
:105AA0006846FAF7C5FC1A49206888422DD10020C3
:105AB000219008210446CDE90010684600F09CFAC8
:105AC00008B1FFF735F91348016841F002010160A0
:105AD00000680DF1C00C122100F0020035904FF467
