:020000040800F2
:10000000A8CC032471030008C3D1000891BF0008E5
:10001000C1D10008810C00086D0501080000000036
:10002000000000000000000000000000B102000815
:10003000795F0008000000000D0300087DE500085E
:100040008F0300088F0300088F0300088F03000848
:100050008F0300088F0300088F0300088F03000838
:100060008F0300088F0300088F0300088F03000828
:100070008F0300088F0300088F0300088F03000818
:100080008F0300088F0300088F0300088F03000808
:100090008F0300088F0300088F0300088F030008F8
:1000A0008F0300088F0300088F0300088F030008E8
:1000B0008F0300088F0300088F0300088F030008D8
:1000C0008F0300088F0300088F0300088F030008C8
:1000D0008F0300088F0300083DFF00088F0300080E
:1000E0008F0300088F030008000000008F03000842
:1000F0008F0300088F03000875E700088F030008CE
:100100008F0300088F0300088F0300088F03000887
:100110008F0300088F0300085DE7000869E7000807
:100120008F0300088F0300088F0300088F03000867
:100130008F0300088F0300088F0300088F03000857
:1001400000000000000000000000000000000000AF
:100150008F0300088F0300088F0300088F03000837
:100160008F0300088F0300088F0300088F03000827
:100170008F0300088F0300088F03000800000000B1
:100180008F0300088F0300088F0300088F03000807
:100190008F0300088F0300088F0300088F030008F7
:1001A0008F0300088F0300088F0300088F030008E7
:1001B0008F0300088F0300088F0300088F030008D7
:1001C0008F0300088F0300088F0300088F030008C7
:1001D0008F0300088F0300088F0300088F030008B7
:1001E0008F0300088F0300088F0300088F030008A7
:1001F0008F0300088F0300088F0300088F03000897
:100200008F0300088F0300088F0300088F03000886
:100210008F03000845E7000851E700088F03000836
:100220008F0300088F0300088F0300080000000000
:100230008F0300088F030008000000008F030008F0
:100240008F0300088F0300088F0300088F03000846
:100250008F0300088F0300088F0300088F03000836
:100260008F0300088F0300088F0300088F03000826
:100270008F0300088F0300088F03000800000000B0
:100280008F0300088F0300088F03000800000000A0
:10029000000000008F030008DFF810D000F0E0FB42
:1002A00000480047914B0108AFF30080A8CC03241D
:1002B0002C4B19680868B0E8F04F80F30988BFF349
:1002C0006F8F4FF0000080F311887047000000002E
:1002D00008480068006880F308884FF0000080F349
:1002E000148862B661B6BFF34F8FBFF36F8F00DF24
:1002F00000BF00BF08ED00E0DFF80C00016841F42A
:1003000070010160704700BF88ED00E0EFF30980E5
:10031000BFF36F8F134B1A681EF0100F08BF20ED4C
:10032000108A20E9F04F106009B44FF0500080F3BC
:100330001188BFF34F8FBFF36F8F1BF06FFE4FF02D
:10034000000080F3118809BC19680868B0E8F04F14
:100350001EF0100F08BFB0EC108A80F30988BFF3BD
:100360006F8F70476C030024EFF305807047000027
:10037000074880470748804707480047FEE7FEE7F1
:10038000FEE7FEE7FEE7FEE7FEE7FEE7FEE7FEE745
:10039000A57900084DE60008990200082DE9F05FF4
:1003A0000546002092469B468846064681464024E4
:1003B0001BE0284641464746224600F0F5F85346E2
:1003C0005A46C01A914110D311461846224600F0F1
:1003D000DCF82D1A67EB01084F4622460120002168
:1003E00000F0D3F817EB00094E41201EA4F10104E0
:1003F000DFDC484631462A464346BDE8F09F40EAE6
:1004000001039B0703D009E008C9121F08C0042A92
:10041000FAD203E011F8013B00F8013B521EF9D279
:100420007047D2B201E000F8012B491EFBD27047A1
:100430000022F6E710B513460A4604461946FFF7B0
:10044000F0FF204610BD30B505462A460B4612F88F
:10045000010B13F8014B08B1A042F8D01CB10028E1
:1004600002D06D1CF1E7284630BD10B5044604E00B
:100470000B7800F8013B03B1491C521EF8D220460C
:1004800010BD421C10F8011B0029FBD1801A7047D7
:1004900030B504460020034600E05B1C934203D2C3
:1004A000E05CCD5C401BF8D030BD30B50546002087
:1004B000034600E05B1C934205D2EC5CC85C201A4A
:1004C00001D1002CF6D130BDF0B4CA17CB0F50408B
:1004D0005140C61841F100054FEAC3723146280069
:1004E0004FF0960303D0B623F0BC00F076B8304648
:1004F0000021F9E73EB5CA17CB0F00245040514008
:10050000C0186141DA0740F233430094CDE901237A
:100510002246234600F09EF803B030BD10B500F02F
:10052000004420F00040C20DC0F3160040F400006B
:100530007F2A02DA0020014610BD0021962A03DC42
:10054000C2F19602D04002E0963A00F01EF8002C6C
:10055000F2D00023D0EB030063EB010110BD30B5F6
:100560000B46014600202022012409E021FA02F571
:100570009D4205D303FA02F5491B04FA02F528440B
:10058000151EA2F10102F1DC30BD202A04DB203A65
:1005900000FA02F1002070479140C2F1200320FAD6
:1005A00003F3194390407047202A04DB203A21FAD4
:1005B00002F00021704721FA02F3D040C2F120027C
:1005C00091400843194670470029A8BF7047401C56
:1005D000490008BF20F00100704710B4B0FA80FC59
:1005E00000FA0CF050EA010404BF10BC704749B196
:1005F000CCF1200421FA04F411FA0CF118BF012106
:1006000021430843A3EB0C01CB1D4FEA00614FEAE5
:10061000102042BF002010BC704700EBC3501044B4
:100620000029A4BF10BC7047401C490008BF20F03F
:10063000010010BC704710B5141E73F1000408DAF5
:10064000401C41F1000192185B411A4301D120F096
:10065000010010BD2DE9F04D92469B4611B1B1FA53
:1006600081F202E0B0FA80F220329046FFF78DFF6F
:1006700004460F4640EA0A0041EA0B0153465A4637
:10068000084313D0114653EA010019D0C8F14002C3
:100690005046FFF789FF05460E46504659464246EA
:1006A000FFF773FF084305D0012004E020463946D8
:1006B000BDE8F08D0020054346EAE0762C43374341
:1006C0000A986305E40AA0EB08000022FD0A44EA48
:1006D00047540A3002D500200146E9E70105101908
:1006E0006941DDE9084500196941BDE8F04DA2E71F
:1006F0002DE9FE4F804681EA0300C00F0C460090B2
:1007000021F0004123F00045B8EB0200A94105D2D9
:100710004046214690461C460B46024623F00040C8
:10072000104347D0270DC7F30A00C3F30A510290C4
:10073000401A019040286BDAC3F3130040F4801B89
:100740000098924620B10023D2EB030A63EB0B0B17
:1007500001985946C0F140025046FFF716FF064681
:100760000D4650465946019A00F08CF910EB0800EE
:100770006141002487EA115284EAE7731A4340D0AA
:10078000009A62B3019A012A4FEA075215DC001B56
:1007900061EB02014FF0004202EA0752CDE900424C
:1007A000001C41F5801132462B46FFF753FF03B082
:1007B000BDE8F08F40462146F9E7001B61EB0201DE
:1007C000001C41F5801300185B412018A2F50017AA
:1007D00047EB030140EAD570B6196D4111E06D0891
:1007E0004FEA360645EAC0754FEA0752001B61EB37
:1007F0000201001C41F5801149084FEA3000001940
:10080000514132462B4603B0BDE8F04FFFF713BF0E
:100810000098012240000023D0EB020263EBE0735A
:10082000009821464FEAE074B8EB000061EB040148
:10083000E9E783F000435BE781F0004158E72DE9E9
:10084000FE4F81EA030404F0004421F000410094CB
:100850004FF0000B23F0004350EA01045ED052EA4F
:1008600003045BD0C3F30A54C1F30A552C44A4F229
:10087000F3340194A0FB0254C1F3130141F480113D
:10088000C3F3130343F4801301FB024400FB034E44
:10089000840A970A44EA815447EA8357A4FB07680D
:1008A00002958D0A05FB07854FEA932C04FB0C5437
:1008B0002705029D4FEA065847EA1637B5EB0805AB
:1008C0006EEB070C870E920E47EA811742EA8312FD
:1008D000A7FB0201B6EB0B0164EB00042B0D43EA0E
:1008E0000C335E1844EB1C50DA465146E7FB02011C
:1008F000C5F313044FEA0B3343EA14534FEA0432AF
:10090000019C43EA0603A4F10C040294009CCDE987
:1009100000B4FFF79FFE03B0BDE8F08F0020014652
:10092000F9E72DE9F04D81EA030404F0004B21F0D2
:10093000004514464FF0000A23F0004150EA05023A
:1009400020D054EA01021DD0C5F30A570246C5F370
:100950001303C1F31300C1F30A5640F4801543F4A6
:100960008013A7EB0608101BD64608F2FD3873EB80
:10097000050002D308F1010801E092185B41B8F1CB
:10098000000F03DA00200146BDE8F08D00204FF48F
:100990008011064684460EE0171B73EB050705D34E
:1009A000121B63EB050306434CEA010C49084FEAAE
:1009B000300092185B4150EA0107EDD152EA030082
:1009C00012D082EA040083EA0501084305D0101B17
:1009D000AB4106D20122002306E000224FF0004383
:1009E00002E06FF0010253101AEB06004CEB0851C5
:1009F00010EB0A0041EB0B01BDE8F04DFFF71BBE09
:100A0000C1F30A52C1F3130140F2FF3341F48011E4
:100A10009A4202DA00200146704740F233439A427C
:100A2000A2F2334202DC5242FFF7BEBDFFF7ADBD7A
:100A300030B5041E71F1000404DB4FF00044404265
:100A400064EB0101141E73F1000405DB1C464FF03A
:100A50000043524263EB0403994208BF904230BD09
:100A6000064C074D06E0E06840F0010394E80700FB
:100A700098471034AC42F6D3FFF712FC68DB01084C
:100A800088DB0108202A06DBCB17203A41FA02F066
:100A900043EAE07306E041FA02F3D040C2F12002DB
:100AA000914008431946704770B58C1810F8015BE7
:100AB00015F0070301D110F8013B2A1106D110F8F7
:100AC000012B03E010F8016B01F8016B5B1EF9D1FB
:100AD0002B0705D40023521E0DD401F8013BFAE781
:100AE00010F8013BCB1A921C03E013F8015B01F8EC
:100AF000015B521EF9D5A142D8D3002070BD000081
:100B0000FEB506460C4814460D46C07800284FF046
:100B100005000DD017F058FC1420009401212A463E
:100B20000223CDE901100548314607F081FCFEBDE6
:100B300007F082FAF0E7000004460024DC060024F7
:100B40002DE9F843002416460D4680466F462819C5
:100B500081B240463A19FFF7D3FF10B10120BDE83A
:100B6000F883641CE4B2042CF1D39DF801209DF8B5
:100B700000109DF802009DF80330120403EB0161A0
:100B800002EB0020084430600020E8E72DE9F8433C
:100B9000002416460D4680466F46281981B240460D
:100BA0003A19FFF7ADFF10B10120BDE8F883641CCE
:100BB000E4B2022CF1D39DF800109DF8010000EB87
:100BC000012030800020F0E73EB54FF6FF7301248E
:100BD00000920A46CDE9014302230146074807F087
:100BE000D9FC074904464FF00500C97819B117F040
:100BF000EBFB20463EBD07F01FFAFAE7DC060024B7
:100C000004460024F8B50746106800240D466E46D9
:100C1000000E8DF800001068000C8DF8010010889F
:100C2000000A8DF8020010788DF80300281981B2AF
:100C300038463219FFF7C8FF08B10120F8BD641C1F
:100C4000E4B2042CF2D30020F8BDF8B507461088B2
:100C50000D466E46000A8DF80000107800248DF8CD
:100C60000100281981B238463219FFF7ADFF08B1EB
:100C70000120F8BD641CE4B2022CF2D30020F8BDC0
:100C8000FEE700000F4D00270F4C4FF00108DFF882
:100C90003C900F4E6879012804D1287A012801D1AF
:100CA00001F006FD94F85900012806D1B9F82C137B
:100CB000318084F8368084F85970308817F084FBCE
:100CC000E8E70000044600242C5F0024C848002404
:100CD0000201002406480649054A0C3140781032CA
:100CE00031F8101052F82000012207F0DABA0000A3
:100CF000DC02002406480649054A0C3140781032CF
:100D000031F8101052F82000002207F0CABA000093
:100D1000DC020024024600F0FE00552101EA5001E9
:100D2000411A332303EA910301F03301194401EB23
:100D30001111C90701D042F001007047022802D208
:100D4000014A002111547047E102002470B51D4D85
:100D5000002006460446287000F002FC00F068F906
:100D6000D8B119A010F080F9022000F001FC08B100
:100D7000012603E019A000BF10F076F9012000F071
:100D8000EFFB00F055F9C0B11CA010F06DF9002088
:100D900000F0EEFB18B1012404E01DA0ECE722A056
:100DA00010F062F9284806F00BFE2748403006F0A4
:100DB00007FE26B11CB1012002E024A0F0E70020CC
:100DC000287070BDDC0200244353353535322D3098
:100DD00020496E6974204F4B0D0A0000435335358E
:100DE00035322D30205374617274436F6E74436FCB
:100DF0006E76204661696C210D0A0000435335353B
:100E000035322D3120496E6974204F4B0D0A000098
:100E10004353353535322D3020496E697420466193
:100E2000696C210D0A0000004353353535322D31F0
:100E3000205374617274436F6E74436F6E762046F4
:100E400061696C210D0A000058EC022443533535CA
:100E500035322D3120496E6974204661696C210D4F
:100E60000A00000010B5040019D0002121709FED88
:100E70000C0A08466170431C04EB8002D8B20328B8
:100E8000516082ED040A82ED070AF4D3FFF75EFF9A
:100E90000449087008B1012000E00220207010BD54
:100EA00000000000DC0200242DE9F041040002D023
:100EB000012C05D01BE0002001270426412504E079
:100EC000022041F2410503270526002100F0C8FB5E
:100ED00078B14FF00071384600F0C2FB60B129468E
:100EE000304600F0BDFB50B10120BDE8F08100208C
:100EF000FBE705A0214604E00CA0214601E015A077
:100F0000214610F0B1F8F2E7435335353532204928
:100F10006E69743A2043482575204F5320777269D3
:100F20007465206661696C65640D0A00435335354C
:100F3000353220496E69743A20434825752047416F
:100F4000494E207772697465206661696C65640D2D
:100F50000A00000043533535353220496E69743A32
:100F6000204348257520434F4E565F434F4E462041
:100F70007772697465206661696C65640D0A0000AA
:100F800091B100EE101ADFED0A1A00EE900AB8EEE9
:100F9000402A9FED081AF8EEE00A81EE820A20EE60
:100FA000800A20EE010A70479FED030A7047000097
:100FB00000401C4500000034000000000A4910B544
:100FC0000A480B68002243F08074094B0C604260B1
:100FD000016841F001010160064807490068B0FB63
:100FE000F3F0886010BD0000FCED00E0001000E0B0
:100FF00040420F00DC030024DC020024002811D052
:1010000009498A68002A0DD04FF0FF31B1FBF2F197
:10101000884200D90846054950434A684B689B1AE4
:101020008342FBD370470000DC020024001000E084
:101030002DE9FC41404C0126A07848B908233F4ADD
:1010400004F11000011F02600B8042604E80A67008
:101050000025394F6078FF1C3D54FFF76FFEFFF706
:10106000ADFF00F063FA06204FF0004100F0F8FAFF
:1010700078B3322006F0E0FF0020FFF715FF0028CC
:101080002ED00120FFF710FF002829D006204FF4B2
:10109000803100F0E5FA00281ED02949072000F031
:1010A000DFFA00281ED008204FF4003100F0D8FAF3
:1010B000002819D006206946009500F0CBF90028D9
:1010C00014D0009911F0060F12D01EA00FF0CCFF23
:1010D00005E0FFE727A000E031A00FF0C5FF0020EA
:1010E000BDE8FC8139A0F8E743A0F6E74DA0F4E79E
:1010F0000720019501A900F0ADF9A0B1002000F092
:1011000001F990B1022000F0FDF880B1142006F042
:1011100093FF06204FF4820100F0A2FA48B16078F4
:101120003E540120DCE74AA0D7E755A0D5E75EA0F2
:10113000D3E767A0D1E70000DC020024000C0258CE
:101140001002118043533535353220496E69743AA7
:10115000206572726F7220666C61677320736574AC
:101160002C205359535F434F4E46303D253038585D
:101170000D0A000043533535353220496E69743A03
:10118000205245475F5359535F434F4E46302077B7
:1011900072697465206661696C65640D0A000000FF
:1011A00043533535353220496E69743A20524547EC
:1011B0005F5359535F434F4E463020636C656172F5
:1011C000206661696C65640D0A0000004353353583
:1011D000353220496E69743A205245475F5359535E
:1011E0005F434F4E463120777269746520666169AE
:1011F0006C65640D0A0000004353353535322049D3
:101200006E69743A205245475F5359535F434F4EBE
:101210004632207772697465206661696C65640D79
:101220000A00000043533535353220496E69743A5F
:10123000205245475F5359535F434F4E463020720B
:10124000656164206661696C65640D0A00000000D8
:1012500043533535353220496E69743A205245473B
:101260005F5359535F434F4E46312072656164624C
:1012700061636B206661696C65640D0A00000000A3
:1012800043533535353220496E69743A204348302E
:10129000206F66667365742063616C206661696C9B
:1012A00065640D0A0000000043533535353220498E
:1012B0006E69743A20434831206F66667365742006
:1012C00063616C206661696C65640D0A0000000052
:1012D00043533535353220496E69743A20524547BB
:1012E0005F5359535F434F4E463020656E61626CC9
:1012F0006520636865636B73756D206661696C65F5
:10130000640D0A002DE9F041032886B03FD800F0B3
:101310000300842141EA0010FFF7FCFC0446FFF7BC
:10132000E9FC20460CF0E8FC50B14FF4FA6506F0F9
:10133000C3FFDFF8688000264FF40067044608E02A
:10134000FFF7C8FC23E000BF06F0B6FF001BA84271
:10135000F6D83946404606F097FF0028F4D13946C2
:10136000404606F091FF0EA04FF47A720523D0E9B3
:1013700000100496CDE902060B48CDE9002103AA2E
:1013800001A909F033FA0446FFF7A4FC1CB10020C0
:1013900006B0BDE8F0810120FAE70000000802581D
:1013A000FFFFFFFFFF0000004008002410B51C46AF
:1013B000130016D000F0010204B12270012906D8F2
:1013C0008A4204D0034609A00FF04EFE09E0411006
:1013D00001F10052B2F1804F05D3024611A00FF087
:1013E00043FE002010BD0120196010BD4353353568
:1013F000353220414443206368616E6E656C206D18
:1014000069736D61746368206578703D2575206728
:101410006F743D2575207261773D30782530386CCA
:10142000580D0A0043533535353220414443206F6F
:101430007574206F662072616E67652076616C3D01
:10144000256C64207261773D30782530386C580DFA
:101450000A0000000A2810B503D811B100F006F800
:1014600008B1002010BD012010BD000070B586B08D
:101470000C004FF0000103910491019102912AD0D8
:1014800000F00F00042101EBC000FFF743FCFF2236
:101490008DF80C0023488DF80D208DF80E208DF866
:1014A00010208DF80F208DF811204178C01C405C71
:1014B00008B1062500E00525FFF71CFC4FF47A7003
:1014C0000090194801AA03A92B4609F08FF9064696
:1014D000FFF700FC16B1012006B070BD062D12D139
:1014E0009DF805009DF806309DF807109DF808202E
:1014F0001844114408449DF809105A30C0B2814282
:1015000001D00220E8E7BDF805109DF807004ABAAF
:101510009DF80810120442EA0020084320600020D1
:10152000DAE70000DC0200244008002410B5FFF7D1
:10153000E1FB0520FFF762FD00200CF0DDFBA5209C
:101540000CF0DAFBFF200CF0D7FB5A200CF0D4FB98
:10155000FFF7C0FBBDE81040022006F06DBD0000A3
:10156000012800D90020014948707047DC0200249E
:10157000032810B501D9002010BD00F0030082211E
:1015800041EA0010FFF7C6FB0446FFF7B3FB0A2051
:10159000FFF734FD20460CF0AFFB30B11420FFF70D
:1015A0002DFDFFF797FB012010BDFFF793FB02A075
:1015B0000FF05AFDDFE70000436F6E74436F6E76E5
:1015C0003A20636D642073656E64206661696C65A2
:1015D000640D0A001E487CB50078002833D0002036
:1015E000FFF7BEFF0A206946FFF734FF194C58B3D6
:1015F00000980023012101AA450FFFF7D7FE00281C
:1016000021D0022D1FD0032D1DD0042D1BD0052D60
:1016100019D00098411C16D0811C14D0002812D07B
:10162000A068401CA060019840218011FFF7A8FC31
:10163000094806F0E1F9DFED090A012020EE200A51
:1016400084ED010A20707CBDE068401CE0607CBD38
:10165000DC02002400000024A806002400007A44D4
:1016600030B50A280C4687B025D80007400EFFF792
:1016700051FB8DF80C00210E8DF80D10220C002569
:101680008DF80E20230A8DF80F308DF81040059547
:101690000695FFF72FFB4FF47A700090084805235A
:1016A00005AA03A909F0A2F80446FFF713FB0A20D4
:1016B000FFF7A4FC14B1002007B030BD0120FBE708
:1016C000400800240B49097B11B1022903D004E032
:1016D0000948807801E00948007828B1012805D040
:1016E000022805D100F00CB800F096BC00F044BA16
:1016F000704700000446002418460024E4A2002499
:101700002DE9FC5FEB4D4FF0020BEB4B4FF0000867
:10171000EA49D5ED050A93ED1A3AE94A1C46E94E25
:1017200003F51277DFF8A0934FF0010533EE601A4E
:1017300094F800C0D1ED1B3AD2ED091AE348BCF190
:10174000400F96F85510E24AD9ED092A93ED2C0A7C
:10175000B7EE002AB0EEC11A7ED00BDCDFF874A31E
:10176000ACF1310CBCF1050F47D2DFE80CF0464676
:101770000D0DF900BCF1470F6FD0BCF1480F6CD0D4
:10178000BCF1500F39D145E1F0EE620A394604F060
:10179000F4FBCE4A0028D049D048A2F15C0216D012
:1017A00091ED170AD0ED070A176EB8EE400A70EEF9
:1017B000820AD1F864C020EE200ABCEEC00A10EE06
:1017C000103A3B44634502D396F85530B3B191EDDE
:1017D000170AD0ED070A4B6EB8EE400A70EE820A87
:1017E000126E20EE200ABCEEC00A10EE101A114450
:1017F0009942B9D296F85510D1B145E19AF80B202B
:10180000012A0ED084F8E250857094ED100A80ED24
:10181000010AA178017294ED2C0A80ED030A01748B
:1018200017E08AF80BB0602286F8555022702BE141
:1018300084F8E25080F8028094ED100A80ED010AED
:10184000A178017299ED090A80ED030A017494ED03
:101850002C0A80ED050A01E003E021E086F86F50D4
:1018600016E1F4EE433AF1EE10FAC6D111EE100A89
:101870009042C2DA0029C0D184F8E25094F8E50021
:101880000128EDD196A140F2DB2084F8E6509DA21C
:101890009B4BCDE9000101209FA111F0BBFBF3E0C0
:1018A0000029AAD1A04B491E1A4692ED021A1A78B5
:1018B00022B1012A1CD0022A1DD024E071EE601A48
:1018C0001BE000BFB5EEC01AF1EE10FA00D3012103
:1018D00000EE901AF8EEE00A61EEA00AF5EEC00AFA
:1018E000F1EE10FA0FD884F8EA5084F8E2500EE0D6
:1018F00071EE611A01E071EE621AB5EEC01AF1EEF6
:1019000010FAE4DCDEE794F8EA10012912D18749E5
:101910008D70D4ED100AC1ED010A94F802C081F86F
:1019200008C0D3ED010AC1ED030A0A7481ED051A5E
:1019300086F870503946F0EE620A04F01EFB00286B
:101940004CD07BA140F2FE206D4B6EA2CDE9000190
:10195000012071A111F05EFB84F8EAB057E0FFE7C7
:101960009AF80C00DFF8E4A108BB51469AF802008F
:1019700091ED040A20B101280CD0022822D117E0F1
:101980007348394604F0F9FA88B196F8550070B9F1
:1019900070480AE070483946F0EE610A04F0EDFA4A
:1019A00028B196F8550010B96C4818F091F809E084
:1019B0006B483946F0EE620A04F0DFFA10B196F88F
:1019C000550060B1664839469AED030AD9ED090A17
:1019D00004F0D3FA10B196F8550018B154E03B4822
:1019E0005C38E2E75F48857094ED100A80ED010AEB
:1019F000A27802729AED030A80ED030A9AF8022097
:101A000002749AED040A80ED050A86F8715084F894
:101A1000E2503DE0F4EE433A5348F1EE10FA0AD1B9
:101A200011EE103A934206DA29B941788278914250
:101A300005D384F8E2502179012901D024E02571F1
:101A4000DFED4A0A9FED4A1A94ED090A30EE020AC8
:101A500084ED090A0178012902D0022914D10AE093
:101A6000D0ED011A09E000BF86F8555084F80480D3
:101A700084ED091A08E0D0ED021A61EEA00AB4EE76
:101A8000E00AF1EE10FAEFDA94F8E20001280ED144
:101A9000207800280BD084F8008002B0064A09485C
:101AA000BDE8F05F08323349553010F067BCBDE83F
:101AB000FC9F00007C3C002418460024C03F00240A
:101AC000803D00242C5F0024503E0024004F002461
:101AD0006F12833A044600241C4200243C01002477
:101AE000656D657267656E63795F73746174652E89
:101AF000636F6D706C657465203D3D20310D0A008B
:101B0000CFD401082E2E5C486F73745C636F6E74C3
:101B1000726F6C2E630000004672656552544F531D
:101B20005F5441470000000084B300243CB500240A
:101B3000444F50455472696720455854454E206CB7
:101B4000696D69742061727269766500E4A200248F
:101B500020010024644D002428010024044E0024A8
:101B60003001002458B500241443002400007A44B6
:101B70000000000090B300242DE9FC5FF14C4FF011
:101B8000020BF14D4FF00008F04B2146DFF8C0A3E7
:101B900001F512772278D5ED051AEE480125DFF818
:101BA000B893402AED4ED3ED092ADAED090A91EDFA
:101BB000230AB7EE002A7DD008DCA2F13102052A03
:101BC00044D2DFE802F043430C0CF500472A6FD003
:101BD000482A6DD0502A6CD0602A37D17BE1394633
:101BE00004F0CBF9DB4A0028DD49DE48A2F15C02B3
:101BF00016D091ED170AD0ED070A176EB8EE400A1D
:101C000070EE820AD1F864C020EE200ABCEEC00A51
:101C100010EE103A3B44634502D396F85530B3B109
:101C200091ED170AD0ED070A4B6EB8EE400A70EE40
:101C3000820A126E20EE200ABCEEC00A10EE101AC4
:101C400011449942BCD296F85510D1B152E199F89D
:101C50000B20012A0ED084F8E250857094ED100A12
:101C600080ED010AA178017294ED230A80ED030A48
:101C7000017417E089F80BB0602286F85550227085
:101C800038E184F8E25080F8028094ED100A80ED8B
:101C9000010AA17801729AED090A80ED030A017424
:101CA00094ED230A80ED050A86F86F5026E101E0E5
:101CB0001EE0D7E0AC48394604F05FF90028C5D0F3
:101CC00096F855000028C1D184F8E25094F8E50058
:101CD0000128EBD1A5A184F8E6504FF40370AB4B7B
:101CE000ABA2CDE900010120AEA111F093F901E111
:101CF00096F855100029A9D1AE4B491E1A4692ED0F
:101D0000021A1A7822B1012A1CD0022A1DD024E01E
:101D100031EE612A1BE000BFB5EEC01AF1EE10FAF9
:101D200000D3012101EE901AF8EEE11A62EE211AB9
:101D3000F5EEC01AF1EE10FA0FD884F8EA5084F8E4
:101D4000E2500EE031EE602A01E031EE622AB5EE9B
:101D5000C01AF1EE10FAE4DCDEE794F8EA1001298B
:101D600012D195498D70D4ED101AC1ED011A94F875
:101D700002C081F808C0D3ED011AC1ED031A0A743C
:101D800081ED051A86F87050394604F0F6F80028FF
:101D90004DD08AA140F22F207C4B7DA2CDE90001DD
:101DA000012080A111F036F984F8EAB057E0FFE78E
:101DB00099F80C00DFF8209210BB494699F8020010
:101DC00091ED040A20B101280ED0022823D118E099
:101DD00082483946F0EE610A04F0CFF880B196F8F7
:101DE000550068B97E4809E07E48394604F0C5F8D8
:101DF00030B196F8550018B956485C3817F068FEAF
:101E000009E079483946F0EE620A04F0B6F810B1FC
:101E100096F8550060B17348394699ED030ADAED3A
:101E2000090A04F0AAF810B196F8550010B161E063
:101E30006E48E3E76E48857094ED100A80ED010A64
:101E4000A278027299ED030A80ED030A99F8022044
:101E5000027499ED040A80ED050A86F8715084F841
:101E6000E2504BE0394604F088F80028614808D079
:101E700096F8551029B941788278914205D384F8B3
:101E8000E2502179012901D034E02571DFED5A0AB1
:101E90009FED5A1A94ED090A30EE020A84ED090A00
:101EA0000178012902D0022924D10AE0D0ED011ADB
:101EB00009E000BF86F8555084F8048084ED091AC3
:101EC00018E0D0ED021A61EEA00AB4EEE00AF1EEDD
:101ED00010FAEFDA0EE04A490A784A49496E52B3DD
:101EE000494A126929E0394604F047F810B196F8DA
:101EF0005500B8B194F8E200012821D120780028DB
:101F00001ED017F09DFC41490E4A1448083281F852
:101F10000180553084F8008002B03D49BDE8F05F93
:101F200010F02CBA84F8E2503421354889F80B803F
:101F3000FEF77EFAE2E7374A92689142D3D2D9E7B8
:101F4000BDE8FC9F184600247C3C0024503E002441
:101F5000803D0024604E0024044600242C5F0024B1
:101F60003C4000243C01002410010024656D657292
:101F700067656E63795F73746174652E636F6D70EE
:101F80006C657465203D3D20310D0A00B1D4010817
:101F90002E2E5C486F73745C636F6E74726F6C2E60
:101FA000630000004672656552544F535F544147C9
:101FB0000000000084B300243CB50024444F504589
:101FC00054726967204C4F4144206C696D697420DC
:101FD0006172726976650000E4A200242001002489
:101FE000644D00242801002430010024A44E002464
:101FF00058B500241443002400007A440000000077
:10200000B8400024C03F0024EC4000247088032422
:1020100090B30024004100242DE9FC5FFC4CFD48F6
:10202000DFF8F4A3DFF8F493DFF8F4C3FD4FB7EE65
:10203000002AFD4E2246DFF8F4B3012523785C30F8
:10204000D7ED091A96F85510402BDCED092A92EDD0
:102050001A0ADBED050A02F512774FF000087CD072
:1020600008DCA3F13003062B4AD2DFE803F049492C
:10207000491212FD482B06D006DC412B73D0422BAF
:102080006CD0472B3CD1A1E0502B68D0602BF9D10C
:1020900095E10029F6D1394603F06FFFDD4A0028AB
:1020A000E3482ED09AED170AD0ED070A136EB8EE6A
:1020B000400A70EE820ADAF8647020EE200ABCEE64
:1020C000C00A10EE101A1944B9421AD399F80B201D
:1020D000012A0ED084F8E250857094ED100A80ED4C
:1020E000010AA178017294ED1A0A80ED030A0174C5
:1020F00030E0022089F80B0086F8555060222270EB
:102100006CE19AED170AD0ED070A126EB8EE400A9C
:1021100070EE820ADAF8643020EE200ABCEEC00AC3
:1021200010EE101A11449942EAD296F8551000297F
:10213000E6D184F8E25080F8028094ED100A80ED38
:10214000010AA17801729BED050A80ED030A017472
:1021500094ED1A0A80ED050A02E004E018E0EEE0D2
:1021600086F86F503EE1B348394603F006FF002879
:10217000C6D096F855000028C2D199F80C0084F812
:10218000E25094F8E5000128ECD184F8E65029E10A
:10219000A848394603F0F1FE0028B1D096F8550062
:1021A0000028ADD184F8E25094F8E5000128D9D197
:1021B000A1A184F8E6504FF49C70A74BA7A2CDE9EB
:1021C00000010120AAA110F025FF07E1002997D105
:1021D000AB4B491E1A4692ED021A1A7822B1012A17
:1021E0001CD0022A1DD024E031EE602A1BE000BF83
:1021F000B5EEC01AF1EE10FA00D3012101EE901AEB
:10220000F8EEE11A62EE211AF5EEC01AF1EE10FABC
:102210000FD884F8EA5084F8E2500EE031EE622ADA
:1022200001E031EE612AB5EEC01AF1EE10FAE4DCFD
:10223000DEE794F8EA10012912D192498D70D4EDAD
:10224000101AC1ED011A94F802C081F808C0D3ED4C
:10225000011AC1ED031A0A7481ED051A86F870504F
:10226000394603F08AFE00E010E000284CD086A139
:1022700040F25B10784B79A2CDE9000101207CA1EE
:1022800010F0C8FE022084F8EA0055E099F80C002E
:10229000DFF8109208BB494699F8020091ED040A54
:1022A00020B101280CD0022822D117E07E483946FF
:1022B00003F063FE88B196F8550070B955480AE0FE
:1022C0007A483946F0EE620A03F057FE28B196F8D4
:1022D000550010B9764817F0FBFB09E07548394600
:1022E000F0EE610A03F049FE10B196F8550060B1B6
:1022F0006D48394699ED030ADBED090A03F03DFE0E
:1023000010B196F8550010B168E06B48E3E76B48F0
:10231000857094ED100A80ED010AA278027299EDA1
:10232000030A80ED030A99F80220027499ED040A69
:1023300080ED050A86F8715084F8E25052E09AED7B
:102340001B1ADFF87C91B4EE401AF1EE10FA0CD1B2
:1023500059B999F8012099F802108A4209D33946EF
:1023600003F00BFE08B184F8E2502079012801D077
:1023700034E02571DFED530A9FED531A94ED090AFD
:1023800030EE020A84ED090A99F80010012902D002
:10239000022923D109E0D9ED011A08E086F8555049
:1023A00084F8048084ED091A18E0D9ED021A61EE70
:1023B000A00AB4EEE00AF1EE10FAEFDA0EE04349BB
:1023C0000A781549496E12B3414A126992E03946BA
:1023D00003F0D3FD10B196F85500B8B194F8E200BF
:1023E00001287BD12078002878D017F08BFA394962
:1023F000074A0D48083281F80180553084F8008082
:1024000002B03549BDE8F05F0FF0B8BF67E06FE09C
:1024100018460024644D0024C03F002404460024D4
:10242000803D0024503E00242C5F00247C3C00248E
:102430003C01002408010024656D657267656E63C8
:10244000795F73746174652E636F6D706C6574650C
:10245000203D3D20310D0A0094D401082E2E5C4809
:102460006F73745C636F6E74726F6C2E6300000028
:102470004672656552544F535F5441470000000057
:1024800084B300243CB50024444F5045547269671E
:1024900020504F53206C696D6974206172726976A7
:1024A00065000000E4A2002420010024280100248B
:1024B000044E002430010024A44E002458B500240A
:1024C0001443002400007A4400000000B8400024B7
:1024D000EC400024D887032490B300240EE084F855
:1024E000E2503421064889F80B80FDF7A1FF79E717
:1024F000044A92689142BFF46AAF6FE7BDE8FC9F5F
:10250000B8400024004100244F4B2DE9F00F93F810
:10251000550001287ED14D4A00214D489FED4D0ABE
:1025200093F856804C4C8378B8F1000F06781779F1
:1025300092F803C0158A06D0B8F1010F0AD0B8F19D
:10254000020F72D077E0C3708770467080F800C0C9
:10255000058153E0DFF804A19AF869905FEAC97831
:102560005FD0C3700AF10D079AF80030554613F892
:1025700007C00A3F80F802C046700AF11706DF5D07
:1025800007709F5D0A36D7719F5D0A3617729F5D8F
:102590000A36577205EB430713F806C0B7F84060D8
:1025A00082F830C3B7F85470D78105EB83075B1C02
:1025B000D7ED250AC2ED070AD7ED390AC2ED0E0A9A
:1025C000D7ED430AC2ED0F0AD7ED2F0AC2ED0A0A72
:1025D000D7ED1B0AC2ED0D0AD7ED4D0AC2ED100A68
:1025E000D7ED570AC2ED110AC2EDCD0AD7ED610A47
:1025F000C2EDCE0A16828AF80030068180F8E21019
:102600000171C0F84812C0F84C12C0F85012C0F85E
:10261000541201E014E008E084ED030A84ED020A9C
:1026200009E0B9F1020F8ED005E0C3704021877038
:102630004670017005810078BDE8F00F17F0D2BA3E
:10264000BDE8F00F704700002C5F0024C84800244C
:1026500018460024000000005C00002490B3002411
:10266000084E012500244FF46177B57004F0E8FBB3
:10267000601CBC4284B200D30024012015F0A4FEEB
:10268000F3E700003801002420EE801ABCEEC11AE6
:10269000F8EE411A81EE801A70EEC10A9FED031A1E
:1026A00060EE810A20EE800A0EF0C6BDDB0FC94045
:1026B000F8B5AB4A0021AB4CADF80010AA4892ED3A
:1026C000050AAA4B84ED000A90ED080AA84D84ED96
:1026D000010AD3ED0A0A9FEDA70AC4ED020AA64833
:1026E000D5ED050AC4ED030A84ED040A0688A34863
:1026F00006F03F07A782C6F38716E6820679C778F9
:1027000090F802C0B60106EB4717467807EB0C1CA1
:1027100007780CEBC60690F805C0807906EB8706B3
:1027200006EB4000964E6044208361832177707AE7
:1027300060779448B67AA677067F077CF60006EBAA
:102740008706077906EB470686F00F06E67790F8CE
:10275000406090F8287090F83400F60006EB800096
:1027600000EB470080F00F0084F82000864861628B
:10277000D0ED090AC4ED0A0A84ED0B0A84ED0C0AB7
:1027800084ED0D0A84ED0E0A1068E0637F4800684E
:102790002064186860642868C4E912017C4890EDE0
:1027A0001C0A7C4884ED140A90ED1C0A7A4884EDDA
:1027B000150A90ED1C0A794884ED160A02468179C3
:1027C00092ED020A012901D0B1EE400ABCEEC00A26
:1027D000DFED730A734A6B4684ED170A90ED040A25
:1027E0000020B8EEC00A80EE201A84ED181A216885
:1027F0000DF0BDFE6B4A002061686B460DF0B7FE20
:10280000684A0020A1686B460DF0B1FE654A0020C1
:10281000E1686B460DF0ABFE624A002021696B4611
:102820000DF0A5FEA18A02205E4A6B460DF09FFEC8
:10283000E18A02205B4A6B460DF099FE218B022053
:10284000584A6B460DF093FE618B0220554A6B4649
:102850000DF08DFE217F0320524A6B460DF087FE5E
:10286000617F03204F4A6B460DF081FEA17F03205C
:102870004C4A6B460DF07BFEE17F0320494A6B46D4
:102880000DF075FE94F820100320464A6B460DF0BB
:102890006EFE444A0120616A6B460DF068FE414AB3
:1028A0000020A16A6B460DF062FE3E4A0020E16AFC
:1028B0006B460DF05CFE3B4A0020216B6B460DF031
:1028C00056FE384A0020616B6B460DF050FE354ACB
:1028D0000020A16B6B460DF04AFE324A0120E16BED
:1028E0006B460DF044FE2F4A0120216C6B460DF023
:1028F0003EFE2C4A0120616C6B460DF038FE294AE1
:102900000120A16C6B460DF032FE264A0120E16CDD
:102910006B460DF02CFE234A0020216D6B460DF016
:1029200026FE204A0020616D6B460DF020FE1D4AF8
:102930000020A16D6B460DF01AFE1A4A0020E16DD1
:102940006B460DF014FE174A0020216E6B460DF009
:102950000EFE1449A022BDF8000018F009F9F8BDD8
:102960007C3C00241CA200242CEC0224503E0024B9
:10297000843E002400000000B83A0224C001002474
:1029800004460024403B0224B03C0024803D002447
:10299000C03F00243C4000241C420024603C002432
:1029A00000007A442C45002401220248110305F05E
:1029B00078BC00000004025838B50021DFED260A7B
:1029C00000914FF400422549B6EE001AB1F900100B
:1029D0000844002812DD00EE100AB8EEC00AC0EE6E
:1029E000201A31EE810ABCEEC00A10EE100A80B245
:1029F000904200D3501E40F4004013E0404200EEED
:102A0000100AB8EEC00AC0EE201A31EE810ABCEE00
:102A1000C00A10EE100A81B2914200D91146C1F5E8
:102A2000004080B20E4D4FF48054010A8DF8001022
:102A3000002221468DF80100284605F032FC0948A5
:102A400002224FF47A73694607F0B4FD0122214651
:102A5000284605F026FC38BD01504340DA02002428
:102A600000040258B80700241B484FF4804110B5F9
:102A700005F00AFC1949012200F062F8184C4FF4E5
:102A80008061204605F000FC14490122183100F055
:102A900057F84FF48071204605F0F6FB0F490122EC
:102AA000303100F04DF80D48483890F8302090F85B
:102AB0007830017E540190F8602004EB0314037811
:102AC00004EBC10490F8481004EB820202EB4302CD
:102AD0001144A0F8901010BD001002586C3A022466
:102AE000000C02581549002210F8183B0B718A603F
:102AF000CA6010F804390B744A618A61037F0B774E
:102B00000A624A6290F8342081F82820426CCA6236
:102B1000826C0A6390F84C2081F83420C26D8A637D
:102B2000026ECA6390F8642081F84020426F4A64C4
:102B3000826F8A6490F87C0008707047403B0224E2
:102B40002DE9F04115460C4606461AF075FA012D9E
:102B500001D0012300E0002394F801C03049BCF10A
:102B6000000F0BD002270022BCF1010F14D0BCF1E2
:102B7000020F29D0BCF1030F4FD135E0E76862693D
:102B80002370C31B1A4462618A4200D96161AE425C
:102B9000E06042D1012124E0D4F80CE0D4F814C064
:102BA0002370A0EB0E03634463618B4200D9616123
:102BB0006168E060411A0F292FD9AE42626001D1ED
:102BC000A06029E0627028E0A76822692570C51B13
:102BD0002A4422618A4200D921619E42A0601CD110
:102BE00003216060617018E0D4F808E0D4F810C0E8
:102BF0002570A0EB0E05654425618D4200D9216149
:102C00006168A060401A0F2807D99E42626003D114
:102C100062702261A26000E067702078BDE8F081F8
:102C200000286BEE2DE9F0414A4C0121204605F0C9
:102C30002BFB49490022FFF783FF0221204605F0C4
:102C400023FB454900221831FFF77AFF4348022150
:102C500005F01AFB404900223031FFF771FF404D6B
:102C60008021284605F010FB3B4900224831FFF740
:102C700067FF4FF480762846314605F005FB36495C
:102C800000226031FFF75CFF37012846394605F026
:102C9000FBFA314900227831FFF752FF3946314FB4
:102CA000384605F0F1FA2C4900229031FFF748FF31
:102CB000F100384605F0E8FA27490022A831FFF76D
:102CC0003FFF3146384605F0DFFA23490022C03184
:102CD000FFF736FF7100204605F0D6FA1E490022A4
:102CE000D831FFF72DFF0221284605F0CDFA1A4909
:102CF0000022F031FFF724FF174890F8F02090F8F9
:102D0000D85090F8C03090F8A810960206EB4527EE
:102D100090F8902007EB032390F8784003EBC11163
:102D200090F8605090F8486001EB821190F8307094
:102D300001EB441190F818C001EB051110F8D23BDB
:102D400001EBC60101EB870101EB4C011944C1867F
:102D5000BDE8F08100080258183902240004025826
:102D600000100258000002582DE9F0471348164A97
:102D7000134F00F12801174C144EDFF868800760EC
:102D8000104BDFF858A0C660114DC0E90132DFF8E2
:102D90005090C0E90454DFF840C0C0E90898C0E989
:102DA00006CA0F60CE60C1E90132C1E90454C1E92D
:102DB0000898C1E906CABDE8F0870000203F00245A
:102DC000752E0008792E0008E12E0008492F000812
:102DD000B12F0008193000085D3000085F3000088E
:102DE00061300008633000081E4870B51E4C90F832
:102DF0004D0001280CD11D490020A4F12802431CDC
:102E00000D5C52F8255044F82050D8B20A28F6D369
:102E1000216817488847164861680C30884714486D
:102E2000A168183088471248E16824308847104864
:102E30002169303088470E4861693C3088470C482A
:102E4000A169483088470A48E169543088470848F2
:102E5000216A603088470648616ABDE870406C307E
:102E6000084700002C5F0024483F002418A30024DA
:102E7000BC3A02247047000070B505461548164C50
:102E8000002190F86420012A04D090F86A20012AD9
:102E900007D00AE080F86410E06894ED010A8047EA
:102EA00003E080F86A10A06980470C4EB0780128D2
:102EB00001D038B10BE0287848B9E06894ED010AF8
:102EC000804704E02878012801D1A069804728784C
:102ED000B07070BD2C5F0024703F0024A800002457
:102EE00070B505461548164C002190F86620012A59
:102EF00004D090F86A20012A07D00AE080F8661012
:102F0000206994ED010A804703E080F86A10A06907
:102F100080470C4EF078012801D038B10BE02878BA
:102F200048B9206994ED010A804704E02878012817
:102F300001D1A06980472878F07070BD2C5F002413
:102F4000703F0024A800002470B505461548164CB3
:102F5000002190F86520012A04D090F86A20012A07
:102F600007D00AE080F86510E06894ED020A804717
:102F700003E080F86A10A06980470C4E3079012880
:102F800001D038B10BE0287848B9E06894ED020A26
:102F9000804704E02878012801D1A069804728787B
:102FA000307170BD2C5F0024703F0024A800002405
:102FB00070B505461548164C002190F86720012A87
:102FC00004D090F86A20012A07D00AE080F8671040
:102FD000206994ED020A804703E080F86A10A06936
:102FE00080470C4E7079012801D038B10BE0287869
:102FF00048B9206994ED020A804704E02878012846
:1030000001D1A06980472878707170BD2C5F0024C1
:10301000703F0024A800002470B505460C480D4CF4
:1030200090F86910012906D1002180F869106069C3
:1030300094ED020A8047084EB079012805D128781E
:1030400018B9606994ED020A80472878B07170BDA4
:103050002C5F0024703F0024A800002470477047B4
:10306000704770473549037E354A0B74836A4B615C
:10307000C36A8B6190F830300B77036C0B62436C42
:103080004B6290F8483081F82830836DCB62C36D75
:103090000B6390F8603081F83430036F8B63436FBB
:1030A000CB6390F8783081F84030D0F888304B64AA
:1030B000D0F88C308B6490F8903081F84C30D0F898
:1030C000A0300B65D0F8A4304B6590F8A83081F89B
:1030D0005830D0F8B830CB65D0F8BC300B6690F8DB
:1030E000C03081F86430D0F8D0308B66D0F8D4305E
:1030F000CB6690F8D83081F87030D0F8E8304B6764
:10310000D0F8EC308B6790F8F03081F87C30D0F854
:103110000031C1F88030D0F80431C1F88430127821
:103120004AB1012A06D1074AB0F80801927962F340
:10313000050008807047B0F80801FAE7B83A0224A1
:10314000703F0024C8010024F0B50E494F230E4CF7
:1031500000250E480122CB70637981F86430A7798D
:10316000012BE67905EB072434440C8207D0022BAF
:1031700004D1022180F8561080F85520F0BD80F867
:103180005620F9E7C848002420DC02242C5F0024E4
:103190000A484E220A4970B5C2704D7980F86550D0
:1031A0008C794FF4D67180F866400648FDF740F9F7
:1031B000044880F8685080F8694070BDC848002411
:1031C00020DC022490B3002470B5994C502199481A
:1031D000E17041792171C1798379057A427A0904D4
:1031E00002EB036201EB052111442162C17A837A6B
:1031F000057B427B090402EB036201EB05211144CC
:10320000E162C17B837B057C427C090402EB0362A3
:1032100001EB05211144A164C17C837C057D427DC5
:10322000090402EB036201EB052111446162C17DD7
:10323000837D057E427E090402EB036201EB0521DA
:1032400011442163C17E837E057F427F090402EB26
:10325000036201EB05211144E164817FA17290F8C2
:103260002010C37F90F8215090F82220090402EB2F
:10327000036201EB05211144E16190F8241090F8FC
:10328000262090F8233090F82550090402EB0362C1
:1032900001EB05211144A16290F8281090F8270055
:1032A00001EB0020208264480078502807D1634950
:1032B0004FF44F722046FDF7EBF800287DD02079BF
:1032C00020B101287AD0022818D1AEE05C488EE007
:1032D00084ED070A9EE000BFD4ED080AB4EEE00AD0
:1032E000F1EE10FA01D284ED080AD4ED090AB4EE29
:1032F000E00AF1EE10FA01D284ED090A51480021EA
:10330000A27A827094ED0A0A80ED060A94ED0B0A07
:1033100080ED070A94ED0C0A80ED080A94ED070A87
:1033200080ED030A94ED080A80ED040AD4ED090A41
:10333000C0ED050AD4ED120AC0ED010AD4ED130A5E
:10334000C0ED020AB7EEC00A017041703EA053EC16
:10335000102B0DF089FE94ED0B0A3EA0B7EEC00ACB
:1033600053EC102B0DF080FE94ED120A3EA0B7EE48
:10337000C00A53EC102B0DF077FE94ED090A3DA026
:10338000B7EEC00A53EC102B0DF06EFE94ED0C0A54
:103390003BA0B7EEC00A53EC102B0DF065FE94ED88
:1033A000130A3CA0B7EEC00A53EC102B0DF05CFEE4
:1033B000A17A3BA00DF058FE01E016E016E094ED76
:1033C000070A3AA0B7EEC00A53EC102B0DF04CFEE2
:1033D00094ED0A0A38A0B7EEC00A53EC102B0DF09A
:1033E00043FE3A49012081F8550070BD384890ED00
:1033F000130A84ED0E0AF1EE400AC4ED0F0A00BF75
:1034000090ED140AD4ED070AB4EEE00AF1EE10FADA
:10341000FFF45EAFD4ED070AB4EEE00AF1EE10FA65
:10342000BFF45AAF84ED070A56E72A48E8E70000E0
:10343000C848002420DC022418460024E09E002412
:10344000644D0024144300245370656564313D25A8
:10345000660D0A0044657374696E6174696F6E313C
:103460003D25660D0A00000048616C74313D2566FB
:103470000D0A00005370656564323D25660D0A0033
:1034800044657374696E6174696F6E323D25660DB3
:103490000A00000048616C74323D25660D0A000088
:1034A0004379636C65733D25640D0A00537065654F
:1034B000643D25660D0A000044657374696E61748D
:1034C000696F6E3D25660D0A000000002C5F002428
:1034D000044E0024A44E0024F8B5214A0A212148B4
:1034E000D170C6798479417A057A3604437901EB43
:1034F0000461807A06EB0524214423B1012B0FD00F
:10350000022B1BD11FE000EE101A82ED5D0AB7EE10
:10351000C00A82F87801009013A053EC102B0BE046
:1035200000EE101A82ED7A0AB7EEC00A82F8EC01BA
:10353000009015A053EC102B0DF096FD1B490120B7
:1035400081F86200F8BD00EE101A82ED970AB7EE1E
:10355000C00A82F86002009015A053EC102BEBE734
:10356000C848002420DC0224506F73204465616445
:1035700062616E643A25662050657263656E7450B0
:103580003A256425250D0A004C6F6164204465616D
:103590006462616E643A25662050657263656E747C
:1035A000503A256425250D0A000000002C5F0024F8
:1035B000457874204465616462616E643A256620D2
:1035C00050657263656E74503A256425250D0A00B6
:1035D0002DE9FC41304801243049314D42790A71CE
:1035E000C379467A8779007A4FEA034306EB076688
:1035F00003EB0020304422B1012A19D0022A2FD136
:1036000032E000EE100A274881ED5F0AF1EE400A31
:10361000C1ED600AB7EEE01A80ED130A85F82D407F
:1036200021A0B7EEC00A8DED001B53EC102B15E066
:1036300000EE100A234881ED7C0AF1EE400AC1ED4C
:103640007D0AB7EEE01A80ED130A85F82E401EA021
:10365000B7EEC00A8DED001B53EC102B0DF004FDEE
:1036600085F86240BDE8FC8100EE100A1D4881ED3E
:10367000990AF1EE400AC1ED9A0AB7EEE01A80ED20
:10368000130A85F82F4018A0B7EEC00A8DED001B75
:1036900053EC102BE2E7000020DC0224C848002491
:1036A0002C5F0024644D0024506F732044656661D4
:1036B000756C744163633A2566204465633A2566F8
:1036C0000D0A0000044E00244C6F616420446566BE
:1036D00061756C744163633A2566204465633A25DD
:1036E000660D0A00A44E0024457874204465666186
:1036F000756C744163633A2566204465633A2566B8
:103700000D0A00001A480F221A49F0B5C2704B7911
:103710000371CD79002B8C794A7A0E7A4FEA0545F0
:1037200091F80BE002EB04624F7B91F80AC005EBC5
:103730000624097B4FEA0E4E07EB0C650EEB0126C3
:1037400002EB040105EB060204D0012B05D0022B8D
:1037500008D105E0C0E9621204E0C0E97F1201E08F
:10376000C0E99C120449012081F86200F0BD00000C
:10377000C848002420DC02242C5F00242DE9F041FD
:103780008F4C60228F480021E270427984F8D42265
:10379000827984F8D022C27984F8D122027A84F81E
:1037A000D222437A84F8D332877AC37A057B01EB3D
:1037B0000761467B01EB034101EB05213144C4F86D
:1037C000F012817B0023C57B067C03EB0161477C03
:1037D00001EB054101EB06213944C4F8F412817C68
:1037E000C57C067D03EB0161477D01EB054101EBE3
:1037F00006213944C4F8D812817DC57D067E03EBCD
:103800000161477E01EB054101EB0621394400EEE1
:10381000101A1946B8EE400A84EDB70A877EC37EB7
:10382000057F01EB0761467F01EB034101EB0521B9
:10383000314400EE101A0021B8EE400A84EDB80AB7
:10384000877FC37F90F8205001EB076190F82160DB
:1038500001EB034101EB05213144C4F8E41290F877
:103860002210002390F8237090F8245003EB01619C
:1038700090F8256001EB074101EB0521314484F804
:10388000D51290F8261090F8275090F8286003EB96
:10389000016190F8297001EB054101EB06213944E3
:1038A000C4F8E81290F82A7090F82B1090F82C5079
:1038B00090F82D6003EB076000EB014000EB052062
:1038C0003044C4F8EC02404822710078602807D1E7
:1038D0003E494FF44F722046FCF7DAFD00286CD0C9
:1038E0003BA00DF0C1FB94F8D4123EA004F5347453
:1038F0000DF0BAFB217840A00DF0B6FB617841A035
:103900000DF0B2FBA17843A00DF0AEFBE17846A02C
:103910000DF0AAFB94ED080A4AA0B7EEC00A53ECDA
:10392000102B0DF0A1FB94ED090A4BA0B7EEC00AD5
:1039300053EC102B0DF098FB94ED020A49A0B7EE62
:10394000C00A53EC102B0DF08FFB94ED030A49A035
:10395000B7EEC00A53EC102B0DF086FB94ED040A71
:103960004BA0B7EEC00A53EC102B0DF07DFB94ED8D
:10397000050A4EA0B7EEC00A53EC102B0DF074FBF5
:1039800061794EA00DF070FB94ED060A4FA0B7EEE2
:10399000C00A53EC102B0DF067FB94ED070A51A001
:1039A000B7EEC00A53EC102B0DF05EFB524A00211B
:1039B0000120D172514981F85500BDE8F081000025
:1039C000C848002420DC022418460024E09E00247D
:1039D000636F6D6D4275662E706764796E3A0D0A7D
:1039E0000000000077617665666F726D3D30782566
:1039F00032780D0A000000006D6F646966793D251C
:103A0000640D0A007065616B6374726C3D25640D12
:103A10000A0000006D6F76656374726C3D30782526
:103A200032780D0A0000000072656C617469766579
:103A300064657374696E6174696F6E3D25640D0A07
:103A4000000000007370656564746F737461727454
:103A50003D25660D0A0000006F66667365743D259E
:103A6000660D0A00616D706C69747564653D25664C
:103A70000D0A000068616C746174706C7573616D1F
:103A8000706C69747564653D25660D0A0000000060
:103A900068616C7461746D696E7573616D706C6969
:103AA000747564653D25660D0A00000066726571D7
:103AB00075656E63793D25660D0A000068616C6668
:103AC0006379636C65733D25640D0A0073706565E9
:103AD00064746F64657374696E6174696F6E3D259B
:103AE000660D0A0064657374696E6174696F6E3D7A
:103AF00025660D0A00000000044600242C5F002407
:103B0000514AF0B5D07A002832D1504801235049AB
:103B10000225504E332490F802C091EDBD0AD1ED3C
:103B2000BB0ABCF1000F24D0BCF1010F4FF07C5751
:103B30004BD0BCF1020F1BD1474991ED1B1A70EE1F
:103B4000411AF0EEE11A11EE90CAB44568DA434E1C
:103B5000D6ED091A31EE611AB0EEC11A11EE106AF3
:103B6000BE425DDAD572C0ED2C0A00BFC1ED0B0A72
:103B7000F0BD3B4991ED1B1A70EE411AF0EEE11ACF
:103B800011EE907AB7420FDA364E374FD6ED051A5E
:103B900031EE611AB0EEC11A11EE106ABE4203DABC
:103BA000D572C0ED1A0AE1E7D372047080ED1A0AEB
:103BB00081ED0B0A90ED3F0A81ED090A90ED3D0A77
:103BC00081ED050A90ED3E0A3AE0284991ED1B1A75
:103BD00070EE411AF0EEE11A11EE90CAB4450EDA19
:103BE000234ED6ED091A31EE611AB0EEC11A11EE6C
:103BF000106ABE4203DAD572C0ED230AB6E7D3726B
:103C0000047080ED230A81ED0B0A90ED5C0A81EDD2
:103C1000090A90ED5A0A81ED050A90ED5B0A0FE062
:103C2000D372047080ED2C0A81ED0B0A90ED790AB5
:103C300081ED090A90ED770A81ED050A90ED780A89
:103C400081ED060AF0BD0000044600241846002459
:103C5000C84800246F12833A1C420024503E0024BE
:103C6000C03F00247C3C00240AD7233C3C40002475
:103C7000803D002470B5204C172220482DED028B8A
:103C8000E2704179217100218679C579037A01EBCF
:103C90000661467A01EB0541C57A01EB0321837A7F
:103CA0003144067B08EE101A002101EB0361437BCF
:103CB00001EB054000EB06201D18114884ED748AC5
:103CC0000121C4F8D45180F861100EA011460DF006
:103CD000CBF9217914A00DF0C7F9B7EEC80A16A0E8
:103CE00053EC102B0DF0C0F9BDEC028B294615A04A
:103CF000BDE870400DF0B8B9C848002420DC0224AB
:103D00002C5F0024436F6D6D616E643D3078253209
:103D10007820444F504546454544464F52574152FE
:103D200044090D0A000000004D6F76654374726C03
:103D30003D2564090D0A00004646503D2566090DE3
:103D40000A00000044656C61793D2564090D0A0094
:103D5000254A00232549F0B54125D5704C791471C9
:103D60008E79CF7991F808C003EB066391F809E0EA
:103D700003EB07431E4803EB0C23734400EE103A99
:103D8000002382ED0E0A8F7ACE7AF1EE400A03EB21
:103D90000721314489B21182C2ED0F0A90F86820E0
:103DA000EAB190F86920D20719D08678C21C00F1D8
:103DB0000D03B5548278D454827800EB820282EDF0
:103DC000390A827800EB8202C2ED430A827800EB66
:103DD0004202A2F840108178491C8170F0BD05496B
:103DE000012081F85500F0BDC848002420DC0224E1
:103DF00090B300242C5F0024254840232549F0B5CA
:103E0000C3704A790271CC79897904EB01218CB2B3
:103E1000048222B1012A04D0022A0BD130E01E49CB
:103E200000E01E4991ED130A80ED0E0AF1EE400A02
:103E3000C0ED0F0A1A4991F868501DB391F8695006
:103E4000ED071FD08F78CD1C01F10D067B558B78C7
:103E50009A558A7890ED0E0A01EB820282ED390ABA
:103E60008A7890ED0F0A01EB820080ED430A887892
:103E700001EB4000A0F840408878401C8870F0BDFD
:103E80000849CFE70849012081F85500F0BD00003E
:103E9000C848002420DC0224644D0024044E002481
:103EA00090B30024A44E00242C5F0024F0B5134AE4
:103EB0000E2113486527134E01254FF47A74124BD7
:103EC000D17041793170867911FB07FEC779417A4B
:103ED00090F808C003EB8E033F0401EB066107EB8B
:103EE0000C263144B1FBF4F19960C17A807A01EB80
:103EF00000201082054880F86250F0BDC8480024B8
:103F000020DC022400010024285700242C5F002418
:103F100070B5284C32212848E1704179A17181792E
:103F20002171017AC379457A827A090402EB03622E
:103F300001EB05211144A163017BC37A457B827BA0
:103F4000090402EB036201EB05211144E161017CEC
:103F5000C07B01EB0020208218480078322807D16E
:103F600017494FF44F722046FCF792FA00281FD0F1
:103F700094ED0E0A13A0B1EE400A84ED0F0A94ED01
:103F8000070AB7EEC00A53EC102B0DF06DF894ED54
:103F90000E0A0FA0B7EEC00A53EC102B0DF064F818
:103FA000A1790EA00DF060F80F49012081F85500AD
:103FB00070BD0000C848002420DC022418460024FC
:103FC000E09E002473706565643D25660D0A00005F
:103FD0006163633D25660D0A000000006469723D5F
:103FE00025640D0A000000002C5F002470B51F4CF2
:103FF00031211F48E1704179A17181792171017AE4
:10400000C379457A827A090402EB036201EB052148
:104010001144E161017BC07A01EB00202082154848
:104020000078312807D114494FF44F722046FCF72D
:104030002FFA002817D0207920B1012804D00228B7
:1040400007D111E00D4800E00D4890ED130A84ED12
:104050000E0A94ED0E0A0B490120B1EE400A84EDE0
:104060000F0A81F8550070BD0748EEE7C8480024E4
:1040700020DC022418460024E09E0024644D002425
:10408000044E00242C5F0024A44E002410B54FF4ED
:10409000FA740D482146FCF7CBF90C480A4A0C4B40
:1040A0004079012800D000200A4958701070022081
:1040B000812208700120044916F05AFD2146024869
:1040C000BDE81040FCF7B4B93843002420DC0224DA
:1040D000C8480024184600242DE9F0418C4C3622B3
:1040E0008C480021E270427922718679C279037A84
:1040F00001EB0661457A01EB024101EB0321294402
:10410000A163817A0022C37A057B02EB0161467BC1
:1041100001EB034101EB05213144E161817BC37B6C
:10412000057C02EB0161467C01EB034101EB0521BB
:1041300031442164817CE171C17C037D457D02EBCA
:104140000161867D01EB034101EB0521314461648E
:10415000C17D2172017E437E857E02EB0161C67EB8
:1041600001EB034101EB052131446163017F437F92
:10417000857F02EB0161C67F01EB034101EB052165
:104180003144A16290F82010617290F8213090F8CB
:10419000221002EB0320084420825F480078362872
:1041A00007D15E494FF44F722046FCF771F90028A1
:1041B0007DD094ED100A5AA084ED0F0AE1780CF03E
:1041C00053FF21795AA00CF04FFF94ED0E0A5DA029
:1041D000B7EEC00A53EC102B0CF046FF94ED070A23
:1041E0005BA0B7EEC00A53EC102B0CF03DFF94ED32
:1041F000100A5AA0B7EEC00A53EC102B0CF034FF93
:10420000E1795AA00CF030FF94ED110A5BA0B7EEF3
:10421000C00A53EC102B0CF027FF217A5AA00CF0A7
:1042200023FF94ED0D0A5EA0B7EEC00A53EC102BED
:104230000CF01AFF94ED0A0A5EA0B7EEC00A53EC28
:10424000102B0CF011FF617A5FA00CF00DFF218A9A
:1042500063A00CF009FF654890F8681041B390F82E
:104260006910C9074BD08778C51CE67800F10D01AD
:10427000024603467E55867825797554817894EDFB
:10428000070A00EB810181ED250A817894ED0E0A81
:1042900000EB810181ED390A817894ED0F0A00EB82
:1042A000810181ED430A857894ED110A01E024E053
:1042B00025E0BCEEC00A17322B3310EE101AA954B9
:1042C000217A827800EE101A00EB8201B8EE400AE3
:1042D00081ED570A817894ED0A0A00EB810181EDA6
:1042E0002F0A8278617AD1548178228A00EB4101C9
:1042F000A1F840208178491C8170BDE8F0813C4ADA
:104300000021012011733B4981F85500F5E70000B9
:10431000C848002420DC022418460024E09E002423
:10432000436F6D6D616E643D30782532780D0A0003
:104330004D6F76654374726C3D30782532780D0A86
:10434000000000004163633D25660D0A0000000087
:1043500053706565643D25660D0A00004465634C35
:10436000696D69743D25660D0A0000004C696D6930
:10437000744D6F64653D25640D0A00004C696D69DC
:10438000743D25660D0A000044657374696E61749E
:10439000696F6E4374726C3D25640D0A0000000065
:1043A00044656344657374696E6174696F6E3D251D
:1043B000660D0A0044657374696E6174696F6E3DC1
:1043C00025660D0A0000000044657374696E61740F
:1043D000696F6E4D6F64653D25640D0A0000000035
:1043E0006C707554414E3D25640D0A0090B3002455
:1043F000044600242C5F002410B5194C70EE602A8E
:10440000DFED181A94ED042A30EE600AB0EE611A5E
:1044100072EEC20A20B1012804D0022804D00CE0B8
:10442000114802E0114800E01148D0ED0C1A90ED5F
:104430000D1A61EEA01A21EE001A84ED040A94ED23
:10444000020A71EE810ABBEE041A30EE800AF3EE26
:10445000040A84ED020A0EF075F984ED020A10BD1B
:104460005C00002400000000644D0024044E002481
:10447000A44E00242DE9F0419C4C35229C4800219B
:10448000E270427922718679C279037A01EB066182
:10449000457A01EB024101EB03212944E161817A74
:1044A0000022E171C17A037B457B02EB0161867BCF
:1044B00001EB034101EB052131446164C17B2172B1
:1044C000017C437C857C02EB0161C67C01EB0341EE
:1044D00001EB05213144A162017D6172437D817D43
:1044E00002EB03200844208282480078352807D157
:1044F00081494FF44F722046FBF7CAFF00287DD058
:104500007E487F497F4A237923B1012B11D0022BAA
:1045100024D12AE0D0ED130AC4ED0E0AB1EE600AF0
:1045200084ED0F0AD0ED140A29E000BF84ED100AD3
:1045300014E091ED130A84ED0E0AF1EE400AC4ED89
:104540000F0A91ED140A94ED071AB4EEC10AF1EEC8
:1045500010FA01D284ED070AC4ED100A237AC3B120
:10456000012B19D0022B1DD1B4E0D2ED130AC4EDFA
:104570000E0AB1EE600A84ED0F0AD2ED140A94ED32
:10458000071AF4EEC10AF1EE10FACFD2C4ED070A11
:10459000CCE790ED130A01E091ED130AB1EE400A69
:1045A00084ED0D0AE17858A00CF05EFD21795AA047
:1045B0000CF05AFD94ED070A5CA0B7EEC00A53EC6C
:1045C000102B0CF051FDE1795BA00CF04DFD94ED4A
:1045D000110A5DA0B7EEC00A53EC102B0CF044FD9D
:1045E000217A5CA00CF040FD94ED0A0A5FA0B7EEC2
:1045F000C00A53EC102B0CF037FD00E068E094ED9E
:104600000D0A5FA0B7EEC00A53EC102B0CF02CFD86
:10461000617A60A00CF028FD218A64A00CF024FDD2
:10462000654890F86810E1B390F86910C90754D054
:104630008778C51CE67800F10D0102460346173263
:104640007E55867825797554817894ED070A00EBBC
:10465000810181ED250A817894ED0E0A00EB81013C
:1046600081ED390A817894ED0F0A00EB810181ED2B
:10467000430A94ED110A8578BCEEC00A10EE101AB8
:10468000A954217A827800EE101A00EB8201B8EE6C
:10469000400A81ED570A817894ED0A0A00EB810106
:1046A00000E01AE081ED2F0A81782B3394ED0D0A9A
:1046B00000EB810181ED1B0A8278617AD154817807
:1046C000228A00EB4101A1F840208178491C8170C9
:1046D000BDE8F08192ED130A60E7384A002101201D
:1046E0001173374981F85500F2E70000C8480024EB
:1046F00020DC022418460024E09E0024644D00249F
:10470000044E0024A44E0024436F6D6D616E643D21
:1047100030782532780D0A004D6F76654374726CDF
:104720003D30782532780D0A000000005370656531
:10473000643D25660D0A00004C696D69744D6F6417
:10474000653D25640D0A00004C696D69743D256660
:104750000D0A000044657374696E6174696F6E437D
:1047600074726C3D25640D0A00000000446573748A
:10477000696E6174696F6E3D25660D0A0000000068
:1047800044656344657374696E6174696F6E3D2539
:10479000660D0A0044657374696E6174696F6E4DCD
:1047A0006F64653D25640D0A000000006C7075544F
:1047B000414E3D25640D0A0090B3002404460024B8
:1047C0002C5F00242DE9F05FDFF80CA14FF0110BF6
:1047D000DFF8089100232DED048B8AF803B099F8D7
:1047E00005108AF8041099F80640002999F8075036
:1047F00099F8087003EB046099F8098000EB054014
:1048000099F80A2000EB072099F80B30404499F8FA
:104810000C4009EE100A4FF0000099F80D5000EB23
:10482000026099F80E6000EB034099F80F7000EBFE
:10483000042099F810C0284499F8118008EE900AD5
:104840004FF0000000EB066000EB074000EB0C208F
:10485000404408EE100A04D0012909D0022914D1DD
:104860000DE08AED689ACAED698A8AED6A8A0CE0E1
:104870008AED859ACAED868A8AED878A05E08AEDF7
:10488000A29ACAEDA38A8AEDA48A1549012054464A
:1048900081F8610013A059460CF0E6FB217918A0BD
:1048A0000CF0E2FBB7EEC90A19A053EC102B0CF088
:1048B000DBFBB7EEE80A18A053EC102B0CF0D4FB8E
:1048C000B7EEC80ABDEC048B15A0BDE8F05F53EC51
:1048D000102B0CF0C9BB0000C848002420DC0224C7
:1048E0002C5F0024436F6D6D616E643D307825321E
:1048F0007820444F5045504F53504944090D0A0009
:104900004D6F76654374726C3D2564090D0A000095
:10491000503D2566090D0A00493D2566090D0A002E
:10492000443D2566090D0A0070B5594C342159489B
:10493000E17041792171C1798379057A427A09045C
:1049400002EB036201EB05211144A163C17A837A72
:10495000057B427B090402EB036201EB0521114454
:10496000E161C17B837B057C427C090402EB03622D
:1049700001EB0521114400EE101AB1EE400A84ED5E
:104980000F0AC17C837C057D427D090402EB036232
:1049900001EB05211144A162C17D807D01EB002066
:1049A00020823D480078342807D13C494FF44F72AB
:1049B0002046FBF76DFD002863D0207910B1012857
:1049C0000ED101E0364800E03648D4ED070A90EDFC
:1049D000140AB4EEE00AF1EE10FA01D284ED070AEF
:1049E00094ED0E0A30A0B7EEC00A53EC102B0CF079
:1049F0003BFB94ED070A2FA0B7EEC00A53EC102B37
:104A00000CF032FB94ED0F0A2DA0B7EEC00A53EC68
:104A1000102B0CF029FB2D4890F8681091B390F8FA
:104A20006910C9072FD08578C11CE37800F10D0209
:104A30006B54837821799954817894ED070A00EBBF
:104A4000810181ED250A817894ED0E0A00EB810148
:104A500081ED390A817894ED0F0A00EB810181ED37
:104A6000430A817894ED0A0A00EB810181ED2F0A57
:104A70008178228A00EB4101A1F840208178491C0D
:104A8000817070BDFFE71249012081F85500F8E7F9
:104A9000C848002420DC022418460024E09E00249C
:104AA000644D0024044E00244163633D25660D0AD5
:104AB0000000000053706565643D25660D0A000026
:104AC0004465633D25660D0A0000000090B3002494
:104AD0002C5F002470B5444C33214448E170417987
:104AE0002171C1798379057A427A090402EB036264
:104AF00001EB05211144E161C27A837A057B417B98
:104B0000120401EB036102EB05221144A162C17B97
:104B1000807B01EB0020208235480078332807D1C4
:104B200034494FF44F722046FBF7B2FC002853D0B3
:104B3000217921B1012904D0022918D103E02E489E
:104B400002E02E4800E02E4890ED130A84ED0E0A94
:104B5000F1EE400AC4ED0F0A90ED140AD4ED070AF5
:104B6000B4EEE00AF1EE10FA01D284ED070A25480E
:104B700090F868208AB390F86920D2072ED0867802
:104B8000C21CE57800F10D03B5548278D1548178C8
:104B900094ED070A00EB810181ED250A817894EDFF
:104BA0000E0A00EB810181ED390A817894ED0F0A3C
:104BB00000EB810181ED430A817894ED0A0A00EB54
:104BC000810181ED2F0A8178228A00EB4101A1F851
:104BD00040208178491C817070BDFFE70A4901209F
:104BE00081F85500F8E70000C848002420DC0224C2
:104BF00018460024E09E0024644D0024044E002446
:104C0000A44E002490B300242C5F002410B5A6B05D
:104C100000204FF4FA71ADF894001D4844791D4806
:104C20008DF80040FBF704FC1A4A0320009925ABDD
:104C30000BF09DFC24B1012C0CD0022C16D11DE0F0
:104C400025A81549902224906846FBF7D8FB124806
:104C5000103808E025A81149902224906846FBF7F7
:104C6000CEFB0E4810380FC800F01CF8094984220A
:104C7000BDF8940015F07CFF26B010BD25A80849AA
:104C8000902224906846FBF7BAFB05481038EAE703
:104C900020DC022438430024744D0024144E0024E8
:104CA000B44E00242DE9F04F0D46144622A9534A74
:104CB0002D9B91E8C00F014600200BF058FC4F4A95
:104CC00000202D9B29460BF052FC4C4A00202D9BC6
:104CD00021460BF04CFC494A00202D9B0B990BF010
:104CE00046FC464A00202D9B0C990BF040FC434AA1
:104CF00000202D9B0D990BF03AFC404A00202D9B83
:104D000014990BF034FC3D4A01202D9B15990BF0B2
:104D10002EFC3A4A00202D9B18990BF028FC374AAC
:104D200000202D9B19990BF022FC344A00202D9B6A
:104D30001A990BF01CFC314A03202D9B1B990BF098
:104D400016FC2E4A00202D9B1C990BF010FC2B4AC0
:104D500001202D9B1D990BF00AFC284A00202D9B59
:104D60001E990BF004FC254A00202D9B1F990BF087
:104D7000FEFB224A03202D9B20990BF0F8FB1F4AD3
:104D800000202D9B21990BF0F2FB1C4A00202D9B4B
:104D900031460BF0ECFB194A00202D9B39460BF0F5
:104DA000E6FB164A00202D9B41460BF0E0FB134A20
:104DB00000202D9B49460BF0DAFB104A00202D9B6A
:104DC00051460BF0D4FB0D4A00202D9B59460BF0A9
:104DD000CEFB0A4A03202D9B28990BF0C8FB074AFB
:104DE00000202D9B29990BF0C2FB2D9B00202A99B6
:104DF000BDE8F04F014A0BF0BABB00003843002475
:104E00003EB528480021ADF800104FF4FA714579FD
:104E10008DF80450847924488DF80840FBF708FB8E
:104E2000214A032001996B460BF0A1FB1E4A032087
:104E300002996B460BF09BFB25B1012D06D0022D8C
:104E400017D107E0002C194C1AD006E0002C184CA2
:104E500016D002E0002C174C12D0134A0020616CCF
:104E60006B460BF084FB104A0120A16C6B460BF0E3
:104E70007EFB0D498722BDF8000015F079FE3EBD8E
:104E8000094A0020E16B6B460BF071FB064A0120DA
:104E9000216C6B460BF06BFB216C07A00CF0E4F867
:104EA000E7E7000020DC022438430024644D00249E
:104EB000044E0024A44E0024444F5045524446451D
:104EC0004544464F525741524420506F7344656CDD
:104ED00061793A25640D0A0038B51F4D07211F4A34
:104EE00006200024E97052792A71ADF800001CA058
:104EF0000CF0BAF8297924A00CF0B6F82D7925B178
:104F0000012D04D0022D05D103E0234C02E0234CF7
:104F100000E0234C4FF4FA712248FBF789FA002095
:104F2000204A6B462946ADF8000003200BF01FFB1A
:104F300054F8981F1B4A00206B460BF018FB194AC7
:104F4000002061686B460BF012FB16498322BDF806
:104F5000000015F00DFE38BDC848002420DC0224F6
:104F6000436F6D6D616E643D307825327820444F1B
:104F7000504552444E4F4D494E414C41434353508E
:104F8000454544090D0A00004D6F76654374726C07
:104F90003D2564090D0A0000644D0024044E0024E0
:104FA000A44E0024384300243EB529480021ADF822
:104FB00000104FF4FA7145798DF804508479254832
:104FC0008DF80840FBF734FA224A032001996B461A
:104FD0000BF0CDFA1F4A032002996B460BF0C7FA7B
:104FE00025B1012D2CD0022D23D12DE0002C1A4CFF
:104FF0000DD1184A002021686B460BF0B8FA154A0B
:10500000002061686B460BF0B2FAA1680CE0114A0F
:105010000020E1686B460BF0AAFA0E4A00202169D5
:105020006B460BF0A4FA616900200A4A6B460BF04C
:105030009EFA08498522BDF8000015F099FD3EBD95
:10504000002C064CE3D1D4E7002C054CDFD1D0E78F
:1050500020DC022438430024644D0024044E002444
:10506000A44E0024FEB5294800264FF4FA71457974
:105070008DF80450847926488DF80840FBF7D8F95C
:10508000234A032001996B46ADF800600BF06FFADC
:105090001F4A032002996B460BF069FA25B1012DD6
:1050A0002CD0022D23D12DE0002C1A4C0DD1184A02
:1050B0000020A1696B460BF05AFA154A0020E169FD
:1050C0006B460BF054FA216A0CE0114A0020616A29
:1050D0006B460BF04CFA0E4A0020A16A6B460BF0AF
:1050E00046FAE16A00200A4A6B460BF040FA08498A
:1050F0008622BDF8000015F03BFDFEBD002C064CDD
:10510000E3D1D4E7002C054CDFD1D0E720DC02242A
:1051100038430024644D0024044E0024A44E00248F
:1051200010B54FF4FA7410482146FBF781F90F4A85
:105130000D490F485379012B00D0002383700B7069
:105140000323D179927901EB02210182094882225D
:1051500005490370012015F00BFD21460248BDE80A
:105160001040FBF765B900003843002420DC02241E
:10517000C848002418460024F0B40E4801230E4A03
:1051800081794579C679047A090404EB056401EB59
:1051900006212144094C89B2A2F82C1384F8593015
:1051A000837A407A03EB00201082F0BC04A00BF05D
:1051B0005BBF000020DC0224C84800242C5F0024D0
:1051C0005472616E736D6974446174615065726983
:1051D0006F643A25640D0A002DE9F0472D4C4FF01D
:1051E00008092D4800222DED028B84F803904179A7
:1051F00021718579002990F80780077A02EB056212
:1052000090F809C002EB0848837AC57A067B427B96
:1052100008EB0720604408EE900A4FF0000000EB16
:10522000036000EB054000EB0620104408EE100A76
:1052300004D0012907D002290ED109E0C4ED788AF3
:1052400084ED798A08E0C4ED958A84ED968A03E0BE
:10525000C4EDB28A84EDB38A1049012081F862005E
:105260000FA049460BF000FF217917A00BF0FCFEC0
:10527000B7EEE80A18A053EC102B0BF0F5FEB7EED2
:10528000C80ABDEC028B19A0BDE8F04753EC102B07
:105290000BF0EABEC848002420DC02242C5F002466
:1052A000436F6D6D616E643D307825327820444FD8
:1052B00050455345544E4F4D494E414C4143435345
:1052C00050454544090D0A004D6F76654374726C74
:1052D0003D2564090D0A00004E6F6D696E616C41D9
:1052E00063633D2566090D0A000000004E6F6D697D
:1052F0006E616C53706565643D2566090D0A00009A
:1053000070B5224C302222480021E2704679827921
:10531000C37901EB0661057A01EB024101EB032140
:105320002944A161467A0021827AC37A01EB0661A1
:10533000057B01EB024101EB032129442165407B00
:10534000E07214480078302807D113494FF44F72A7
:105350002046FBF79DF8002816D0E1780FA00BF04F
:1053600083FE94ED140A17A0B7EEC00A53EC102B7D
:105370000BF07AFEA16918A00BF076FEE17A1BA073
:105380000BF072FE0120207370BD0000C84800249D
:1053900020DC022418460024E09E0024436F6D6D3B
:1053A000616E643D30782532782020444F5045535B
:1053B00045544F50454E4C4F4F50434F4D4D414E2D
:1053C000440D0A006F70656E6C6F6F70414F3D2524
:1053D0002E32660D0A0000006F70656E6C6F6F7084
:1053E0004672713D2535640D0A000000444F3D258D
:1053F00031780D0A000000002DE9F043DFF87890C5
:1054000010221E4889F80320437989F80430C179B5
:10541000002B8579067AC27A4FEA0141447A90F8E6
:105420000AC001EB062190F80C8004EB0565477B70
:105430004FEA0242294407EB0C6402EB0826827B08
:1054400004EB060004D0012B07D0022B0ED109E09B
:10545000C9E9641089F8982108E0C9E9811089F840
:105460000C2203E0C9E99E1089F88022012004493A
:1054700081F86200BDE8F083C848002420DC0224E3
:105480002C5F00241E4900221E48422370B5CB70B9
:105490000A714479857902EB0420284484B21A48C1
:1054A0000C8290ED260A194881ED0E0AF1EE400AB1
:1054B000C1ED0F0A90F86810E9B190F86910C907BA
:1054C00019D08678C51C00F10D01735583785A54A4
:1054D000817800EB810181ED390A817800EB81014F
:1054E000C1ED430A817800EB4101A1F84040817889
:1054F000491C817070BD0649012081F8550070BDBE
:10550000C848002420DC0224644D002490B3002409
:105510002C5F00242DE9F041244801242449254D25
:1055200042790A71C379467A8779007A4FEA034350
:1055300006EB076603EB0020304422B1012A11D0AC
:10554000022A1FD122E000EE100A1B4881ED610AF9
:1055500080ED140AB7EEC00A18A085F8304053EC6D
:10556000102B0DE000EE100A1A4881ED7E0A80ED46
:10557000140AB7EEC00A18A085F8314053EC102B7E
:105580000BF072FD85F86240BDE8F08100EE100A74
:10559000174881ED9B0A80ED140AB7EEC00A15A0EA
:1055A00085F8324053EC102BEAE7000020DC02249F
:1055B000C84800242C5F0024644D0024506F7320E1
:1055C00044656661756C7453706565643A25660D53
:1055D0000A000000044E00244C6F6164204465669C
:1055E00061756C7453706565643A25660D0A000038
:1055F000A44E00244578742044656661756C74532C
:10560000706565643A25660D0A0000002DE9F041D9
:10561000374C1421374800222DED048BE17043797B
:1056200023718679C779057A02EB0662467A02EB26
:105630000742077B02EB0522857A3244C67A09EEDF
:10564000102A002202EB0562457B02EB0642867BB4
:1056500002EB0722077C2A44C57B08EE902A002231
:1056600002EB0662467C02EB054000EB072030446B
:1056700008EE100A23B1012B09D0022B14D10DE042
:1056800084ED6E9AC4ED6F8A84ED708A0CE084ED2F
:105690008B9AC4ED8C8A84ED8D8A05E084EDA89AFE
:1056A000C4EDA98A84EDAA8A134A012082F8610018
:1056B00012A00BF0D9FC217918A00BF0D5FCB7EEA5
:1056C000C90A1AA053EC102B0BF0CEFCB7EEE80A77
:1056D00018A053EC102B0BF0C7FCB7EEC80ABDECBA
:1056E000048B16A0BDE8F04153EC102B0BF0BCBCB2
:1056F000C848002420DC02242C5F0024436F6D6D19
:10570000616E643D307825327820444F50455350C7
:10571000454544504944090D0A0000004D6F766527
:105720004374726C3D2564090D0A0000503D2566E6
:10573000090D0A00493D2566090D0A00443D25660C
:10574000090D0A00084809494279012A00D00022BF
:105750000A72074A04211170C17A807A01EB002095
:10576000044908827047000020DC0224044600241B
:1057700018460024C84800242DE9F04F64494FF032
:10578000470E6448002281F803E044790C71877960
:10579000002CC379057A02EB0762467A02EB0342DA
:1057A0004FF0000302EB052206EB0209C1F8389026
:1057B000827AC57A067B03EB0262477B02EB0542E5
:1057C00002EB06223A4400EE102A1A4681ED070A3F
:1057D000877BC37B057C02EB0762467C02EB0342BE
:1057E00002EB052206EB0203CB63857C4FF000023F
:1057F000C67C077D02EB056290F815C002EB0642FD
:105800004FF0000502EB07226244C1F83423867D85
:1058100081F83063B346C67D077E90F819C005EB6A
:10582000066590F81A8005EB07454FF0000605EB7A
:105830000C254544C1F83853C77E007F06EB072688
:1058400030441FFA80FAA1F810A004D0012C04D033
:10585000022C19D10DE030480CE030492C48D1ED34
:10586000140AF4EEC00AF1EE10FA0DD2C0ED070AE8
:105870000AE02B482649D0ED140AF4EEC00AF1EEF6
:1058800010FA01D2C1ED070A264890F86810C1B39A
:1058900090F86910C90735D090F80280C61C00F155
:1058A0000D0784460CF1350C08F806E08178CC55DC
:1058B0001749847891ED070A00EB840181ED250AF0
:1058C000817800EB8104C4F8E490817800EB8101D9
:1058D000C1F80C31817800EB8101C1F85C2182783C
:1058E00002F80CB0817800EB8101C1F88451817815
:1058F00000EB4102A2F840A08178491C8170BDE80C
:10590000F08FFFE70849012081F85500F7E7000014
:10591000C848002420DC0224644D0024044E0024E6
:10592000A44E002490B300242C5F0024554900228B
:105930002DE9F04754484FF0470881F80380437938
:105940000B718479002BC579067A02EB0462477AE1
:1059500002EB054202EB06223A4400EE102A4FF019
:10596000000281ED070A847AC57A067B02EB0462A5
:10597000477B02EB05424FF0000402EB06223A445B
:10598000C1F83423857B81F83053AA46C57B067C59
:10599000477C04EB056490F812C004EB06444FF01A
:1059A000000504EB07246444C1F83843C67C007D3D
:1059B00005EB062528441FFA80F9A1F8109004D0C1
:1059C000012B04D0022B17D103E0304902E030490B
:1059D00000E030492B48D1ED130AC0ED0E0AB1EEBC
:1059E000601A80ED0F1AD1ED140AF4EEC00AF1EE40
:1059F00010FA01D2C0ED070A274890F86810D9B311
:105A000090F86910C90738D090F802C0C51C00F1A1
:105A10000D061C49074635370CF805808578AB55CF
:105A2000837891ED070A00EB830383ED250A8378E1
:105A300091ED0E0A00EB830383ED390A837891ED33
:105A40000F0A00EB830181ED430A817800EB8101AD
:105A5000C1F85C21827802F807A0817800EB81010F
:105A6000C1F88441817800EB4102A2F8409081782E
:105A7000491C8170BDE8F087FFE70849012081F8E3
:105A80005500F7E7C848002420DC0224644D0024B8
:105A9000044E0024A44E002490B300242C5F002464
:105AA0002DE9F047DFF8D4904FF0190A344989F80E
:105AB00003A04A7989F804208879002A89F805002A
:105AC0000D7ACC794E7A8B7A4FEA054591F80BC066
:105AD00091F80C8003EB04638F7B05EB0624497B74
